{
  "address": "0x8Ac21Cc278B67BbBc079CA1987F83c21F271734F",
  "abi": [
    {
      "inputs": [
        {
          "internalType": "address",
          "name": "_previousRegistrar",
          "type": "address"
        },
        {
          "internalType": "address",
          "name": "_resolver",
          "type": "address"
        },
        {
          "internalType": "contract DNSSEC",
          "name": "_dnssec",
          "type": "address"
        },
        {
          "internalType": "contract PublicSuffixList",
          "name": "_suffixes",
          "type": "address"
        },
        {
          "internalType": "contract ENS",
          "name": "_ens",
          "type": "address"
        }
      ],
      "stateMutability": "nonpayable",
      "type": "constructor"
    },
    {
      "inputs": [
        {
          "internalType": "bytes",
          "name": "name",
          "type": "bytes"
        }
      ],
      "name": "InvalidPublicSuffix",
      "type": "error"
    },
    {
      "inputs": [],
      "name": "NoOwnerRecordFound",
      "type": "error"
    },
    {
      "inputs": [
        {
          "internalType": "uint256",
          "name": "offset",
          "type": "uint256"
        },
        {
          "internalType": "uint256",
          "name": "length",
          "type": "uint256"
        }
      ],
      "name": "OffsetOutOfBoundsError",
      "type": "error"
    },
    {
      "inputs": [
        {
          "internalType": "address",
          "name": "caller",
          "type": "address"
        },
        {
          "internalType": "address",
          "name": "owner",
          "type": "address"
        }
      ],
      "name": "PermissionDenied",
      "type": "error"
    },
    {
      "inputs": [],
      "name": "PreconditionNotMet",
      "type": "error"
    },
    {
      "inputs": [],
      "name": "StaleProof",
      "type": "error"
    },
    {
      "anonymous": false,
      "inputs": [
        {
          "indexed": true,
          "internalType": "bytes32",
          "name": "node",
          "type": "bytes32"
        },
        {
          "indexed": true,
          "internalType": "address",
          "name": "owner",
          "type": "address"
        },
        {
          "indexed": false,
          "internalType": "bytes",
          "name": "dnsname",
          "type": "bytes"
        },
        {
          "indexed": false,
          "internalType": "uint32",
          "name": "inception",
          "type": "uint32"
        }
      ],
      "name": "Claim",
      "type": "event"
    },
    {
      "anonymous": false,
      "inputs": [
        {
          "indexed": false,
          "internalType": "address",
          "name": "suffixes",
          "type": "address"
        }
      ],
      "name": "NewPublicSuffixList",
      "type": "event"
    },
    {
      "inputs": [
        {
          "internalType": "bytes",
          "name": "domain",
          "type": "bytes"
        }
      ],
      "name": "enableNode",
      "outputs": [
        {
          "internalType": "bytes32",
          "name": "node",
          "type": "bytes32"
        }
      ],
      "stateMutability": "nonpayable",
      "type": "function"
    },
    {
      "inputs": [],
      "name": "ens",
      "outputs": [
        {
          "internalType": "contract ENS",
          "name": "",
          "type": "address"
        }
      ],
      "stateMutability": "view",
      "type": "function"
    },
    {
      "inputs": [
        {
          "internalType": "bytes32",
          "name": "",
          "type": "bytes32"
        }
      ],
      "name": "inceptions",
      "outputs": [
        {
          "internalType": "uint32",
          "name": "",
          "type": "uint32"
        }
      ],
      "stateMutability": "view",
      "type": "function"
    },
    {
      "inputs": [],
      "name": "oracle",
      "outputs": [
        {
          "internalType": "contract DNSSEC",
          "name": "",
          "type": "address"
        }
      ],
      "stateMutability": "view",
      "type": "function"
    },
    {
      "inputs": [],
      "name": "previousRegistrar",
      "outputs": [
        {
          "internalType": "address",
          "name": "",
          "type": "address"
        }
      ],
      "stateMutability": "view",
      "type": "function"
    },
    {
      "inputs": [
        {
          "internalType": "bytes",
          "name": "name",
          "type": "bytes"
        },
        {
          "components": [
            {
              "internalType": "bytes",
              "name": "rrset",
              "type": "bytes"
            },
            {
              "internalType": "bytes",
              "name": "sig",
              "type": "bytes"
            }
          ],
          "internalType": "struct DNSSEC.RRSetWithSignature[]",
          "name": "input",
          "type": "tuple[]"
        }
      ],
      "name": "proveAndClaim",
      "outputs": [],
      "stateMutability": "nonpayable",
      "type": "function"
    },
    {
      "inputs": [
        {
          "internalType": "bytes",
          "name": "name",
          "type": "bytes"
        },
        {
          "components": [
            {
              "internalType": "bytes",
              "name": "rrset",
              "type": "bytes"
            },
            {
              "internalType": "bytes",
              "name": "sig",
              "type": "bytes"
            }
          ],
          "internalType": "struct DNSSEC.RRSetWithSignature[]",
          "name": "input",
          "type": "tuple[]"
        },
        {
          "internalType": "address",
          "name": "resolver",
          "type": "address"
        },
        {
          "internalType": "address",
          "name": "addr",
          "type": "address"
        }
      ],
      "name": "proveAndClaimWithResolver",
      "outputs": [],
      "stateMutability": "nonpayable",
      "type": "function"
    },
    {
      "inputs": [],
      "name": "resolver",
      "outputs": [
        {
          "internalType": "address",
          "name": "",
          "type": "address"
        }
      ],
      "stateMutability": "view",
      "type": "function"
    },
    {
      "inputs": [
        {
          "internalType": "contract PublicSuffixList",
          "name": "_suffixes",
          "type": "address"
        }
      ],
      "name": "setPublicSuffixList",
      "outputs": [],
      "stateMutability": "nonpayable",
      "type": "function"
    },
    {
      "inputs": [],
      "name": "suffixes",
      "outputs": [
        {
          "internalType": "contract PublicSuffixList",
          "name": "",
          "type": "address"
        }
      ],
      "stateMutability": "view",
      "type": "function"
    },
    {
      "inputs": [
        {
          "internalType": "bytes4",
          "name": "interfaceID",
          "type": "bytes4"
        }
      ],
      "name": "supportsInterface",
      "outputs": [
        {
          "internalType": "bool",
          "name": "",
          "type": "bool"
        }
      ],
      "stateMutability": "pure",
      "type": "function"
    }
  ],
  "transactionHash": "0x7aa49fb38c794f342b38e791aef517916a1e652e0c007cff5a26fcc7a7219be0",
  "args": [
    "0xE135bfBD9E5583a927ABeD4fD6d5621791794792",
    "0x3fFeA0C70AbA79f626397bFb46c3Ed548f10521e",
    "0xD91dBfb01F32E62aA30415C9d703bDAfE042A5a6",
    "0x3d5cA7e9703d47289c9715fD512f3961439a333a",
    "0x9691E2eFb8C7f6d714A7b35da3184b8cB927a415"
  ],
  "numDeployments": 2,
  "solcInputHash": "c35424a7bba1f0692909ebd06c2cd88c",
  "bytecode": "0x6101006040523480156200001257600080fd5b5060405162002198380380620021988339810160408190526200003591620000c8565b6001600160a01b0385811660c05284811660e05283811660a052600080546001600160a01b03191691841691821790556040519081527f9176b7f47e4504df5e5516c99d90d82ac7cbd49cc77e7f22ba2ac2f2e3a3eba89060200160405180910390a16001600160a01b0316608052506200014892505050565b6001600160a01b0381168114620000c557600080fd5b50565b600080600080600060a08688031215620000e157600080fd5b8551620000ee81620000af565b60208701519095506200010181620000af565b60408701519094506200011481620000af565b60608701519093506200012781620000af565b60808701519092506200013a81620000af565b809150509295509295909350565b60805160a05160c05160e051611fca620001ce6000396000818160db01528181610b620152610c190152600081816102120152610a190152600081816101eb01526106ea0152600081816101a3015281816102fc01528181610443015281816105cd0152818161099901528181610a7001528181610b8a0152610c480152611fca6000f3fe608060405234801561001057600080fd5b50600436106100a95760003560e01c806329d566301161007157806329d566301461017857806330349ebe1461018b5780633f15457f1461019e5780636f951221146101c55780637dc0d1d0146101e6578063ab14ec591461020d57600080fd5b806301ffc9a7146100ae57806304f3bcec146100d657806306963218146101155780631ecfc4111461012a57806325916d411461013d575b600080fd5b6100c16100bc366004611844565b610234565b60405190151581526020015b60405180910390f35b6100fd7f000000000000000000000000000000000000000000000000000000000000000081565b6040516001600160a01b0390911681526020016100cd565b610128610123366004611a6e565b61026b565b005b610128610138366004611af7565b61042a565b61016361014b366004611b14565b60016020526000908152604090205463ffffffff1681565b60405163ffffffff90911681526020016100cd565b610128610186366004611b2d565b610589565b6000546100fd906001600160a01b031681565b6100fd7f000000000000000000000000000000000000000000000000000000000000000081565b6101d86101d3366004611b91565b610644565b6040519081526020016100cd565b6100fd7f000000000000000000000000000000000000000000000000000000000000000081565b6100fd7f000000000000000000000000000000000000000000000000000000000000000081565b60006001600160e01b031982166301ffc9a760e01b148061026557506001600160e01b031982166305e86a8560e31b145b92915050565b600080600061027a87876106e0565b91945092509050336001600160a01b038216146102c05760405163380fd80960e21b81523360048201526001600160a01b03821660248201526044015b60405180910390fd5b6040516305ef2c7f60e41b815260048101849052602481018390526001600160a01b0382811660448301528681166064830152600060848301527f00000000000000000000000000000000000000000000000000000000000000001690635ef2c7f09060a401600060405180830381600087803b15801561034057600080fd5b505af1158015610354573d6000803e3d6000fd5b505050506001600160a01b03841615610421576001600160a01b03851661038e57604051633c584f1360e21b815260040160405180910390fd5b604080516020810185905290810183905260009060600160408051808303601f1901815290829052805160209091012062d5fa2b60e81b8252600482018190526001600160a01b03878116602484015290925087169063d5fa2b0090604401600060405180830381600087803b15801561040757600080fd5b505af115801561041b573d6000803e3d6000fd5b50505050505b50505050505050565b6040516302571be360e01b8152600060048201819052907f00000000000000000000000000000000000000000000000000000000000000006001600160a01b0316906302571be390602401602060405180830381865afa158015610492573d6000803e3d6000fd5b505050506040513d601f19601f820116820180604052508101906104b69190611bc6565b90506000816001600160a01b0316638da5cb5b6040518163ffffffff1660e01b8152600401602060405180830381865afa1580156104f8573d6000803e3d6000fd5b505050506040513d601f19601f8201168201806040525081019061051c9190611bc6565b9050336001600160a01b0382161461053357600080fd5b600080546001600160a01b0319166001600160a01b0385169081179091556040519081527f9176b7f47e4504df5e5516c99d90d82ac7cbd49cc77e7f22ba2ac2f2e3a3eba89060200160405180910390a1505050565b600080600061059885856106e0565b6040516306ab592360e01b815260048101849052602481018390526001600160a01b03828116604483015293965091945092507f0000000000000000000000000000000000000000000000000000000000000000909116906306ab5923906064016020604051808303816000875af1158015610618573d6000803e3d6000fd5b505050506040513d601f19601f8201168201806040525081019061063c9190611be3565b505050505050565b600080546040516327c482cf60e11b81526001600160a01b0390911690634f89059e90610675908590600401611c4c565b602060405180830381865afa158015610692573d6000803e3d6000fd5b505050506040513d601f19601f820116820180604052508101906106b69190611c5f565b6106d5578160405163072dc49760e31b81526004016102b79190611c4c565b6102658260006108eb565b60008060008060007f00000000000000000000000000000000000000000000000000000000000000006001600160a01b031663bdf95fef876040518263ffffffff1660e01b81526004016107349190611c81565b600060405180830381865afa158015610751573d6000803e3d6000fd5b505050506040513d6000823e601f3d908101601f191682016040526107799190810190611d06565b9092509050600061078a8882610cdc565b60ff16905061079b88600183610d00565b945060006107ce6107ad836001611db3565b6001848c516107bc9190611dc6565b6107c69190611dc6565b8b9190610d24565b90506107d981610644565b9650600087876040516020016107f9929190918252602082015260400190565b60408051808303601f190181529181528151602092830120600081815260019093529082205490925063ffffffff16850360030b121561084c57604051632dd6a7af60e01b815260040160405180910390fd5b6000818152600160205260408120805463ffffffff191663ffffffff87161790556108778b87610da6565b90975090508061089a57604051630c4c1edf60e31b815260040160405180910390fd5b866001600160a01b0316827f87db02a0e483e2818060eddcbb3488ce44e35aff49a70d92c2aa6c8046cf01e28d886040516108d6929190611dd9565b60405180910390a35050505050509250925092565b6000806108f88484610cdc565b60ff1690508060000361090f575060009050610265565b600061092f8561091f8487611db3565b61092a906001611db3565b6108eb565b90506000610949610941866001611db3565b879085610d00565b604080516020810185905290810182905290915060600160408051601f198184030181529082905280516020909101206302571be360e01b82526004820181905294506000906001600160a01b037f000000000000000000000000000000000000000000000000000000000000000016906302571be390602401602060405180830381865afa1580156109e0573d6000803e3d6000fd5b505050506040513d601f19601f82011682018060405250810190610a049190611bc6565b90506001600160a01b0381161580610a4d57507f00000000000000000000000000000000000000000000000000000000000000006001600160a01b0316816001600160a01b0316145b15610ca95782610bee576040516302571be360e01b8152600060048201819052907f00000000000000000000000000000000000000000000000000000000000000006001600160a01b0316906302571be390602401602060405180830381865afa158015610abf573d6000803e3d6000fd5b505050506040513d601f19601f82011682018060405250810190610ae39190611bc6565b60405163232e3b3b60e21b8152600481018590523060248201529091506001600160a01b03821690638cb8ecec90604401600060405180830381600087803b158015610b2e57600080fd5b505af1158015610b42573d6000803e3d6000fd5b5050604051630c4b7b8560e11b8152600481018990526001600160a01b037f0000000000000000000000000000000000000000000000000000000000000000811660248301527f0000000000000000000000000000000000000000000000000000000000000000169250631896f70a9150604401600060405180830381600087803b158015610bd057600080fd5b505af1158015610be4573d6000803e3d6000fd5b5050505050610cd2565b6040516305ef2c7f60e41b815260048101849052602481018390523060448201526001600160a01b037f000000000000000000000000000000000000000000000000000000000000000081166064830152600060848301527f00000000000000000000000000000000000000000000000000000000000000001690635ef2c7f09060a401600060405180830381600087803b158015610c8c57600080fd5b505af1158015610ca0573d6000803e3d6000fd5b50505050610cd2565b6001600160a01b0381163014610cd257604051633c584f1360e21b815260040160405180910390fd5b5050505092915050565b6000828281518110610cf057610cf0611e01565b016020015160f81c905092915050565b8251600090610d0f8385611db3565b1115610d1a57600080fd5b5091016020012090565b8251606090610d338385611db3565b1115610d3e57600080fd5b60008267ffffffffffffffff811115610d5957610d5961186e565b6040519080825280601f01601f191660200182016040528015610d83576020820181803683370190505b50905060208082019086860101610d9b828287610e9c565b509095945050505050565b600080610dc6604051806040016040528060608152602001600081525090565b610dde85516005610dd79190611db3565b8290610ef2565b50604080518082019091526005815264045f656e7360d81b6020820152610e06908290610f69565b50610e118186610f69565b506000610e1e8582610f91565b90505b80515160208201511015610e8b578151610e4490610e3e83610ff2565b90611013565b600003610e7d57600080610e61878460a001518560c0015161116c565b925090508115610e7a57945060019350610e9592505050565b50505b610e86816111df565b610e21565b5060008092509250505b9250929050565b60208110610ed45781518352610eb3602084611db3565b9250610ec0602083611db3565b9150610ecd602082611dc6565b9050610e9c565b905182516020929092036101000a6000190180199091169116179052565b604080518082019091526060815260006020820152610f12602083611e17565b15610f3a57610f22602083611e17565b610f2d906020611dc6565b610f379083611db3565b91505b602080840183905260405180855260008152908184010181811015610f5e57600080fd5b604052509192915050565b604080518082019091526060815260006020820152610f8a838384516112c7565b9392505050565b610fdf6040518060e001604052806060815260200160008152602001600061ffff168152602001600061ffff168152602001600063ffffffff16815260200160008152602001600081525090565b82815260c08101829052610265816111df565b602081015181516060916102659161100a908261139d565b84519190610d24565b600061101f83836113ff565b1561102c57506000610265565b600080600080600061103f88600061141d565b9050600061104e88600061141d565b90505b8082111561107a57859350611066898761147a565b95508161107281611e39565b925050611051565b818111156110a35784925061108f888661147a565b94508061109b81611e39565b91505061107a565b6000821180156110bc57506110ba89878a8861149e565b155b156110f1578593506110ce898761147a565b95508492506110dd888661147a565b94506110ea600183611dc6565b91506110a3565b85600003611109576000199650505050505050610265565b846000036111205760019650505050505050610265565b61115f61112e856001611db3565b6111388b87610cdc565b60ff168a611147876001611db3565b6111518d89610cdc565b8e949392919060ff166114d3565b9998505050505050505050565b6000805b828410156111d05760006111848686610cdc565b60ff169050611194600186611db3565b94506000806111a4888885611651565b9250905081156111bc579350600192506111d7915050565b6111c68388611db3565b9650505050611170565b5060009050805b935093915050565b60c081015160208201819052815151116111f65750565b600061120a8260000151836020015161139d565b82602001516112199190611db3565b825190915061122890826116a5565b61ffff16604083015261123c600282611db3565b825190915061124b90826116a5565b61ffff16606083015261125f600282611db3565b825190915061126e90826116cd565b63ffffffff166080830152611284600482611db3565b825190915060009061129690836116a5565b61ffff1690506112a7600283611db3565b60a0840181905291506112ba8183611db3565b60c0909301929092525050565b60408051808201909152606081526000602082015282518211156112ea57600080fd5b83515160006112f98483611db3565b9050856020015181111561131b5761131b86611316836002611e50565b6116f7565b855180518382016020019160009180851115611335578482525b505050602086015b602086106113755780518252611354602083611db3565b9150611361602082611db3565b905061136e602087611dc6565b955061133d565b51815160001960208890036101000a0190811690199190911617905250849150509392505050565b6000815b835181106113b1576113b1611e67565b60006113bd8583610cdc565b60ff1690506113cd816001611db3565b6113d79083611db3565b9150806000036113e757506113ed565b506113a1565b6113f78382611dc6565b949350505050565b600081518351148015610f8a5750610f8a8360008460008751611714565b6000805b8351831061143157611431611e67565b600061143d8585610cdc565b60ff16905061144d816001611db3565b6114579085611db3565b9350806000036114675750610f8a565b611472600183611db3565b915050611421565b60006114868383610cdc565b60ff16611494836001611db3565b610f8a9190611db3565b60006114b783838486516114b29190611dc6565b610d00565b6114c986868789516114b29190611dc6565b1495945050505050565b85516000906114e28688611db3565b1115611516576114f28587611db3565b8751604051638a3c1cfb60e01b8152600481019290925260248201526044016102b7565b83516115228385611db3565b1115611556576115328284611db3565b8451604051638a3c1cfb60e01b8152600481019290925260248201526044016102b7565b84808310156115625750815b60208789018101908587010160005b83811015611636578251825180821461160657600060206115928589611dc6565b106115a057506000196115dc565b6001876115ae866020611db3565b6115b89190611dc6565b6115c3906008611e50565b6115ce906002611f61565b6115d89190611dc6565b1990505b60006115ec838316858416611f6d565b905080156116035797506116479650505050505050565b50505b611611602086611db3565b945061161e602085611db3565b9350505060208161162f9190611db3565b9050611571565b506116418589611f6d565b93505050505b9695505050505050565b60008061165e85856116cd565b63ffffffff1663613d307814611679575060009050806111d7565b611699611687856004611db3565b6116918587611db3565b879190611737565b91509150935093915050565b81516000906116b5836002611db3565b11156116c057600080fd5b50016002015161ffff1690565b81516000906116dd836004611db3565b11156116e857600080fd5b50016004015163ffffffff1690565b81516117038383610ef2565b5061170e8382610f69565b50505050565b6000611721848484610d00565b61172c878785610d00565b149695505050505050565b60008060286117468585611dc6565b1015611757575060009050806111d7565b600080611765878787611773565b909890975095505050505050565b825160009060019083111561178757600080fd5b6117d8565b6000603a8210602f831116156117a45750602f190190565b604782106040831116156117ba57506036190190565b606782106060831116156117d057506056190190565b5060ff919050565b60208501845b8481101561183a576117f58183015160001a61178c565b6118076001830184015160001a61178c565b60ff811460ff831417156118205760009450505061183a565b60049190911b1760089490941b93909317926002016117de565b5050935093915050565b60006020828403121561185657600080fd5b81356001600160e01b031981168114610f8a57600080fd5b634e487b7160e01b600052604160045260246000fd5b6040805190810167ffffffffffffffff811182821017156118a7576118a761186e565b60405290565b604051601f8201601f1916810167ffffffffffffffff811182821017156118d6576118d661186e565b604052919050565b600067ffffffffffffffff8211156118f8576118f861186e565b50601f01601f191660200190565b600082601f83011261191757600080fd5b813561192a611925826118de565b6118ad565b81815284602083860101111561193f57600080fd5b816020850160208301376000918101602001919091529392505050565b600082601f83011261196d57600080fd5b8135602067ffffffffffffffff8083111561198a5761198a61186e565b8260051b6119998382016118ad565b93845285810183019383810190888611156119b357600080fd5b84880192505b85831015611a4a578235848111156119d15760008081fd5b88016040818b03601f19018113156119e95760008081fd5b6119f1611884565b8783013587811115611a035760008081fd5b611a118d8a83870101611906565b825250908201359086821115611a275760008081fd5b611a358c8984860101611906565b818901528452505091840191908401906119b9565b98975050505050505050565b6001600160a01b0381168114611a6b57600080fd5b50565b60008060008060808587031215611a8457600080fd5b843567ffffffffffffffff80821115611a9c57600080fd5b611aa888838901611906565b95506020870135915080821115611abe57600080fd5b50611acb8782880161195c565b9350506040850135611adc81611a56565b91506060850135611aec81611a56565b939692955090935050565b600060208284031215611b0957600080fd5b8135610f8a81611a56565b600060208284031215611b2657600080fd5b5035919050565b60008060408385031215611b4057600080fd5b823567ffffffffffffffff80821115611b5857600080fd5b611b6486838701611906565b93506020850135915080821115611b7a57600080fd5b50611b878582860161195c565b9150509250929050565b600060208284031215611ba357600080fd5b813567ffffffffffffffff811115611bba57600080fd5b6113f784828501611906565b600060208284031215611bd857600080fd5b8151610f8a81611a56565b600060208284031215611bf557600080fd5b5051919050565b60005b83811015611c17578181015183820152602001611bff565b50506000910152565b60008151808452611c38816020860160208601611bfc565b601f01601f19169290920160200192915050565b602081526000610f8a6020830184611c20565b600060208284031215611c7157600080fd5b81518015158114610f8a57600080fd5b60006020808301818452808551808352604092508286019150828160051b87010184880160005b83811015611cf857888303603f1901855281518051878552611ccc88860182611c20565b91890151858303868b0152919050611ce48183611c20565b968901969450505090860190600101611ca8565b509098975050505050505050565b60008060408385031215611d1957600080fd5b825167ffffffffffffffff811115611d3057600080fd5b8301601f81018513611d4157600080fd5b8051611d4f611925826118de565b818152866020838501011115611d6457600080fd5b611d75826020830160208601611bfc565b809450505050602083015163ffffffff81168114611d9257600080fd5b809150509250929050565b634e487b7160e01b600052601160045260246000fd5b8082018082111561026557610265611d9d565b8181038181111561026557610265611d9d565b604081526000611dec6040830185611c20565b905063ffffffff831660208301529392505050565b634e487b7160e01b600052603260045260246000fd5b600082611e3457634e487b7160e01b600052601260045260246000fd5b500690565b600081611e4857611e48611d9d565b506000190190565b808202811582820484141761026557610265611d9d565b634e487b7160e01b600052600160045260246000fd5b600181815b80851115611eb8578160001904821115611e9e57611e9e611d9d565b80851615611eab57918102915b93841c9390800290611e82565b509250929050565b600082611ecf57506001610265565b81611edc57506000610265565b8160018114611ef25760028114611efc57611f18565b6001915050610265565b60ff841115611f0d57611f0d611d9d565b50506001821b610265565b5060208310610133831016604e8410600b8410161715611f3b575081810a610265565b611f458383611e7d565b8060001904821115611f5957611f59611d9d565b029392505050565b6000610f8a8383611ec0565b8181036000831280158383131683831282161715611f8d57611f8d611d9d565b509291505056fea2646970667358221220e01362000f0679d42dadf8d71bc8bbefe83df14b24796b00ef3dd371b99a0edd64736f6c63430008110033",
  "devdoc": {
    "details": "An ENS registrar that allows the owner of a DNS name to claim the      corresponding name in ENS.",
    "kind": "dev",
    "methods": {
      "proveAndClaim(bytes,(bytes,bytes)[])": {
        "details": "Submits proofs to the DNSSEC oracle, then claims a name using those proofs.",
        "params": {
          "input": "A chain of signed DNS RRSETs ending with a text record.",
          "name": "The name to claim, in DNS wire format."
        }
      }
    },
    "version": 1
  },
  "userdoc": {
    "kind": "user",
    "methods": {},
    "version": 1
  },
  "storageLayout": {
    "storage": [
      {
        "astId": 4216,
        "contract": "contracts/dnsregistrar/DNSRegistrar.sol:DNSRegistrar",
        "label": "suffixes",
        "offset": 0,
        "slot": "0",
        "type": "t_contract(PublicSuffixList)5436"
      },
      {
        "astId": 4224,
        "contract": "contracts/dnsregistrar/DNSRegistrar.sol:DNSRegistrar",
        "label": "inceptions",
        "offset": 0,
        "slot": "1",
        "type": "t_mapping(t_bytes32,t_uint32)"
      }
    ],
    "types": {
      "t_bytes32": {
        "encoding": "inplace",
        "label": "bytes32",
        "numberOfBytes": "32"
      },
      "t_contract(PublicSuffixList)5436": {
        "encoding": "inplace",
        "label": "contract PublicSuffixList",
        "numberOfBytes": "20"
      },
      "t_mapping(t_bytes32,t_uint32)": {
        "encoding": "mapping",
        "key": "t_bytes32",
        "label": "mapping(bytes32 => uint32)",
        "numberOfBytes": "32",
        "value": "t_uint32"
      },
      "t_uint32": {
        "encoding": "inplace",
        "label": "uint32",
        "numberOfBytes": "4"
      }
    }
  }
}