{
  "address": "0xFF16fAfb1E880Ef38Fa838f3585ff4Ec08A21BBb",
  "abi": [
    {
      "inputs": [
        {
          "internalType": "string",
          "name": "_metaDataUri",
          "type": "string"
        }
      ],
      "stateMutability": "nonpayable",
      "type": "constructor"
    },
    {
      "inputs": [
        {
          "internalType": "uint256",
          "name": "tokenId",
          "type": "uint256"
        }
      ],
      "name": "uri",
      "outputs": [
        {
          "internalType": "string",
          "name": "",
          "type": "string"
        }
      ],
      "stateMutability": "view",
      "type": "function"
    }
  ],
  "transactionHash": "0x3b8eb4cd1d315fa70c488ef233ca4d73e28264f881d2c7ce7e8e4659b529eea0",
  "args": [
    "ens-metadata-service.appspot.com"
  ],
  "numDeployments": 1,
  "solcInputHash": "c35424a7bba1f0692909ebd06c2cd88c",
  "bytecode": "0x608060405234801561001057600080fd5b5060405161065638038061065683398101604081905261002f91610058565b600061003b82826101aa565b5050610269565b634e487b7160e01b600052604160045260246000fd5b6000602080838503121561006b57600080fd5b82516001600160401b038082111561008257600080fd5b818501915085601f83011261009657600080fd5b8151818111156100a8576100a8610042565b604051601f8201601f19908116603f011681019083821181831017156100d0576100d0610042565b8160405282815288868487010111156100e857600080fd5b600093505b8284101561010a57848401860151818501870152928501926100ed565b600086848301015280965050505050505092915050565b600181811c9082168061013557607f821691505b60208210810361015557634e487b7160e01b600052602260045260246000fd5b50919050565b601f8211156101a557600081815260208120601f850160051c810160208610156101825750805b601f850160051c820191505b818110156101a15782815560010161018e565b5050505b505050565b81516001600160401b038111156101c3576101c3610042565b6101d7816101d18454610121565b8461015b565b602080601f83116001811461020c57600084156101f45750858301515b600019600386901b1c1916600185901b1785556101a1565b600085815260208120601f198616915b8281101561023b5788860151825594840194600190910190840161021c565b50858210156102595787850151600019600388901b60f8161c191681555b5050505050600190811b01905550565b6103de806102786000396000f3fe608060405234801561001057600080fd5b506004361061002b5760003560e01c80630e89341c14610030575b600080fd5b61004361003e366004610222565b610059565b604051610050919061025f565b60405180910390f35b6060600080805461006990610292565b90501161008557604051806020016040528060008152506100b1565b6000610090836100b7565b6040516020016100a19291906102e8565b6040516020818303038152906040525b92915050565b606060006100c48361014a565b600101905060008167ffffffffffffffff8111156100e4576100e4610392565b6040519080825280601f01601f19166020018201604052801561010e576020820181803683370190505b5090508181016020015b600019016f181899199a1a9b1b9c1cb0b131b232b360811b600a86061a8153600a850494508461011857509392505050565b60008072184f03e93ff9f4daa797ed6e38ed64bf6a1f0160401b83106101895772184f03e93ff9f4daa797ed6e38ed64bf6a1f0160401b830492506040015b6d04ee2d6d415b85acef810000000083106101b5576d04ee2d6d415b85acef8100000000830492506020015b662386f26fc1000083106101d357662386f26fc10000830492506010015b6305f5e10083106101eb576305f5e100830492506008015b61271083106101ff57612710830492506004015b60648310610211576064830492506002015b600a83106100b15760010192915050565b60006020828403121561023457600080fd5b5035919050565b60005b8381101561025657818101518382015260200161023e565b50506000910152565b602081526000825180602084015261027e81604085016020870161023b565b601f01601f19169190910160400192915050565b600181811c908216806102a657607f821691505b6020821081036102c657634e487b7160e01b600052602260045260246000fd5b50919050565b600081516102de81856020860161023b565b9290920192915050565b600080845481600182811c91508083168061030457607f831692505b6020808410820361032357634e487b7160e01b86526022600452602486fd5b818015610337576001811461034c57610379565b60ff1986168952841515850289019650610379565b60008b81526020902060005b868110156103715781548b820152908501908301610358565b505084890196505b50505050505061038981856102cc565b95945050505050565b634e487b7160e01b600052604160045260246000fdfea264697066735822122023e3e75357c507301d03271699b0f92f836f43851ecef91744b67aeef517a50e64736f6c63430008110033",
  "devdoc": {
    "kind": "dev",
    "methods": {},
    "version": 1
  },
  "userdoc": {
    "kind": "user",
    "methods": {},
    "version": 1
  },
  "storageLayout": {
    "storage": [
      {
        "astId": 24263,
        "contract": "contracts/wrapper/StaticMetadataService.sol:StaticMetadataService",
        "label": "_uri",
        "offset": 0,
        "slot": "0",
        "type": "t_string_storage"
      }
    ],
    "types": {
      "t_string_storage": {
        "encoding": "bytes",
        "label": "string",
        "numberOfBytes": "32"
      }
    }
  }
}