{
  "address": "0x41ed23A9867263B5B025EB95ad63fa51b075536b",
  "abi": [
    {
      "inputs": [
        {
          "internalType": "bytes",
          "name": "_anchors",
          "type": "bytes"
        }
      ],
      "stateMutability": "nonpayable",
      "type": "constructor"
    },
    {
      "inputs": [
        {
          "internalType": "uint16",
          "name": "class",
          "type": "uint16"
        }
      ],
      "name": "InvalidClass",
      "type": "error"
    },
    {
      "inputs": [
        {
          "internalType": "bytes",
          "name": "name",
          "type": "bytes"
        },
        {
          "internalType": "uint256",
          "name": "labelsExpected",
          "type": "uint256"
        }
      ],
      "name": "InvalidLabelCount",
      "type": "error"
    },
    {
      "inputs": [
        {
          "internalType": "uint16",
          "name": "proofType",
          "type": "uint16"
        }
      ],
      "name": "InvalidProofType",
      "type": "error"
    },
    {
      "inputs": [],
      "name": "InvalidRRSet",
      "type": "error"
    },
    {
      "inputs": [
        {
          "internalType": "bytes",
          "name": "rrsetName",
          "type": "bytes"
        },
        {
          "internalType": "bytes",
          "name": "signerName",
          "type": "bytes"
        }
      ],
      "name": "InvalidSignerName",
      "type": "error"
    },
    {
      "inputs": [
        {
          "internalType": "bytes",
          "name": "signerName",
          "type": "bytes"
        }
      ],
      "name": "NoMatchingProof",
      "type": "error"
    },
    {
      "inputs": [
        {
          "internalType": "bytes",
          "name": "signerName",
          "type": "bytes"
        },
        {
          "internalType": "bytes",
          "name": "proofName",
          "type": "bytes"
        }
      ],
      "name": "ProofNameMismatch",
      "type": "error"
    },
    {
      "inputs": [
        {
          "internalType": "uint32",
          "name": "expiration",
          "type": "uint32"
        },
        {
          "internalType": "uint32",
          "name": "now",
          "type": "uint32"
        }
      ],
      "name": "SignatureExpired",
      "type": "error"
    },
    {
      "inputs": [
        {
          "internalType": "uint32",
          "name": "inception",
          "type": "uint32"
        },
        {
          "internalType": "uint32",
          "name": "now",
          "type": "uint32"
        }
      ],
      "name": "SignatureNotValidYet",
      "type": "error"
    },
    {
      "inputs": [
        {
          "internalType": "uint16",
          "name": "rrsetType",
          "type": "uint16"
        },
        {
          "internalType": "uint16",
          "name": "sigType",
          "type": "uint16"
        }
      ],
      "name": "SignatureTypeMismatch",
      "type": "error"
    },
    {
      "anonymous": false,
      "inputs": [
        {
          "indexed": false,
          "internalType": "uint8",
          "name": "id",
          "type": "uint8"
        },
        {
          "indexed": false,
          "internalType": "address",
          "name": "addr",
          "type": "address"
        }
      ],
      "name": "AlgorithmUpdated",
      "type": "event"
    },
    {
      "anonymous": false,
      "inputs": [
        {
          "indexed": false,
          "internalType": "uint8",
          "name": "id",
          "type": "uint8"
        },
        {
          "indexed": false,
          "internalType": "address",
          "name": "addr",
          "type": "address"
        }
      ],
      "name": "DigestUpdated",
      "type": "event"
    },
    {
      "inputs": [
        {
          "internalType": "uint8",
          "name": "",
          "type": "uint8"
        }
      ],
      "name": "algorithms",
      "outputs": [
        {
          "internalType": "contract Algorithm",
          "name": "",
          "type": "address"
        }
      ],
      "stateMutability": "view",
      "type": "function"
    },
    {
      "inputs": [],
      "name": "anchors",
      "outputs": [
        {
          "internalType": "bytes",
          "name": "",
          "type": "bytes"
        }
      ],
      "stateMutability": "view",
      "type": "function"
    },
    {
      "inputs": [
        {
          "internalType": "uint8",
          "name": "",
          "type": "uint8"
        }
      ],
      "name": "digests",
      "outputs": [
        {
          "internalType": "contract Digest",
          "name": "",
          "type": "address"
        }
      ],
      "stateMutability": "view",
      "type": "function"
    },
    {
      "inputs": [],
      "name": "owner",
      "outputs": [
        {
          "internalType": "address",
          "name": "",
          "type": "address"
        }
      ],
      "stateMutability": "view",
      "type": "function"
    },
    {
      "inputs": [
        {
          "internalType": "uint8",
          "name": "id",
          "type": "uint8"
        },
        {
          "internalType": "contract Algorithm",
          "name": "algo",
          "type": "address"
        }
      ],
      "name": "setAlgorithm",
      "outputs": [],
      "stateMutability": "nonpayable",
      "type": "function"
    },
    {
      "inputs": [
        {
          "internalType": "uint8",
          "name": "id",
          "type": "uint8"
        },
        {
          "internalType": "contract Digest",
          "name": "digest",
          "type": "address"
        }
      ],
      "name": "setDigest",
      "outputs": [],
      "stateMutability": "nonpayable",
      "type": "function"
    },
    {
      "inputs": [
        {
          "internalType": "address",
          "name": "newOwner",
          "type": "address"
        }
      ],
      "name": "setOwner",
      "outputs": [],
      "stateMutability": "nonpayable",
      "type": "function"
    },
    {
      "inputs": [
        {
          "components": [
            {
              "internalType": "bytes",
              "name": "rrset",
              "type": "bytes"
            },
            {
              "internalType": "bytes",
              "name": "sig",
              "type": "bytes"
            }
          ],
          "internalType": "struct DNSSEC.RRSetWithSignature[]",
          "name": "input",
          "type": "tuple[]"
        },
        {
          "internalType": "uint256",
          "name": "now",
          "type": "uint256"
        }
      ],
      "name": "verifyRRSet",
      "outputs": [
        {
          "internalType": "bytes",
          "name": "rrs",
          "type": "bytes"
        },
        {
          "internalType": "uint32",
          "name": "inception",
          "type": "uint32"
        }
      ],
      "stateMutability": "view",
      "type": "function"
    },
    {
      "inputs": [
        {
          "components": [
            {
              "internalType": "bytes",
              "name": "rrset",
              "type": "bytes"
            },
            {
              "internalType": "bytes",
              "name": "sig",
              "type": "bytes"
            }
          ],
          "internalType": "struct DNSSEC.RRSetWithSignature[]",
          "name": "input",
          "type": "tuple[]"
        }
      ],
      "name": "verifyRRSet",
      "outputs": [
        {
          "internalType": "bytes",
          "name": "rrs",
          "type": "bytes"
        },
        {
          "internalType": "uint32",
          "name": "inception",
          "type": "uint32"
        }
      ],
      "stateMutability": "view",
      "type": "function"
    }
  ],
  "transactionHash": "0x93101504f3445d302f4170ded769f334abf20327b90d5c28b41abdfb0d187fce",
  "args": [
    "0x00002b000100000e1000244a5c080249aac11d7b6f6446702e54a1607371607a1a41855200fd2ce1cdde32f24e8fb500002b000100000e1000244f660802e06d44b80b8f1d39a95c0b0d7c65d08458e880409bbc683457104237c7f8ec8d00002b000100000e10000404fefdfd"
  ],
  "numDeployments": 3,
  "solcInputHash": "2c0eb307c5c04aca158dc0df5329149a",
  "bytecode": "0x60806040523480156200001157600080fd5b5060405162001e9f38038062001e9f833981016040819052620000349162000072565b600180546001600160a01b031916331790556000620000548282620001d6565b5050620002a2565b634e487b7160e01b600052604160045260246000fd5b600060208083850312156200008657600080fd5b82516001600160401b03808211156200009e57600080fd5b818501915085601f830112620000b357600080fd5b815181811115620000c857620000c86200005c565b604051601f8201601f19908116603f01168101908382118183101715620000f357620000f36200005c565b8160405282815288868487010111156200010c57600080fd5b600093505b8284101562000130578484018601518185018701529285019262000111565b600086848301015280965050505050505092915050565b600181811c908216806200015c57607f821691505b6020821081036200017d57634e487b7160e01b600052602260045260246000fd5b50919050565b601f821115620001d157600081815260208120601f850160051c81016020861015620001ac5750805b601f850160051c820191505b81811015620001cd57828155600101620001b8565b5050505b505050565b81516001600160401b03811115620001f257620001f26200005c565b6200020a8162000203845462000147565b8462000183565b602080601f831160018114620002425760008415620002295750858301515b600019600386901b1c1916600185901b178555620001cd565b600085815260208120601f198616915b82811015620002735788860151825594840194600190910190840162000252565b5085821015620002925787850151600019600388901b60f8161c191681555b5050505050600190811b01905550565b611bed80620002b26000396000f3fe608060405234801561001057600080fd5b50600436106100935760003560e01c806373cc48a61161006657806373cc48a6146100fd5780638da5cb5b1461013e57806398d35f2014610151578063bdf95fef14610166578063c327deef1461017957600080fd5b8063020ed8d31461009857806313af4035146100ad57806328e7677d146100c0578063440f3d42146100d3575b600080fd5b6100ab6100a63660046116ba565b6101a2565b005b6100ab6100bb3660046116f1565b610224565b6100ab6100ce3660046116ba565b61025d565b6100e66100e13660046118e8565b6102d7565b6040516100f4929190611973565b60405180910390f35b61012661010b36600461199b565b6003602052600090815260409020546001600160a01b031681565b6040516001600160a01b0390911681526020016100f4565b600154610126906001600160a01b031681565b6101596103c9565b6040516100f491906119b6565b6100e66101743660046119c9565b610457565b61012661018736600461199b565b6002602052600090815260409020546001600160a01b031681565b6001546001600160a01b031633146101b957600080fd5b60ff821660008181526002602090815260409182902080546001600160a01b0319166001600160a01b0386169081179091558251938452908301527ff73c3c226af96b7f1ba666a21b3ceaf2be3ee6a365e3178fd9cd1eaae0075aa891015b60405180910390a15050565b6001546001600160a01b0316331461023b57600080fd5b600180546001600160a01b0319166001600160a01b0392909216919091179055565b6001546001600160a01b0316331461027457600080fd5b60ff821660008181526003602090815260409182902080546001600160a01b0319166001600160a01b0386169081179091558251938452908301527f2fcc274c3b72dd483ab201bfa87295e3817e8b9b10693219873b722ca1af00c79101610218565b6060600080600080546102e9906119fe565b80601f0160208091040260200160405190810160405280929190818152602001828054610315906119fe565b80156103625780601f1061033757610100808354040283529160200191610362565b820191906000526020600020905b81548152906001019060200180831161034557829003601f168201915b5050505050905060005b85518110156103bf57600061039b87838151811061038c5761038c611a38565b6020026020010151848861046e565b61010081015160a090910151945092508190506103b781611a64565b91505061036c565b5091509250929050565b600080546103d6906119fe565b80601f0160208091040260200160405190810160405280929190818152602001828054610402906119fe565b801561044f5780601f106104245761010080835404028352916020019161044f565b820191906000526020600020905b81548152906001019060200180831161043257829003601f168201915b505050505081565b6060600061046583426102d7565b91509150915091565b6104766115eb565b83516104819061057a565b90506000610493828360000151610674565b604083015190915060ff166104a9826000610786565b146104d85780826040015160405163e861b2bd60e01b81526004016104cf929190611a7d565b60405180910390fd5b6101208201819052608082015160009084900360030b12156105235760808201516040516353c27c3f60e11b815263ffffffff918216600482015290841660248201526044016104cf565b60a0820151600090840360030b12156105655760a0820151604051635ea081b560e11b815263ffffffff918216600482015290841660248201526044016104cf565b610571818387876107ec565b505b9392505050565b6105826115eb565b61058d82600061089d565b61ffff16815261059e8260026108c5565b60ff1660208201526105b18260036108c5565b60ff1660408201526105c48260046108e9565b63ffffffff90811660608301526105e09083906008906108e916565b63ffffffff90811660808301526105fc908390600c906108e916565b63ffffffff90811660a083015261061890839060109061089d16565b61ffff1660c082015261062c826012610913565b60e082018190525161066990610643906012611aa2565b8260e0015151601285516106579190611ab5565b6106619190611ab5565b849190610936565b610100820152919050565b60606000610681846109b8565b90505b8051516020820151101561077f57606081015161ffff166001146106c7576060810151604051634c52f98d60e11b815261ffff90911660048201526024016104cf565b81516000036106e0576106d9816109d0565b9150610731565b602081015181516106f0916109f1565b82511415806107135750805160208201518351610711928592600092610a4b565b155b156107315760405163cbceee6f60e01b815260040160405180910390fd5b8261ffff16816040015161ffff161461077157604080820151905163537fc54560e11b815261ffff918216600482015290841660248201526044016104cf565b61077a81610a6e565b610684565b5092915050565b6000805b8351831061079a5761079a611ac8565b60006107a685856108c5565b60ff1690506107b6816001611aa2565b6107c09085611aa2565b9350806000036107d057506107e3565b6107db600183611aa2565b91505061078a565b90505b92915050565b60e08301516107fc908590610b56565b6108205760e083015160405163eaafc59b60e01b81526104cf918691600401611ade565b600061082c8282610bb3565b9050602b61ffff16816040015161ffff16036108525761084d848483610bce565b610896565b603061ffff16816040015161ffff16036108715761084d848483610cbb565b60408082015190516361529e8760e01b815261ffff90911660048201526024016104cf565b5050505050565b81516000906108ad836002611aa2565b11156108b857600080fd5b50016002015161ffff1690565b60008282815181106108d9576108d9611a38565b016020015160f81c905092915050565b81516000906108f9836004611aa2565b111561090457600080fd5b50016004015163ffffffff1690565b6060600061092184846109f1565b905061092e848483610936565b949350505050565b82516060906109458385611aa2565b111561095057600080fd5b60008267ffffffffffffffff81111561096b5761096b61170e565b6040519080825280601f01601f191660200182016040528015610995576020820181803683370190505b509050602080820190868601016109ad828287610d83565b509095945050505050565b6109c0611641565b6107e68261010001516000610bb3565b602081015181516060916107e6916109e890826109f1565b84519190610936565b6000815b83518110610a0557610a05611ac8565b6000610a1185836108c5565b60ff169050610a21816001611aa2565b610a2b9083611aa2565b915080600003610a3b5750610a41565b506109f5565b61092e8382611ab5565b6000610a58848484610dd9565b610a63878785610dd9565b149695505050505050565b60c08101516020820181905281515111610a855750565b6000610a99826000015183602001516109f1565b8260200151610aa89190611aa2565b8251909150610ab7908261089d565b61ffff166040830152610acb600282611aa2565b8251909150610ada908261089d565b61ffff166060830152610aee600282611aa2565b8251909150610afd90826108e9565b63ffffffff166080830152610b13600482611aa2565b8251909150600090610b25908361089d565b61ffff169050610b36600283611aa2565b60a084018190529150610b498183611aa2565b60c0909301929092525050565b60008080610b648582610786565b90506000610b73856000610786565b90505b80821115610b9c57610b888684610dfd565b925081610b9481611b0c565b925050610b76565b610ba98684876000610e21565b9695505050505050565b610bbb611641565b82815260c081018290526107e681610a6e565b60208101516000610bde856109b8565b90505b80515160208201511015610c9b57604081015161ffff16603014610c245760408082015190516361529e8760e01b815261ffff90911660048201526024016104cf565b6000610c2f82610e56565b90506000610c4a6000835184610e729092919063ffffffff16565b9050610c5881838989610f10565b15610c8b57610c6d8760e00151868385611036565b15610c7b5750505050505050565b60c08501849052610c8b85610a6e565b5050610c9681610a6e565b610be1565b508360e001516040516306cde0f360e01b81526004016104cf91906119b6565b80515160208201511015610d64576000610cd4826109d0565b9050610ced8460e001518261117390919063ffffffff16565b610d12578360e0015181604051636b80573f60e11b81526004016104cf929190611ade565b6000610d1d83610e56565b90506000610d386000835184610e729092919063ffffffff16565b9050610d4681838888610f10565b15610d5357505050505050565b505050610d5f81610a6e565b610cbb565b8260e001516040516306cde0f360e01b81526004016104cf91906119b6565b60208110610dbb5781518352610d9a602084611aa2565b9250610da7602083611aa2565b9150610db4602082611ab5565b9050610d83565b905182516020929092036101000a6000190180199091169116179052565b8251600090610de88385611aa2565b1115610df357600080fd5b5091016020012090565b6000610e0983836108c5565b60ff16610e17836001611aa2565b6107e39190611aa2565b6000610e3a8383848651610e359190611ab5565b610dd9565b610e4c8686878951610e359190611ab5565b1495945050505050565b60a081015160c08201516060916107e6916109e8908290611ab5565b6040805160808101825260008082526020820181905291810191909152606080820152610eaa610ea3600085611aa2565b859061089d565b61ffff168152610ec5610ebe600285611aa2565b85906108c5565b60ff166020820152610edb610ebe600385611aa2565b60ff166040820152610f04610ef1600485611aa2565b610efc600485611ab5565b869190610936565b60608201529392505050565b6000846020015160ff16600314610f295750600061092e565b826020015160ff16856040015160ff1614610f465750600061092e565b6000610f5185611191565b90508360c0015161ffff168161ffff1614610f7057600091505061092e565b855161010016600003610f8757600091505061092e565b60408087015160ff166000908152600260205220546001600160a01b031680610fb55760009250505061092e565b8351602085015160405163de8f50a160e01b81526001600160a01b0384169263de8f50a192610fea928b929190600401611b23565b602060405180830381865afa158015611007573d6000803e3d6000fd5b505050506040513d601f19601f8201168201806040525081019061102b9190611b5c565b979650505050505050565b60008061104283611191565b90505b8451516020860151101561116757600061105e866109d0565b905061106a8188611173565b61108b578681604051636b80573f60e11b81526004016104cf929190611ade565b60a086015160c08701516000916110b0916110a7908290611ab5565b89519190610e72565b90508261ffff16816000015161ffff16146110cc575050611159565b856040015160ff16816020015160ff16146110e8575050611159565b60408051808201909152606081526000602082015261111586518a5161110e9190611aa2565b82906113b4565b50611120818a61142b565b5061112b818761142b565b5061114382604001518260000151846060015161144c565b1561115557600194505050505061092e565b5050505b61116285610a6e565b611045565b50600095945050505050565b6000815183511480156107e357506107e38360008460008751610a4b565b6000612000825111156111e65760405162461bcd60e51b815260206004820152601760248201527f4c6f6e67206b657973206e6f74207065726d697474656400000000000000000060448201526064016104cf565b60008060005b8451601f0181101561125b57600081602087010151905085518260200111156112215785518290036008026101000390811c901b5b7eff00ff00ff00ff00ff00ff00ff00ff00ff00ff00ff00ff00ff00ff00ff00ff600882901c811694909401931691909101906020016111ec565b506010827fffff0000ffff0000ffff0000ffff0000ffff0000ffff0000ffff0000ffff000016901c827dffff0000ffff0000ffff0000ffff0000ffff0000ffff0000ffff0000ffff160191506010817fffff0000ffff0000ffff0000ffff0000ffff0000ffff0000ffff0000ffff000016901c817dffff0000ffff0000ffff0000ffff0000ffff0000ffff0000ffff0000ffff1601905080600883901b0191506020827fffffffff00000000ffffffff00000000ffffffff00000000ffffffff0000000016901c827bffffffff00000000ffffffff00000000ffffffff00000000ffffffff1601915060408277ffffffffffffffff0000000000000000ffffffffffffffff1916901c8277ffffffffffffffff0000000000000000ffffffffffffffff16019150608082901c826fffffffffffffffffffffffffffffffff16019150601082901c61ffff16820191508192505050919050565b6040805180820190915260608152600060208201526113d4602083611b7e565b156113fc576113e4602083611b7e565b6113ef906020611ab5565b6113f99083611aa2565b91505b60208084018390526040518085526000815290818401018181101561142057600080fd5b604052509192915050565b6040805180820190915260608152600060208201526107e3838384516114f8565b60ff83166000908152600360205260408120546001600160a01b031661147457506000610573565b60ff841660009081526003602052604090819020549051637bf41d7760e11b81526001600160a01b039091169063f7e83aee906114b79086908690600401611ade565b602060405180830381865afa1580156114d4573d6000803e3d6000fd5b505050506040513d601f19601f8201168201806040525081019061092e9190611b5c565b604080518082019091526060815260006020820152825182111561151b57600080fd5b835151600061152a8483611aa2565b9050856020015181111561154c5761154c86611547836002611ba0565b6115ce565b855180518382016020019160009180851115611566578482525b505050602086015b602086106115a65780518252611585602083611aa2565b9150611592602082611aa2565b905061159f602087611ab5565b955061156e565b51815160001960208890036101000a0190811690199190911617905250849150509392505050565b81516115da83836113b4565b506115e5838261142b565b50505050565b604080516101408101825260008082526020820181905291810182905260608082018390526080820183905260a0820183905260c082019290925260e08101829052610100810182905261012081019190915290565b6040518060e001604052806060815260200160008152602001600061ffff168152602001600061ffff168152602001600063ffffffff16815260200160008152602001600081525090565b803560ff8116811461169d57600080fd5b919050565b6001600160a01b03811681146116b757600080fd5b50565b600080604083850312156116cd57600080fd5b6116d68361168c565b915060208301356116e6816116a2565b809150509250929050565b60006020828403121561170357600080fd5b81356107e3816116a2565b634e487b7160e01b600052604160045260246000fd5b6040805190810167ffffffffffffffff811182821017156117475761174761170e565b60405290565b604051601f8201601f1916810167ffffffffffffffff811182821017156117765761177661170e565b604052919050565b600082601f83011261178f57600080fd5b813567ffffffffffffffff8111156117a9576117a961170e565b6117bc601f8201601f191660200161174d565b8181528460208386010111156117d157600080fd5b816020850160208301376000918101602001919091529392505050565b600082601f8301126117ff57600080fd5b8135602067ffffffffffffffff8083111561181c5761181c61170e565b8260051b61182b83820161174d565b938452858101830193838101908886111561184557600080fd5b84880192505b858310156118dc578235848111156118635760008081fd5b88016040818b03601f190181131561187b5760008081fd5b611883611724565b87830135878111156118955760008081fd5b6118a38d8a8387010161177e565b8252509082013590868211156118b95760008081fd5b6118c78c898486010161177e565b8189015284525050918401919084019061184b565b98975050505050505050565b600080604083850312156118fb57600080fd5b823567ffffffffffffffff81111561191257600080fd5b61191e858286016117ee565b95602094909401359450505050565b6000815180845260005b8181101561195357602081850181015186830182015201611937565b506000602082860101526020601f19601f83011685010191505092915050565b604081526000611986604083018561192d565b905063ffffffff831660208301529392505050565b6000602082840312156119ad57600080fd5b6107e38261168c565b6020815260006107e3602083018461192d565b6000602082840312156119db57600080fd5b813567ffffffffffffffff8111156119f257600080fd5b61092e848285016117ee565b600181811c90821680611a1257607f821691505b602082108103611a3257634e487b7160e01b600052602260045260246000fd5b50919050565b634e487b7160e01b600052603260045260246000fd5b634e487b7160e01b600052601160045260246000fd5b600060018201611a7657611a76611a4e565b5060010190565b604081526000611a90604083018561192d565b905060ff831660208301529392505050565b808201808211156107e6576107e6611a4e565b818103818111156107e6576107e6611a4e565b634e487b7160e01b600052600160045260246000fd5b604081526000611af1604083018561192d565b8281036020840152611b03818561192d565b95945050505050565b600081611b1b57611b1b611a4e565b506000190190565b606081526000611b36606083018661192d565b8281036020840152611b48818661192d565b90508281036040840152610ba9818561192d565b600060208284031215611b6e57600080fd5b815180151581146107e357600080fd5b600082611b9b57634e487b7160e01b600052601260045260246000fd5b500690565b80820281158282048414176107e6576107e6611a4e56fea2646970667358221220fa6ee55e796c26dd1f68473066b46e5abe4f120437097e6da913d2b4ab4e410864736f6c63430008110033",
  "devdoc": {
    "kind": "dev",
    "methods": {
      "constructor": {
        "details": "Constructor.",
        "params": {
          "_anchors": "The binary format RR entries for the root DS records."
        }
      },
      "setAlgorithm(uint8,address)": {
        "details": "Sets the contract address for a signature verification algorithm.      Callable only by the owner.",
        "params": {
          "algo": "The address of the algorithm contract.",
          "id": "The algorithm ID"
        }
      },
      "setDigest(uint8,address)": {
        "details": "Sets the contract address for a digest verification algorithm.      Callable only by the owner.",
        "params": {
          "digest": "The address of the digest contract.",
          "id": "The digest ID"
        }
      },
      "verifyRRSet((bytes,bytes)[])": {
        "details": "Takes a chain of signed DNS records, verifies them, and returns the data from the last record set in the chain.      Reverts if the records do not form an unbroken chain of trust to the DNSSEC anchor records.",
        "params": {
          "input": "A list of signed RRSets."
        },
        "returns": {
          "inception": "The inception time of the signed record set.",
          "rrs": "The RRData from the last RRSet in the chain."
        }
      },
      "verifyRRSet((bytes,bytes)[],uint256)": {
        "details": "Takes a chain of signed DNS records, verifies them, and returns the data from the last record set in the chain.      Reverts if the records do not form an unbroken chain of trust to the DNSSEC anchor records.",
        "params": {
          "input": "A list of signed RRSets.",
          "now": "The Unix timestamp to validate the records at."
        },
        "returns": {
          "inception": "The inception time of the signed record set.",
          "rrs": "The RRData from the last RRSet in the chain."
        }
      }
    },
    "version": 1
  },
  "userdoc": {
    "kind": "user",
    "methods": {},
    "version": 1
  },
  "storageLayout": {
    "storage": [
      {
        "astId": 5465,
        "contract": "contracts/dnssec-oracle/DNSSECImpl.sol:DNSSECImpl",
        "label": "anchors",
        "offset": 0,
        "slot": "0",
        "type": "t_bytes_storage"
      },
      {
        "astId": 6442,
        "contract": "contracts/dnssec-oracle/DNSSECImpl.sol:DNSSECImpl",
        "label": "owner",
        "offset": 0,
        "slot": "1",
        "type": "t_address"
      },
      {
        "astId": 5597,
        "contract": "contracts/dnssec-oracle/DNSSECImpl.sol:DNSSECImpl",
        "label": "algorithms",
        "offset": 0,
        "slot": "2",
        "type": "t_mapping(t_uint8,t_contract(Algorithm)7589)"
      },
      {
        "astId": 5602,
        "contract": "contracts/dnssec-oracle/DNSSECImpl.sol:DNSSECImpl",
        "label": "digests",
        "offset": 0,
        "slot": "3",
        "type": "t_mapping(t_uint8,t_contract(Digest)9430)"
      }
    ],
    "types": {
      "t_address": {
        "encoding": "inplace",
        "label": "address",
        "numberOfBytes": "20"
      },
      "t_bytes_storage": {
        "encoding": "bytes",
        "label": "bytes",
        "numberOfBytes": "32"
      },
      "t_contract(Algorithm)7589": {
        "encoding": "inplace",
        "label": "contract Algorithm",
        "numberOfBytes": "20"
      },
      "t_contract(Digest)9430": {
        "encoding": "inplace",
        "label": "contract Digest",
        "numberOfBytes": "20"
      },
      "t_mapping(t_uint8,t_contract(Algorithm)7589)": {
        "encoding": "mapping",
        "key": "t_uint8",
        "label": "mapping(uint8 => contract Algorithm)",
        "numberOfBytes": "32",
        "value": "t_contract(Algorithm)7589"
      },
      "t_mapping(t_uint8,t_contract(Digest)9430)": {
        "encoding": "mapping",
        "key": "t_uint8",
        "label": "mapping(uint8 => contract Digest)",
        "numberOfBytes": "32",
        "value": "t_contract(Digest)9430"
      },
      "t_uint8": {
        "encoding": "inplace",
        "label": "uint8",
        "numberOfBytes": "1"
      }
    }
  }
}