{
  "address": "0x61C48101ccE16653573e80c64b4bD4a4C3111Ce8",
  "abi": [
    {
      "inputs": [
        {
          "internalType": "contract ENS",
          "name": "_ens",
          "type": "address"
        },
        {
          "internalType": "contract IBaseRegistrar",
          "name": "_registrar",
          "type": "address"
        },
        {
          "internalType": "contract IMetadataService",
          "name": "_metadataService",
          "type": "address"
        }
      ],
      "stateMutability": "nonpayable",
      "type": "constructor"
    },
    {
      "inputs": [],
      "name": "CannotUpgrade",
      "type": "error"
    },
    {
      "inputs": [],
      "name": "IncompatibleParent",
      "type": "error"
    },
    {
      "inputs": [
        {
          "internalType": "address",
          "name": "owner",
          "type": "address"
        }
      ],
      "name": "IncorrectTargetOwner",
      "type": "error"
    },
    {
      "inputs": [],
      "name": "IncorrectTokenType",
      "type": "error"
    },
    {
      "inputs": [
        {
          "internalType": "bytes32",
          "name": "labelHash",
          "type": "bytes32"
        },
        {
          "internalType": "bytes32",
          "name": "expectedLabelhash",
          "type": "bytes32"
        }
      ],
      "name": "LabelMismatch",
      "type": "error"
    },
    {
      "inputs": [
        {
          "internalType": "string",
          "name": "label",
          "type": "string"
        }
      ],
      "name": "LabelTooLong",
      "type": "error"
    },
    {
      "inputs": [],
      "name": "LabelTooShort",
      "type": "error"
    },
    {
      "inputs": [],
      "name": "NameIsNotWrapped",
      "type": "error"
    },
    {
      "inputs": [
        {
          "internalType": "bytes32",
          "name": "node",
          "type": "bytes32"
        }
      ],
      "name": "OperationProhibited",
      "type": "error"
    },
    {
      "inputs": [
        {
          "internalType": "bytes32",
          "name": "node",
          "type": "bytes32"
        },
        {
          "internalType": "address",
          "name": "addr",
          "type": "address"
        }
      ],
      "name": "Unauthorised",
      "type": "error"
    },
    {
      "anonymous": false,
      "inputs": [
        {
          "indexed": true,
          "internalType": "address",
          "name": "owner",
          "type": "address"
        },
        {
          "indexed": true,
          "internalType": "address",
          "name": "approved",
          "type": "address"
        },
        {
          "indexed": true,
          "internalType": "uint256",
          "name": "tokenId",
          "type": "uint256"
        }
      ],
      "name": "Approval",
      "type": "event"
    },
    {
      "anonymous": false,
      "inputs": [
        {
          "indexed": true,
          "internalType": "address",
          "name": "account",
          "type": "address"
        },
        {
          "indexed": true,
          "internalType": "address",
          "name": "operator",
          "type": "address"
        },
        {
          "indexed": false,
          "internalType": "bool",
          "name": "approved",
          "type": "bool"
        }
      ],
      "name": "ApprovalForAll",
      "type": "event"
    },
    {
      "anonymous": false,
      "inputs": [
        {
          "indexed": true,
          "internalType": "address",
          "name": "controller",
          "type": "address"
        },
        {
          "indexed": false,
          "internalType": "bool",
          "name": "active",
          "type": "bool"
        }
      ],
      "name": "ControllerChanged",
      "type": "event"
    },
    {
      "anonymous": false,
      "inputs": [
        {
          "indexed": true,
          "internalType": "bytes32",
          "name": "node",
          "type": "bytes32"
        },
        {
          "indexed": false,
          "internalType": "uint64",
          "name": "expiry",
          "type": "uint64"
        }
      ],
      "name": "ExpiryExtended",
      "type": "event"
    },
    {
      "anonymous": false,
      "inputs": [
        {
          "indexed": true,
          "internalType": "bytes32",
          "name": "node",
          "type": "bytes32"
        },
        {
          "indexed": false,
          "internalType": "uint32",
          "name": "fuses",
          "type": "uint32"
        }
      ],
      "name": "FusesSet",
      "type": "event"
    },
    {
      "anonymous": false,
      "inputs": [
        {
          "indexed": true,
          "internalType": "bytes32",
          "name": "node",
          "type": "bytes32"
        },
        {
          "indexed": false,
          "internalType": "address",
          "name": "owner",
          "type": "address"
        }
      ],
      "name": "NameUnwrapped",
      "type": "event"
    },
    {
      "anonymous": false,
      "inputs": [
        {
          "indexed": true,
          "internalType": "bytes32",
          "name": "node",
          "type": "bytes32"
        },
        {
          "indexed": false,
          "internalType": "bytes",
          "name": "name",
          "type": "bytes"
        },
        {
          "indexed": false,
          "internalType": "address",
          "name": "owner",
          "type": "address"
        },
        {
          "indexed": false,
          "internalType": "uint32",
          "name": "fuses",
          "type": "uint32"
        },
        {
          "indexed": false,
          "internalType": "uint64",
          "name": "expiry",
          "type": "uint64"
        }
      ],
      "name": "NameWrapped",
      "type": "event"
    },
    {
      "anonymous": false,
      "inputs": [
        {
          "indexed": true,
          "internalType": "address",
          "name": "previousOwner",
          "type": "address"
        },
        {
          "indexed": true,
          "internalType": "address",
          "name": "newOwner",
          "type": "address"
        }
      ],
      "name": "OwnershipTransferred",
      "type": "event"
    },
    {
      "anonymous": false,
      "inputs": [
        {
          "indexed": true,
          "internalType": "address",
          "name": "operator",
          "type": "address"
        },
        {
          "indexed": true,
          "internalType": "address",
          "name": "from",
          "type": "address"
        },
        {
          "indexed": true,
          "internalType": "address",
          "name": "to",
          "type": "address"
        },
        {
          "indexed": false,
          "internalType": "uint256[]",
          "name": "ids",
          "type": "uint256[]"
        },
        {
          "indexed": false,
          "internalType": "uint256[]",
          "name": "values",
          "type": "uint256[]"
        }
      ],
      "name": "TransferBatch",
      "type": "event"
    },
    {
      "anonymous": false,
      "inputs": [
        {
          "indexed": true,
          "internalType": "address",
          "name": "operator",
          "type": "address"
        },
        {
          "indexed": true,
          "internalType": "address",
          "name": "from",
          "type": "address"
        },
        {
          "indexed": true,
          "internalType": "address",
          "name": "to",
          "type": "address"
        },
        {
          "indexed": false,
          "internalType": "uint256",
          "name": "id",
          "type": "uint256"
        },
        {
          "indexed": false,
          "internalType": "uint256",
          "name": "value",
          "type": "uint256"
        }
      ],
      "name": "TransferSingle",
      "type": "event"
    },
    {
      "anonymous": false,
      "inputs": [
        {
          "indexed": false,
          "internalType": "string",
          "name": "value",
          "type": "string"
        },
        {
          "indexed": true,
          "internalType": "uint256",
          "name": "id",
          "type": "uint256"
        }
      ],
      "name": "URI",
      "type": "event"
    },
    {
      "inputs": [
        {
          "internalType": "uint256",
          "name": "",
          "type": "uint256"
        }
      ],
      "name": "_tokens",
      "outputs": [
        {
          "internalType": "uint256",
          "name": "",
          "type": "uint256"
        }
      ],
      "stateMutability": "view",
      "type": "function"
    },
    {
      "inputs": [
        {
          "internalType": "bytes32",
          "name": "node",
          "type": "bytes32"
        },
        {
          "internalType": "uint32",
          "name": "fuseMask",
          "type": "uint32"
        }
      ],
      "name": "allFusesBurned",
      "outputs": [
        {
          "internalType": "bool",
          "name": "",
          "type": "bool"
        }
      ],
      "stateMutability": "view",
      "type": "function"
    },
    {
      "inputs": [
        {
          "internalType": "address",
          "name": "to",
          "type": "address"
        },
        {
          "internalType": "uint256",
          "name": "tokenId",
          "type": "uint256"
        }
      ],
      "name": "approve",
      "outputs": [],
      "stateMutability": "nonpayable",
      "type": "function"
    },
    {
      "inputs": [
        {
          "internalType": "address",
          "name": "account",
          "type": "address"
        },
        {
          "internalType": "uint256",
          "name": "id",
          "type": "uint256"
        }
      ],
      "name": "balanceOf",
      "outputs": [
        {
          "internalType": "uint256",
          "name": "",
          "type": "uint256"
        }
      ],
      "stateMutability": "view",
      "type": "function"
    },
    {
      "inputs": [
        {
          "internalType": "address[]",
          "name": "accounts",
          "type": "address[]"
        },
        {
          "internalType": "uint256[]",
          "name": "ids",
          "type": "uint256[]"
        }
      ],
      "name": "balanceOfBatch",
      "outputs": [
        {
          "internalType": "uint256[]",
          "name": "",
          "type": "uint256[]"
        }
      ],
      "stateMutability": "view",
      "type": "function"
    },
    {
      "inputs": [
        {
          "internalType": "bytes32",
          "name": "node",
          "type": "bytes32"
        },
        {
          "internalType": "address",
          "name": "addr",
          "type": "address"
        }
      ],
      "name": "canExtendSubnames",
      "outputs": [
        {
          "internalType": "bool",
          "name": "",
          "type": "bool"
        }
      ],
      "stateMutability": "view",
      "type": "function"
    },
    {
      "inputs": [
        {
          "internalType": "bytes32",
          "name": "node",
          "type": "bytes32"
        },
        {
          "internalType": "address",
          "name": "addr",
          "type": "address"
        }
      ],
      "name": "canModifyName",
      "outputs": [
        {
          "internalType": "bool",
          "name": "",
          "type": "bool"
        }
      ],
      "stateMutability": "view",
      "type": "function"
    },
    {
      "inputs": [
        {
          "internalType": "address",
          "name": "",
          "type": "address"
        }
      ],
      "name": "controllers",
      "outputs": [
        {
          "internalType": "bool",
          "name": "",
          "type": "bool"
        }
      ],
      "stateMutability": "view",
      "type": "function"
    },
    {
      "inputs": [],
      "name": "ens",
      "outputs": [
        {
          "internalType": "contract ENS",
          "name": "",
          "type": "address"
        }
      ],
      "stateMutability": "view",
      "type": "function"
    },
    {
      "inputs": [
        {
          "internalType": "bytes32",
          "name": "parentNode",
          "type": "bytes32"
        },
        {
          "internalType": "bytes32",
          "name": "labelhash",
          "type": "bytes32"
        },
        {
          "internalType": "uint64",
          "name": "expiry",
          "type": "uint64"
        }
      ],
      "name": "extendExpiry",
      "outputs": [
        {
          "internalType": "uint64",
          "name": "",
          "type": "uint64"
        }
      ],
      "stateMutability": "nonpayable",
      "type": "function"
    },
    {
      "inputs": [
        {
          "internalType": "uint256",
          "name": "id",
          "type": "uint256"
        }
      ],
      "name": "getApproved",
      "outputs": [
        {
          "internalType": "address",
          "name": "operator",
          "type": "address"
        }
      ],
      "stateMutability": "view",
      "type": "function"
    },
    {
      "inputs": [
        {
          "internalType": "uint256",
          "name": "id",
          "type": "uint256"
        }
      ],
      "name": "getData",
      "outputs": [
        {
          "internalType": "address",
          "name": "owner",
          "type": "address"
        },
        {
          "internalType": "uint32",
          "name": "fuses",
          "type": "uint32"
        },
        {
          "internalType": "uint64",
          "name": "expiry",
          "type": "uint64"
        }
      ],
      "stateMutability": "view",
      "type": "function"
    },
    {
      "inputs": [
        {
          "internalType": "address",
          "name": "account",
          "type": "address"
        },
        {
          "internalType": "address",
          "name": "operator",
          "type": "address"
        }
      ],
      "name": "isApprovedForAll",
      "outputs": [
        {
          "internalType": "bool",
          "name": "",
          "type": "bool"
        }
      ],
      "stateMutability": "view",
      "type": "function"
    },
    {
      "inputs": [
        {
          "internalType": "bytes32",
          "name": "parentNode",
          "type": "bytes32"
        },
        {
          "internalType": "bytes32",
          "name": "labelhash",
          "type": "bytes32"
        }
      ],
      "name": "isWrapped",
      "outputs": [
        {
          "internalType": "bool",
          "name": "",
          "type": "bool"
        }
      ],
      "stateMutability": "view",
      "type": "function"
    },
    {
      "inputs": [
        {
          "internalType": "bytes32",
          "name": "node",
          "type": "bytes32"
        }
      ],
      "name": "isWrapped",
      "outputs": [
        {
          "internalType": "bool",
          "name": "",
          "type": "bool"
        }
      ],
      "stateMutability": "view",
      "type": "function"
    },
    {
      "inputs": [],
      "name": "metadataService",
      "outputs": [
        {
          "internalType": "contract IMetadataService",
          "name": "",
          "type": "address"
        }
      ],
      "stateMutability": "view",
      "type": "function"
    },
    {
      "inputs": [],
      "name": "name",
      "outputs": [
        {
          "internalType": "string",
          "name": "",
          "type": "string"
        }
      ],
      "stateMutability": "view",
      "type": "function"
    },
    {
      "inputs": [
        {
          "internalType": "bytes32",
          "name": "",
          "type": "bytes32"
        }
      ],
      "name": "names",
      "outputs": [
        {
          "internalType": "bytes",
          "name": "",
          "type": "bytes"
        }
      ],
      "stateMutability": "view",
      "type": "function"
    },
    {
      "inputs": [
        {
          "internalType": "address",
          "name": "to",
          "type": "address"
        },
        {
          "internalType": "address",
          "name": "",
          "type": "address"
        },
        {
          "internalType": "uint256",
          "name": "tokenId",
          "type": "uint256"
        },
        {
          "internalType": "bytes",
          "name": "data",
          "type": "bytes"
        }
      ],
      "name": "onERC721Received",
      "outputs": [
        {
          "internalType": "bytes4",
          "name": "",
          "type": "bytes4"
        }
      ],
      "stateMutability": "nonpayable",
      "type": "function"
    },
    {
      "inputs": [],
      "name": "owner",
      "outputs": [
        {
          "internalType": "address",
          "name": "",
          "type": "address"
        }
      ],
      "stateMutability": "view",
      "type": "function"
    },
    {
      "inputs": [
        {
          "internalType": "uint256",
          "name": "id",
          "type": "uint256"
        }
      ],
      "name": "ownerOf",
      "outputs": [
        {
          "internalType": "address",
          "name": "owner",
          "type": "address"
        }
      ],
      "stateMutability": "view",
      "type": "function"
    },
    {
      "inputs": [
        {
          "internalType": "address",
          "name": "_token",
          "type": "address"
        },
        {
          "internalType": "address",
          "name": "_to",
          "type": "address"
        },
        {
          "internalType": "uint256",
          "name": "_amount",
          "type": "uint256"
        }
      ],
      "name": "recoverFunds",
      "outputs": [],
      "stateMutability": "nonpayable",
      "type": "function"
    },
    {
      "inputs": [
        {
          "internalType": "string",
          "name": "label",
          "type": "string"
        },
        {
          "internalType": "address",
          "name": "wrappedOwner",
          "type": "address"
        },
        {
          "internalType": "uint256",
          "name": "duration",
          "type": "uint256"
        },
        {
          "internalType": "address",
          "name": "resolver",
          "type": "address"
        },
        {
          "internalType": "uint16",
          "name": "ownerControlledFuses",
          "type": "uint16"
        }
      ],
      "name": "registerAndWrapETH2LD",
      "outputs": [
        {
          "internalType": "uint256",
          "name": "registrarExpiry",
          "type": "uint256"
        }
      ],
      "stateMutability": "nonpayable",
      "type": "function"
    },
    {
      "inputs": [],
      "name": "registrar",
      "outputs": [
        {
          "internalType": "contract IBaseRegistrar",
          "name": "",
          "type": "address"
        }
      ],
      "stateMutability": "view",
      "type": "function"
    },
    {
      "inputs": [
        {
          "internalType": "uint256",
          "name": "tokenId",
          "type": "uint256"
        },
        {
          "internalType": "uint256",
          "name": "duration",
          "type": "uint256"
        }
      ],
      "name": "renew",
      "outputs": [
        {
          "internalType": "uint256",
          "name": "expires",
          "type": "uint256"
        }
      ],
      "stateMutability": "nonpayable",
      "type": "function"
    },
    {
      "inputs": [],
      "name": "renounceOwnership",
      "outputs": [],
      "stateMutability": "nonpayable",
      "type": "function"
    },
    {
      "inputs": [
        {
          "internalType": "address",
          "name": "from",
          "type": "address"
        },
        {
          "internalType": "address",
          "name": "to",
          "type": "address"
        },
        {
          "internalType": "uint256[]",
          "name": "ids",
          "type": "uint256[]"
        },
        {
          "internalType": "uint256[]",
          "name": "amounts",
          "type": "uint256[]"
        },
        {
          "internalType": "bytes",
          "name": "data",
          "type": "bytes"
        }
      ],
      "name": "safeBatchTransferFrom",
      "outputs": [],
      "stateMutability": "nonpayable",
      "type": "function"
    },
    {
      "inputs": [
        {
          "internalType": "address",
          "name": "from",
          "type": "address"
        },
        {
          "internalType": "address",
          "name": "to",
          "type": "address"
        },
        {
          "internalType": "uint256",
          "name": "id",
          "type": "uint256"
        },
        {
          "internalType": "uint256",
          "name": "amount",
          "type": "uint256"
        },
        {
          "internalType": "bytes",
          "name": "data",
          "type": "bytes"
        }
      ],
      "name": "safeTransferFrom",
      "outputs": [],
      "stateMutability": "nonpayable",
      "type": "function"
    },
    {
      "inputs": [
        {
          "internalType": "address",
          "name": "operator",
          "type": "address"
        },
        {
          "internalType": "bool",
          "name": "approved",
          "type": "bool"
        }
      ],
      "name": "setApprovalForAll",
      "outputs": [],
      "stateMutability": "nonpayable",
      "type": "function"
    },
    {
      "inputs": [
        {
          "internalType": "bytes32",
          "name": "parentNode",
          "type": "bytes32"
        },
        {
          "internalType": "bytes32",
          "name": "labelhash",
          "type": "bytes32"
        },
        {
          "internalType": "uint32",
          "name": "fuses",
          "type": "uint32"
        },
        {
          "internalType": "uint64",
          "name": "expiry",
          "type": "uint64"
        }
      ],
      "name": "setChildFuses",
      "outputs": [],
      "stateMutability": "nonpayable",
      "type": "function"
    },
    {
      "inputs": [
        {
          "internalType": "address",
          "name": "controller",
          "type": "address"
        },
        {
          "internalType": "bool",
          "name": "active",
          "type": "bool"
        }
      ],
      "name": "setController",
      "outputs": [],
      "stateMutability": "nonpayable",
      "type": "function"
    },
    {
      "inputs": [
        {
          "internalType": "bytes32",
          "name": "node",
          "type": "bytes32"
        },
        {
          "internalType": "uint16",
          "name": "ownerControlledFuses",
          "type": "uint16"
        }
      ],
      "name": "setFuses",
      "outputs": [
        {
          "internalType": "uint32",
          "name": "",
          "type": "uint32"
        }
      ],
      "stateMutability": "nonpayable",
      "type": "function"
    },
    {
      "inputs": [
        {
          "internalType": "contract IMetadataService",
          "name": "_metadataService",
          "type": "address"
        }
      ],
      "name": "setMetadataService",
      "outputs": [],
      "stateMutability": "nonpayable",
      "type": "function"
    },
    {
      "inputs": [
        {
          "internalType": "bytes32",
          "name": "node",
          "type": "bytes32"
        },
        {
          "internalType": "address",
          "name": "owner",
          "type": "address"
        },
        {
          "internalType": "address",
          "name": "resolver",
          "type": "address"
        },
        {
          "internalType": "uint64",
          "name": "ttl",
          "type": "uint64"
        }
      ],
      "name": "setRecord",
      "outputs": [],
      "stateMutability": "nonpayable",
      "type": "function"
    },
    {
      "inputs": [
        {
          "internalType": "bytes32",
          "name": "node",
          "type": "bytes32"
        },
        {
          "internalType": "address",
          "name": "resolver",
          "type": "address"
        }
      ],
      "name": "setResolver",
      "outputs": [],
      "stateMutability": "nonpayable",
      "type": "function"
    },
    {
      "inputs": [
        {
          "internalType": "bytes32",
          "name": "parentNode",
          "type": "bytes32"
        },
        {
          "internalType": "string",
          "name": "label",
          "type": "string"
        },
        {
          "internalType": "address",
          "name": "owner",
          "type": "address"
        },
        {
          "internalType": "uint32",
          "name": "fuses",
          "type": "uint32"
        },
        {
          "internalType": "uint64",
          "name": "expiry",
          "type": "uint64"
        }
      ],
      "name": "setSubnodeOwner",
      "outputs": [
        {
          "internalType": "bytes32",
          "name": "node",
          "type": "bytes32"
        }
      ],
      "stateMutability": "nonpayable",
      "type": "function"
    },
    {
      "inputs": [
        {
          "internalType": "bytes32",
          "name": "parentNode",
          "type": "bytes32"
        },
        {
          "internalType": "string",
          "name": "label",
          "type": "string"
        },
        {
          "internalType": "address",
          "name": "owner",
          "type": "address"
        },
        {
          "internalType": "address",
          "name": "resolver",
          "type": "address"
        },
        {
          "internalType": "uint64",
          "name": "ttl",
          "type": "uint64"
        },
        {
          "internalType": "uint32",
          "name": "fuses",
          "type": "uint32"
        },
        {
          "internalType": "uint64",
          "name": "expiry",
          "type": "uint64"
        }
      ],
      "name": "setSubnodeRecord",
      "outputs": [
        {
          "internalType": "bytes32",
          "name": "node",
          "type": "bytes32"
        }
      ],
      "stateMutability": "nonpayable",
      "type": "function"
    },
    {
      "inputs": [
        {
          "internalType": "bytes32",
          "name": "node",
          "type": "bytes32"
        },
        {
          "internalType": "uint64",
          "name": "ttl",
          "type": "uint64"
        }
      ],
      "name": "setTTL",
      "outputs": [],
      "stateMutability": "nonpayable",
      "type": "function"
    },
    {
      "inputs": [
        {
          "internalType": "contract INameWrapperUpgrade",
          "name": "_upgradeAddress",
          "type": "address"
        }
      ],
      "name": "setUpgradeContract",
      "outputs": [],
      "stateMutability": "nonpayable",
      "type": "function"
    },
    {
      "inputs": [
        {
          "internalType": "bytes4",
          "name": "interfaceId",
          "type": "bytes4"
        }
      ],
      "name": "supportsInterface",
      "outputs": [
        {
          "internalType": "bool",
          "name": "",
          "type": "bool"
        }
      ],
      "stateMutability": "view",
      "type": "function"
    },
    {
      "inputs": [
        {
          "internalType": "address",
          "name": "newOwner",
          "type": "address"
        }
      ],
      "name": "transferOwnership",
      "outputs": [],
      "stateMutability": "nonpayable",
      "type": "function"
    },
    {
      "inputs": [
        {
          "internalType": "bytes32",
          "name": "parentNode",
          "type": "bytes32"
        },
        {
          "internalType": "bytes32",
          "name": "labelhash",
          "type": "bytes32"
        },
        {
          "internalType": "address",
          "name": "controller",
          "type": "address"
        }
      ],
      "name": "unwrap",
      "outputs": [],
      "stateMutability": "nonpayable",
      "type": "function"
    },
    {
      "inputs": [
        {
          "internalType": "bytes32",
          "name": "labelhash",
          "type": "bytes32"
        },
        {
          "internalType": "address",
          "name": "registrant",
          "type": "address"
        },
        {
          "internalType": "address",
          "name": "controller",
          "type": "address"
        }
      ],
      "name": "unwrapETH2LD",
      "outputs": [],
      "stateMutability": "nonpayable",
      "type": "function"
    },
    {
      "inputs": [
        {
          "internalType": "bytes",
          "name": "name",
          "type": "bytes"
        },
        {
          "internalType": "bytes",
          "name": "extraData",
          "type": "bytes"
        }
      ],
      "name": "upgrade",
      "outputs": [],
      "stateMutability": "nonpayable",
      "type": "function"
    },
    {
      "inputs": [],
      "name": "upgradeContract",
      "outputs": [
        {
          "internalType": "contract INameWrapperUpgrade",
          "name": "",
          "type": "address"
        }
      ],
      "stateMutability": "view",
      "type": "function"
    },
    {
      "inputs": [
        {
          "internalType": "uint256",
          "name": "tokenId",
          "type": "uint256"
        }
      ],
      "name": "uri",
      "outputs": [
        {
          "internalType": "string",
          "name": "",
          "type": "string"
        }
      ],
      "stateMutability": "view",
      "type": "function"
    },
    {
      "inputs": [
        {
          "internalType": "bytes",
          "name": "name",
          "type": "bytes"
        },
        {
          "internalType": "address",
          "name": "wrappedOwner",
          "type": "address"
        },
        {
          "internalType": "address",
          "name": "resolver",
          "type": "address"
        }
      ],
      "name": "wrap",
      "outputs": [],
      "stateMutability": "nonpayable",
      "type": "function"
    },
    {
      "inputs": [
        {
          "internalType": "string",
          "name": "label",
          "type": "string"
        },
        {
          "internalType": "address",
          "name": "wrappedOwner",
          "type": "address"
        },
        {
          "internalType": "uint16",
          "name": "ownerControlledFuses",
          "type": "uint16"
        },
        {
          "internalType": "address",
          "name": "resolver",
          "type": "address"
        }
      ],
      "name": "wrapETH2LD",
      "outputs": [
        {
          "internalType": "uint64",
          "name": "expiry",
          "type": "uint64"
        }
      ],
      "stateMutability": "nonpayable",
      "type": "function"
    }
  ],
  "transactionHash": "0x75f1ab518040a731437c72e70d8c8d2e4044b7c34d1b6d9d805efcedb7301a2e",
  "args": [
    "0x738314DBb3ca6486b62ab4ddfd76585A60C4682C",
    "0x09ee4824595d61F5B8ce797055CB4D2830ae066C",
    "0x1a817BeE31ceFB905001B2173b9337dd44F9C60A"
  ],
  "numDeployments": 1,
  "solcInputHash": "2c0eb307c5c04aca158dc0df5329149a",
  "bytecode": "0x60c06040523480156200001157600080fd5b5060405162005e1c38038062005e1c8339810160408190526200003491620002e0565b600080546001600160a01b031916339081178255604051859282918291907f8be0079c531659141344cd1fd0a4f28419497f9722a3daafe3b4186f6b6457e0908290a3506040516302571be360e01b81527f91d1777781884d03a6757a803996e38de2a42967fb37eeaca72729271025a9e260048201526000906001600160a01b038416906302571be390602401602060405180830381865afa158015620000e0573d6000803e3d6000fd5b505050506040513d601f19601f8201168201806040525081019062000106919062000334565b604051630f41a04d60e11b81526001600160a01b03848116600483015291925090821690631e83409a906024016020604051808303816000875af115801562000153573d6000803e3d6000fd5b505050506040513d601f19601f820116820180604052508101906200017991906200035b565b505050506001600160a01b0383811660805282811660a052600580546001600160a01b031916918316919091179055600163fffeffff60a01b03197f02bbd899accfc3f5e3ae27f232e2bb9b76ba94233d4dd7afcb4514850d5e18eb8190557fa6eef7e35abe7026729641147f7915573c7e97b47efa546f5f6e3230263bcb4955604080518082019091526001815260006020808301829052908052600690527f54cdd369e4e8a8515e52ca72ec816c2101831ad1f18bf44102ed171459c9b4f8906200024790826200041a565b50604080518082019091526005815263036d786360e01b6020808301919091527fc0ae3fe48f09fde4a60d1b2e3f2c5d1f8dd5922c3ab88ca76377c5fd10816e49600052600690527f816b362a4d011eec4370b228aec06605d41dd17ed416c97a786b24f577c3b8a990620002bd90826200041a565b50505050620004e6565b6001600160a01b0381168114620002dd57600080fd5b50565b600080600060608486031215620002f657600080fd5b83516200030381620002c7565b60208501519093506200031681620002c7565b60408501519092506200032981620002c7565b809150509250925092565b6000602082840312156200034757600080fd5b81516200035481620002c7565b9392505050565b6000602082840312156200036e57600080fd5b5051919050565b634e487b7160e01b600052604160045260246000fd5b600181811c90821680620003a057607f821691505b602082108103620003c157634e487b7160e01b600052602260045260246000fd5b50919050565b601f8211156200041557600081815260208120601f850160051c81016020861015620003f05750805b601f850160051c820191505b818110156200041157828155600101620003fc565b5050505b505050565b81516001600160401b0381111562000436576200043662000375565b6200044e816200044784546200038b565b84620003c7565b602080601f8311600181146200048657600084156200046d5750858301515b600019600386901b1c1916600185901b17855562000411565b600085815260208120601f198616915b82811015620004b75788860151825594840194600190910190840162000496565b5085821015620004d65787850151600019600388901b60f8161c191681555b5050505050600190811b01905550565b60805160a051615829620005f36000396000818161047301528181610aee01528181610b9101528181610c200152818161196a01528181611a0001528181611aae01528181611b8001528181611bf101528181611c7601528181611e8a01528181611fe80152818161211a01528181612272015281816122f80152612a360152600081816104c001528181610a7401528181610d8c01528181610f1b01528181610fcc015281816112de0152818161206d0152818161219f015281816123a3015281816125550152818161282601528181612c9101528181612d3f01528181612df401528181612e75015281816133f5015281816134ee015281816137560152613cb201526158296000f3fe608060405234801561001057600080fd5b506004361061029f5760003560e01c80636352211e11610167578063c93ab3fd116100ce578063e985e9c511610087578063e985e9c5146106d4578063eb8ae530146106e7578063ed70554d146106fa578063f242432a1461071a578063f2fde38b1461072d578063fd0cd0d91461074057600080fd5b8063c93ab3fd14610652578063cf40882314610665578063d8c9921a14610678578063d9a50c121461068b578063da8c229e1461069e578063e0dba60f146106c157600080fd5b8063a22cb46511610120578063a22cb465146105e0578063a4014982146105f3578063adf4960a14610606578063b6bcad2614610619578063c475abff1461062c578063c658e0861461063f57600080fd5b80636352211e146105635780636e5d6ad214610576578063715018a6146105a15780638b4dfa75146105a95780638cf8b41e146105bc5780638da5cb5b146105cf57600080fd5b80631f4e15041161020b5780633f15457f116101c45780633f15457f146104bb578063402906fc146104e257806341415eab1461050a5780634e1273f41461051d578063530954671461053d5780635d3590d51461055057600080fd5b80631f4e15041461043557806320c38e2b1461044857806324c1af441461045b5780632b20e3971461046e5780632eb2c2d61461049557806333c69ea9146104a857600080fd5b80630e4cd7251161025d5780630e4cd725146103aa5780630e89341c146103bd57806314ab9038146103d0578063150b7a02146103e35780631534e1771461040f5780631896f70a1461042257600080fd5b8062fdd58e146102a45780630178fe3f146102ca57806301ffc9a71461031057806306fdde0314610333578063081812fc1461036a578063095ea7b314610395575b600080fd5b6102b76102b23660046144ff565b610753565b6040519081526020015b60405180910390f35b6102dd6102d836600461452b565b610800565b604080516001600160a01b03909416845263ffffffff90921660208401526001600160401b0316908201526060016102c1565b61032361031e36600461455a565b610830565b60405190151581526020016102c1565b61035d6040518060400160405280600b81526020016a2730b6b2abb930b83832b960a91b81525081565b6040516102c191906145c7565b61037d61037836600461452b565b610870565b6040516001600160a01b0390911681526020016102c1565b6103a86103a33660046144ff565b6108b5565b005b6103236103b83660046145da565b6108fb565b61035d6103cb36600461452b565b610975565b6103a86103de366004614626565b6109e7565b6103f66103f136600461469a565b610ae1565b6040516001600160e01b031990911681526020016102c1565b6103a861041d36600461470c565b610cc1565b6103a86104303660046145da565b610d0d565b60075461037d906001600160a01b031681565b61035d61045636600461452b565b610dc3565b6102b7610469366004614802565b610e5d565b61037d7f000000000000000000000000000000000000000000000000000000000000000081565b6103a86104a3366004614928565b611043565b6103a86104b63660046149d5565b611281565b61037d7f000000000000000000000000000000000000000000000000000000000000000081565b6104f56104f0366004614a2d565b611452565b60405163ffffffff90911681526020016102c1565b6103236105183660046145da565b6114ef565b61053061052b366004614a50565b611528565b6040516102c19190614b4d565b60055461037d906001600160a01b031681565b6103a861055e366004614b60565b611651565b61037d61057136600461452b565b6116f4565b610589610584366004614ba1565b6116ff565b6040516001600160401b0390911681526020016102c1565b6103a8611832565b6103a86105b7366004614bd6565b6118a6565b6105896105ca366004614c18565b6119cc565b6000546001600160a01b031661037d565b6103a86105ee366004614ca0565b611d48565b6102b7610601366004614cce565b611e1e565b610323610614366004614d4e565b611f5f565b6103a861062736600461470c565b611f84565b6102b761063a366004614d71565b6121fe565b6102b761064d366004614d93565b612468565b6103a8610660366004614e05565b612630565b6103a8610673366004614e70565b612783565b6103a8610686366004614ea8565b61291d565b610323610699366004614d71565b6129e6565b6103236106ac36600461470c565b60046020526000908152604090205460ff1681565b6103a86106cf366004614ca0565b612ac5565b6103236106e2366004614ed6565b612b4f565b6103a86106f5366004614f04565b612b7d565b6102b761070836600461452b565b60016020526000908152604090205481565b6103a8610728366004614f6b565b612f21565b6103a861073b36600461470c565b612fce565b61032361074e36600461452b565b6130b8565b60006001600160a01b0383166107c45760405162461bcd60e51b815260206004820152602b60248201527f455243313135353a2062616c616e636520717565727920666f7220746865207a60448201526a65726f206164647265737360a81b60648201526084015b60405180910390fd5b60006107cf836116f4565b9050836001600160a01b0316816001600160a01b0316036107f45760019150506107fa565b60009150505b92915050565b60008181526001602052604090205460a081901c60c082901c610824838383613190565b90959094509092509050565b60006001600160e01b03198216631b05885b60e31b148061086157506001600160e01b03198216630a85bd0160e11b145b806107fa57506107fa826131c6565b60008061087c836116f4565b90506001600160a01b0381166108955750600092915050565b6000838152600360205260409020546001600160a01b03165b9392505050565b60006108c082610800565b50915050603f1960408216016108ec5760405163a2a7201360e01b8152600481018390526024016107bb565b6108f68383613216565b505050565b600080808061090986610800565b925092509250846001600160a01b0316836001600160a01b0316148061093457506109348386612b4f565b8061095857506001600160a01b03851661094d87610870565b6001600160a01b0316145b801561096b57506109698282613326565b155b9695505050505050565b6005546040516303a24d0760e21b8152600481018390526060916001600160a01b031690630e89341c90602401600060405180830381865afa1580156109bf573d6000803e3d6000fd5b505050506040513d6000823e601f3d908101601f191682016040526107fa9190810190614fd3565b816109f281336114ef565b610a1357803360405163168ab55d60e31b81526004016107bb92919061504a565b8260106000610a2183610800565b5091505063ffffffff8282161615610a4f5760405163a2a7201360e01b8152600481018490526024016107bb565b604051630295720760e31b8152600481018790526001600160401b03861660248201527f00000000000000000000000000000000000000000000000000000000000000006001600160a01b0316906314ab9038906044015b600060405180830381600087803b158015610ac157600080fd5b505af1158015610ad5573d6000803e3d6000fd5b50505050505050505050565b6000336001600160a01b037f00000000000000000000000000000000000000000000000000000000000000001614610b2c5760405163032634a760e31b815260040160405180910390fd5b6000808080610b3d86880188615061565b83516020850120939750919550935091508890808214610b7a576040516331970f3360e21b815260048101829052602481018390526044016107bb565b604051630a3b53db60e21b81526001600160a01b037f000000000000000000000000000000000000000000000000000000000000000016906328ed4f6c90610bc8908590309060040161504a565b600060405180830381600087803b158015610be257600080fd5b505af1158015610bf6573d6000803e3d6000fd5b5050604051636b727d4360e11b8152600481018d9052600092506276a70091506001600160a01b037f0000000000000000000000000000000000000000000000000000000000000000169063d6e4fa8690602401602060405180830381865afa158015610c67573d6000803e3d6000fd5b505050506040513d601f19601f82011682018060405250810190610c8b91906150c8565b610c9591906150f7565b9050610ca887878761ffff168488613356565b50630a85bd0160e11b9c9b505050505050505050505050565b6000546001600160a01b03163314610ceb5760405162461bcd60e51b81526004016107bb9061511e565b600580546001600160a01b0319166001600160a01b0392909216919091179055565b81610d1881336114ef565b610d3957803360405163168ab55d60e31b81526004016107bb92919061504a565b8260086000610d4783610800565b5091505063ffffffff8282161615610d755760405163a2a7201360e01b8152600481018490526024016107bb565b604051630c4b7b8560e11b81526001600160a01b037f00000000000000000000000000000000000000000000000000000000000000001690631896f70a90610aa7908990899060040161504a565b60066020526000908152604090208054610ddc90615153565b80601f0160208091040260200160405190810160405280929190818152602001828054610e0890615153565b8015610e555780601f10610e2a57610100808354040283529160200191610e55565b820191906000526020600020905b815481529060010190602001808311610e3857829003601f168201915b505050505081565b600087610e6a81336114ef565b610e8b57803360405163168ab55d60e31b81526004016107bb92919061504a565b87516020890120610e9c8a82613468565b9250610ea88a84613494565b610eb283866135d2565b610ebd8a848b613605565b50610eca8a8487876136d2565b9350610ed583613718565b610f8a576040516305ef2c7f60e41b8152600481018b9052602481018290523060448201526001600160a01b0388811660648301526001600160401b03881660848301527f00000000000000000000000000000000000000000000000000000000000000001690635ef2c7f09060a401600060405180830381600087803b158015610f5f57600080fd5b505af1158015610f73573d6000803e3d6000fd5b50505050610f858a848b8b89896137d1565b611036565b6040516305ef2c7f60e41b8152600481018b9052602481018290523060448201526001600160a01b0388811660648301526001600160401b03881660848301527f00000000000000000000000000000000000000000000000000000000000000001690635ef2c7f09060a401600060405180830381600087803b15801561101057600080fd5b505af1158015611024573d6000803e3d6000fd5b505050506110368a848b8b8989613808565b5050979650505050505050565b81518351146110a55760405162461bcd60e51b815260206004820152602860248201527f455243313135353a2069647320616e6420616d6f756e7473206c656e677468206044820152670dad2e6dac2e8c6d60c31b60648201526084016107bb565b6001600160a01b0384166110cb5760405162461bcd60e51b81526004016107bb9061518d565b6001600160a01b0385163314806110e757506110e78533612b4f565b61114e5760405162461bcd60e51b815260206004820152603260248201527f455243313135353a207472616e736665722063616c6c6572206973206e6f74206044820152711bdddb995c881b9bdc88185c1c1c9bdd995960721b60648201526084016107bb565b60005b835181101561121457600084828151811061116e5761116e6151d2565b60200260200101519050600084838151811061118c5761118c6151d2565b6020026020010151905060008060006111a485610800565b9250925092506111b58583836138cc565b8360011480156111d657508a6001600160a01b0316836001600160a01b0316145b6111f25760405162461bcd60e51b81526004016107bb906151e8565b6111fe858b8484613975565b50505050508061120d90615232565b9050611151565b50836001600160a01b0316856001600160a01b0316336001600160a01b03167f4a39dc06d4c0dbc64b70af90fd698a233a518aa5d07e595d983b8c0526c8f7fb868660405161126492919061524b565b60405180910390a461127a3386868686866139b7565b5050505050565b600061128d8585613468565b905061129981846135d2565b600080806112a684610800565b919450925090506001600160a01b038316158061135557506040516302571be360e01b81526004810185905230906001600160a01b037f000000000000000000000000000000000000000000000000000000000000000016906302571be390602401602060405180830381865afa158015611325573d6000803e3d6000fd5b505050506040513d601f19601f820116820180604052508101906113499190615279565b6001600160a01b031614155b1561137357604051635374b59960e01b815260040160405180910390fd5b60008061137f8a610800565b90935091508a90506113bb5761139586336114ef565b6113b657853360405163168ab55d60e31b81526004016107bb92919061504a565b6113e6565b6113c58a336114ef565b6113e657893360405163168ab55d60e31b81526004016107bb92919061504a565b6113f1868984613b12565b6113fc878483613b4d565b96506201000084161580159061142057508363ffffffff1688851763ffffffff1614155b156114415760405163a2a7201360e01b8152600481018790526024016107bb565b96831796610ad586868a868b613b93565b60008261145f81336114ef565b61148057803360405163168ab55d60e31b81526004016107bb92919061504a565b836002600061148e83610800565b5091505063ffffffff82821616156114bc5760405163a2a7201360e01b8152600481018490526024016107bb565b600080806114c98a610800565b9250925092506114e28a84848c61ffff16178485613b93565b5098975050505050505050565b60008080806114fd86610800565b925092509250846001600160a01b0316836001600160a01b0316148061095857506109588386612b4f565b6060815183511461158d5760405162461bcd60e51b815260206004820152602960248201527f455243313135353a206163636f756e747320616e6420696473206c656e677468604482015268040dad2e6dac2e8c6d60bb1b60648201526084016107bb565b600083516001600160401b038111156115a8576115a8614729565b6040519080825280602002602001820160405280156115d1578160200160208202803683370190505b50905060005b84518110156116495761161c8582815181106115f5576115f56151d2565b602002602001015185838151811061160f5761160f6151d2565b6020026020010151610753565b82828151811061162e5761162e6151d2565b602090810291909101015261164281615232565b90506115d7565b509392505050565b6000546001600160a01b0316331461167b5760405162461bcd60e51b81526004016107bb9061511e565b60405163a9059cbb60e01b81526001600160a01b0383811660048301526024820183905284169063a9059cbb906044016020604051808303816000875af11580156116ca573d6000803e3d6000fd5b505050506040513d601f19601f820116820180604052508101906116ee9190615296565b50505050565b60006107fa82613c3a565b60008061170c8585613468565b905061171781613718565b61173457604051635374b59960e01b815260040160405180910390fd5b600061174086336108fb565b905080158015611757575061175582336114ef565b155b1561177957813360405163168ab55d60e31b81526004016107bb92919061504a565b6000808061178685610800565b9250925092508315801561179d5750620400008216155b156117be5760405163a2a7201360e01b8152600481018690526024016107bb565b60006117c98a610800565b925050506117d8888383613b4d565b97506117e68685858b613c50565b6040516001600160401b038916815286907ff675815a0817338f93a7da433f6bd5f5542f1029b11b455191ac96c7f6a9b1329060200160405180910390a2509598975050505050505050565b6000546001600160a01b0316331461185c5760405162461bcd60e51b81526004016107bb9061511e565b600080546040516001600160a01b03909116907f8be0079c531659141344cd1fd0a4f28419497f9722a3daafe3b4186f6b6457e0908390a3600080546001600160a01b0319169055565b6118be6000805160206157d483398151915284613468565b6118c881336114ef565b6118e957803360405163168ab55d60e31b81526004016107bb92919061504a565b306001600160a01b0384160361191d57604051632ca49b0d60e11b81526001600160a01b03841660048201526024016107bb565b61193e6119386000805160206157d483398151915286613468565b83613c66565b604051632142170760e11b81523060048201526001600160a01b038481166024830152604482018690527f000000000000000000000000000000000000000000000000000000000000000016906342842e0e90606401600060405180830381600087803b1580156119ae57600080fd5b505af11580156119c2573d6000803e3d6000fd5b5050505050505050565b60008086866040516119df9291906152b3565b6040519081900381206331a9108f60e11b82526004820181905291506000907f00000000000000000000000000000000000000000000000000000000000000006001600160a01b031690636352211e90602401602060405180830381865afa158015611a4f573d6000803e3d6000fd5b505050506040513d601f19601f82011682018060405250810190611a739190615279565b90506001600160a01b0381163314801590611b1b575060405163e985e9c560e01b81526001600160a01b0382811660048301523360248301527f0000000000000000000000000000000000000000000000000000000000000000169063e985e9c590604401602060405180830381865afa158015611af5573d6000803e3d6000fd5b505050506040513d601f19601f82011682018060405250810190611b199190615296565b155b15611b5457611b386000805160206157d483398151915283613468565b3360405163168ab55d60e31b81526004016107bb92919061504a565b6040516323b872dd60e01b81526001600160a01b038281166004830152306024830152604482018490527f000000000000000000000000000000000000000000000000000000000000000016906323b872dd90606401600060405180830381600087803b158015611bc457600080fd5b505af1158015611bd8573d6000803e3d6000fd5b5050604051630a3b53db60e21b81526001600160a01b037f00000000000000000000000000000000000000000000000000000000000000001692506328ed4f6c9150611c2a908590309060040161504a565b600060405180830381600087803b158015611c4457600080fd5b505af1158015611c58573d6000803e3d6000fd5b5050604051636b727d4360e11b8152600481018590526276a70092507f00000000000000000000000000000000000000000000000000000000000000006001600160a01b0316915063d6e4fa8690602401602060405180830381865afa158015611cc6573d6000803e3d6000fd5b505050506040513d601f19601f82011682018060405250810190611cea91906150c8565b611cf491906150f7565b9250611d3d88888080601f0160208091040260200160405190810160405280939291908181526020018383808284376000920191909152508a9250505061ffff88168688613356565b505095945050505050565b6001600160a01b0382163303611db25760405162461bcd60e51b815260206004820152602960248201527f455243313135353a2073657474696e6720617070726f76616c20737461747573604482015268103337b91039b2b63360b91b60648201526084016107bb565b3360008181526002602090815260408083206001600160a01b03871680855290835292819020805460ff191686151590811790915590519081529192917f17307eab39ab6107e8899845ad3d59bd9653f200f220920489ca2b5937696c31910160405180910390a35050565b3360009081526004602052604081205460ff16611e4d5760405162461bcd60e51b81526004016107bb906152c3565b60008787604051611e5f9291906152b3565b604051908190038120633f2891eb60e21b8252600482018190523060248301526044820187905291507f00000000000000000000000000000000000000000000000000000000000000006001600160a01b03169063fca247ac906064016020604051808303816000875af1158015611edb573d6000803e3d6000fd5b505050506040513d601f19601f82011682018060405250810190611eff91906150c8565b9150611f5488888080601f0160208091040260200160405190810160405280939291908181526020018383808284376000920191909152508a9250505061ffff8616611f4e6276a700876150f7565b88613356565b509695505050505050565b600080611f6b84610800565b50841663ffffffff908116908516149250505092915050565b6000546001600160a01b03163314611fae5760405162461bcd60e51b81526004016107bb9061511e565b6007546001600160a01b0316156120ce5760075460405163a22cb46560e01b81526001600160a01b039182166004820152600060248201527f00000000000000000000000000000000000000000000000000000000000000009091169063a22cb46590604401600060405180830381600087803b15801561202e57600080fd5b505af1158015612042573d6000803e3d6000fd5b505060075460405163a22cb46560e01b81526001600160a01b039182166004820152600060248201527f0000000000000000000000000000000000000000000000000000000000000000909116925063a22cb4659150604401600060405180830381600087803b1580156120b557600080fd5b505af11580156120c9573d6000803e3d6000fd5b505050505b600780546001600160a01b0319166001600160a01b038316908117909155156121fb5760075460405163a22cb46560e01b81526001600160a01b039182166004820152600160248201527f00000000000000000000000000000000000000000000000000000000000000009091169063a22cb46590604401600060405180830381600087803b15801561216057600080fd5b505af1158015612174573d6000803e3d6000fd5b505060075460405163a22cb46560e01b81526001600160a01b039182166004820152600160248201527f0000000000000000000000000000000000000000000000000000000000000000909116925063a22cb4659150604401600060405180830381600087803b1580156121e757600080fd5b505af115801561127a573d6000803e3d6000fd5b50565b3360009081526004602052604081205460ff1661222d5760405162461bcd60e51b81526004016107bb906152c3565b60006122476000805160206157d483398151915285613468565b60405163c475abff60e01b815260048101869052602481018590529091506000906001600160a01b037f0000000000000000000000000000000000000000000000000000000000000000169063c475abff906044016020604051808303816000875af11580156122bb573d6000803e3d6000fd5b505050506040513d601f19601f820116820180604052508101906122df91906150c8565b6040516331a9108f60e11b8152600481018790529091507f00000000000000000000000000000000000000000000000000000000000000006001600160a01b031690636352211e90602401602060405180830381865afa925050508015612363575060408051601f3d908101601f1916820190925261236091810190615279565b60015b6123705791506107fa9050565b6001600160a01b0381163014158061241a57506040516302571be360e01b81526004810184905230906001600160a01b037f000000000000000000000000000000000000000000000000000000000000000016906302571be390602401602060405180830381865afa1580156123ea573d6000803e3d6000fd5b505050506040513d601f19601f8201168201806040525081019061240e9190615279565b6001600160a01b031614155b15612429575091506107fa9050565b5060006124396276a700836150f7565b60008481526001602052604090205490915060a081901c61245c85838386613c50565b50919695505050505050565b60008661247581336114ef565b61249657803360405163168ab55d60e31b81526004016107bb92919061504a565b600087876040516124a89291906152b3565b604051809103902090506124bc8982613468565b92506124c88984613494565b6124d283866135d2565b60006125158a858b8b8080601f01602080910402602001604051908101604052809392919081815260200183838082843760009201919091525061360592505050565b90506125238a8588886136d2565b945061252e84613718565b6125dd576040516306ab592360e01b8152600481018b9052602481018390523060448201527f00000000000000000000000000000000000000000000000000000000000000006001600160a01b0316906306ab5923906064016020604051808303816000875af11580156125a6573d6000803e3d6000fd5b505050506040513d601f19601f820116820180604052508101906125ca91906150c8565b506125d88482898989613d56565b612623565b6126238a858b8b8080601f0160208091040260200160405190810160405280939291908181526020018383808284376000920191909152508d92508c91508b9050613808565b5050509695505050505050565b6000612676600086868080601f0160208091040260200160405190810160405280939291908181526020018383808284376000920191909152509293925050613d989050565b6007549091506001600160a01b03166126a25760405163093075b560e21b815260040160405180910390fd5b6126ac81336114ef565b6126cd57803360405163168ab55d60e31b81526004016107bb92919061504a565b600080806126da84610800565b9194509250905060006126ec85610870565b90506126f785613e57565b600760009054906101000a90046001600160a01b03166001600160a01b0316639198c2768a8a878787878e8e6040518963ffffffff1660e01b8152600401612746989796959493929190615334565b600060405180830381600087803b15801561276057600080fd5b505af1158015612774573d6000803e3d6000fd5b50505050505050505050505050565b8361278e81336114ef565b6127af57803360405163168ab55d60e31b81526004016107bb92919061504a565b84601c60006127bd83610800565b5091505063ffffffff82821616156127eb5760405163a2a7201360e01b8152600481018490526024016107bb565b60405163cf40882360e01b8152600481018990523060248201526001600160a01b0387811660448301526001600160401b03871660648301527f0000000000000000000000000000000000000000000000000000000000000000169063cf40882390608401600060405180830381600087803b15801561286a57600080fd5b505af115801561287e573d6000803e3d6000fd5b5050506001600160a01b03881690506128e557600061289c89610800565b509150506201ffff19620200008216016128d457604051632ca49b0d60e11b81526001600160a01b03891660048201526024016107bb565b6128df896000613c66565b506119c2565b60006128f0896116f4565b905061291281898b60001c600160405180602001604052806000815250613ef7565b505050505050505050565b6129278383613468565b61293181336114ef565b61295257803360405163168ab55d60e31b81526004016107bb92919061504a565b7f3f51c01b70f6021b59f2e4d1c0d3a2e0722a6dd3c54773589c883a02ef7e91b784016129925760405163615a470360e01b815260040160405180910390fd5b6001600160a01b03821615806129b057506001600160a01b03821630145b156129d957604051632ca49b0d60e11b81526001600160a01b03831660048201526024016107bb565b6116ee6119388585613468565b6000806129f38484613468565b90506000612a0082613718565b90506000805160206157d48339815191528514612a205791506107fa9050565b6040516331a9108f60e11b8152600481018590527f00000000000000000000000000000000000000000000000000000000000000006001600160a01b031690636352211e90602401602060405180830381865afa925050508015612aa1575060408051601f3d908101601f19168201909252612a9e91810190615279565b60015b612ab0576000925050506107fa565b6001600160a01b0316301492506107fa915050565b6000546001600160a01b03163314612aef5760405162461bcd60e51b81526004016107bb9061511e565b6001600160a01b038216600081815260046020908152604091829020805460ff191685151590811790915591519182527f4c97694570a07277810af7e5669ffd5f6a2d6b74b6e9a274b8b870fd5114cf8791015b60405180910390a25050565b6001600160a01b03918216600090815260026020908152604080832093909416825291909152205460ff1690565b600080612bc4600087878080601f0160208091040260200160405190810160405280939291908181526020018383808284376000920191909152509293925050613fd99050565b915091506000612c0d8288888080601f0160208091040260200160405190810160405280939291908181526020018383808284376000920191909152509293925050613d989050565b90506000612c1b8285613468565b6000818152600660205260409020909150612c37888a836153e2565b507f3f51c01b70f6021b59f2e4d1c0d3a2e0722a6dd3c54773589c883a02ef7e91b78201612c785760405163615a470360e01b815260040160405180910390fd5b6040516302571be360e01b8152600481018290526000907f00000000000000000000000000000000000000000000000000000000000000006001600160a01b0316906302571be390602401602060405180830381865afa158015612ce0573d6000803e3d6000fd5b505050506040513d601f19601f82011682018060405250810190612d049190615279565b90506001600160a01b0381163314801590612dac575060405163e985e9c560e01b81526001600160a01b0382811660048301523360248301527f0000000000000000000000000000000000000000000000000000000000000000169063e985e9c590604401602060405180830381865afa158015612d86573d6000803e3d6000fd5b505050506040513d601f19601f82011682018060405250810190612daa9190615296565b155b15612dce57813360405163168ab55d60e31b81526004016107bb92919061504a565b6001600160a01b03861615612e5e57604051630c4b7b8560e11b81526001600160a01b037f00000000000000000000000000000000000000000000000000000000000000001690631896f70a90612e2b9085908a9060040161504a565b600060405180830381600087803b158015612e4557600080fd5b505af1158015612e59573d6000803e3d6000fd5b505050505b604051635b0fc9c360e01b81526001600160a01b037f00000000000000000000000000000000000000000000000000000000000000001690635b0fc9c390612eac908590309060040161504a565b600060405180830381600087803b158015612ec657600080fd5b505af1158015612eda573d6000803e3d6000fd5b50505050612912828a8a8080601f01602080910402602001604051908101604052809392919081815260200183838082843760009201829052508d93509150819050613d56565b6001600160a01b038416612f475760405162461bcd60e51b81526004016107bb9061518d565b6001600160a01b038516331480612f635750612f638533612b4f565b612fc15760405162461bcd60e51b815260206004820152602960248201527f455243313135353a2063616c6c6572206973206e6f74206f776e6572206e6f7260448201526808185c1c1c9bdd995960ba1b60648201526084016107bb565b61127a8585858585613ef7565b6000546001600160a01b03163314612ff85760405162461bcd60e51b81526004016107bb9061511e565b6001600160a01b03811661305d5760405162461bcd60e51b815260206004820152602660248201527f4f776e61626c653a206e6577206f776e657220697320746865207a65726f206160448201526564647265737360d01b60648201526084016107bb565b600080546040516001600160a01b03808516939216917f8be0079c531659141344cd1fd0a4f28419497f9722a3daafe3b4186f6b6457e091a3600080546001600160a01b0319166001600160a01b0392909216919091179055565b600081815260066020526040812080548291906130d490615153565b80601f016020809104026020016040519081016040528092919081815260200182805461310090615153565b801561314d5780601f106131225761010080835404028352916020019161314d565b820191906000526020600020905b81548152906001019060200180831161313057829003601f168201915b5050505050905080516000036131665750600092915050565b6000806131738382613fd9565b909250905060006131848483613d98565b905061096b81846129e6565b60008042836001600160401b031610156131bd5761ffff19620100008516016131b857600094505b600093505b50929391925050565b60006001600160e01b03198216636cdb3d1360e11b14806131f757506001600160e01b031982166303a24d0760e21b145b806107fa57506301ffc9a760e01b6001600160e01b03198316146107fa565b6000613221826116f4565b9050806001600160a01b0316836001600160a01b03160361328e5760405162461bcd60e51b815260206004820152602160248201527f4552433732313a20617070726f76616c20746f2063757272656e74206f776e656044820152603960f91b60648201526084016107bb565b336001600160a01b03821614806132aa57506132aa8133612b4f565b61331c5760405162461bcd60e51b815260206004820152603d60248201527f4552433732313a20617070726f76652063616c6c6572206973206e6f7420746f60448201527f6b656e206f776e6572206f7220617070726f76656420666f7220616c6c00000060648201526084016107bb565b6108f68383614090565b6000620200008381161480156108ae5750426133456276a700846154a1565b6001600160401b0316109392505050565b8451602086012060006133776000805160206157d483398151915283613468565b905060006133a18860405180604001604052806005815260200163036d786360e01b8152506140fe565b60008381526006602052604090209091506133bc82826154c1565b506133cf828289620300008a1789613d56565b6001600160a01b038416156119c257604051630c4b7b8560e11b81526001600160a01b037f00000000000000000000000000000000000000000000000000000000000000001690631896f70a9061342c908590889060040161504a565b600060405180830381600087803b15801561344657600080fd5b505af115801561345a573d6000803e3d6000fd5b505050505050505050505050565b604080516020808201949094528082019290925280518083038201815260609092019052805191012090565b600080806134a184610800565b91945092509050426001600160401b0382161080801561356457506001600160a01b038416158061356457506040516302571be360e01b8152600481018690526000906001600160a01b037f000000000000000000000000000000000000000000000000000000000000000016906302571be390602401602060405180830381865afa158015613535573d6000803e3d6000fd5b505050506040513d601f19601f820116820180604052508101906135599190615279565b6001600160a01b0316145b156135a357600061357487610800565b50915050602081161561359d5760405163a2a7201360e01b8152600481018790526024016107bb565b506135ca565b620100008316156135ca5760405163a2a7201360e01b8152600481018690526024016107bb565b505050505050565b63fffdffff81811763ffffffff16146136015760405163a2a7201360e01b8152600481018390526024016107bb565b5050565b606060006136ae8360066000888152602001908152602001600020805461362b90615153565b80601f016020809104026020016040519081016040528092919081815260200182805461365790615153565b80156136a45780601f10613679576101008083540402835291602001916136a4565b820191906000526020600020905b81548152906001019060200180831161368757829003601f168201915b50505050506140fe565b60008581526006602052604090209091506136c982826154c1565b50949350505050565b6000806136de85610800565b925050506000806136f18860001c610800565b9250925050613701878784613b12565b61370c858483613b4d565b98975050505050505050565b600080613724836116f4565b6001600160a01b0316141580156107fa57506040516302571be360e01b81526004810183905230906001600160a01b037f000000000000000000000000000000000000000000000000000000000000000016906302571be390602401602060405180830381865afa15801561379d573d6000803e3d6000fd5b505050506040513d601f19601f820116820180604052508101906137c19190615279565b6001600160a01b03161492915050565b600086815260066020526040812080546137f091879161362b90615153565b90506137ff8682868686613d56565b50505050505050565b6000808061381588610800565b925092509250600061383f88600660008d8152602001908152602001600020805461362b90615153565b60008a815260066020526040902080549192509061385c90615153565b905060000361387f57600089815260066020526040902061387d82826154c1565b505b61388e89858886178589613b93565b6001600160a01b0387166138ac576138a7896000613c66565b610ad5565b610ad584888b60001c600160405180602001604052806000815250613ef7565b6201ffff19620200008316016138ec576138e96276a700826154a1565b90505b42816001600160401b0316101561392557620100008216156139205760405162461bcd60e51b81526004016107bb906151e8565b61394a565b600482161561394a5760405163a2a7201360e01b8152600481018490526024016107bb565b604082166000036108f6575050600090815260036020526040902080546001600160a01b0319169055565b60c0816001600160401b0316901b60a08363ffffffff16901b846001600160a01b03161717600160008681526020019081526020016000208190555050505050565b6001600160a01b0384163b156135ca5760405163bc197c8160e01b81526001600160a01b0385169063bc197c81906139fb9089908990889088908890600401615580565b6020604051808303816000875af1925050508015613a36575060408051601f3d908101601f19168201909252613a33918101906155d2565b60015b613ae257613a426155ef565b806308c379a003613a7b5750613a5661560b565b80613a615750613a7d565b8060405162461bcd60e51b81526004016107bb91906145c7565b505b60405162461bcd60e51b815260206004820152603460248201527f455243313135353a207472616e7366657220746f206e6f6e20455243313135356044820152732932b1b2b4bb32b91034b6b83632b6b2b73a32b960611b60648201526084016107bb565b6001600160e01b0319811663bc197c8160e01b146137ff5760405162461bcd60e51b81526004016107bb90615694565b63ffff00008216158015906001831615908290613b2c5750805b1561127a5760405163a2a7201360e01b8152600481018690526024016107bb565b6000816001600160401b0316846001600160401b03161115613b6d578193505b826001600160401b0316846001600160401b03161015613b8b578293505b509192915050565b613b9f85858584613c50565b60405163ffffffff8416815285907f39873f00c80f4f94b7bd1594aebcf650f003545b74824d57ddf4939e3ff3a34b9060200160405180910390a2816001600160401b0316816001600160401b0316111561127a576040516001600160401b038216815285907ff675815a0817338f93a7da433f6bd5f5542f1029b11b455191ac96c7f6a9b132906020015b60405180910390a25050505050565b600080613c4683610800565b5090949350505050565b613c5a8483614175565b6116ee84848484613975565b613c71826001611f5f565b15613c925760405163a2a7201360e01b8152600481018390526024016107bb565b613c9b82613e57565b604051635b0fc9c360e01b81526001600160a01b037f00000000000000000000000000000000000000000000000000000000000000001690635b0fc9c390613ce9908590859060040161504a565b600060405180830381600087803b158015613d0357600080fd5b505af1158015613d17573d6000803e3d6000fd5b50506040516001600160a01b03841681528492507fee2ba1195c65bcf218a83d874335c6bf9d9067b4c672f3c3bf16cf40de7586c49150602001612b43565b613d62858484846141ae565b847f8ce7013e8abebc55c3890a68f5a27c67c3f7efa64e584de5fb22363c606fd34085858585604051613c2b94939291906156dc565b6000806000613da78585613fd9565b909250905081613e195760018551613dbf9190615723565b8414613e0d5760405162461bcd60e51b815260206004820152601d60248201527f6e616d65686173683a204a756e6b20617420656e64206f66206e616d6500000060448201526064016107bb565b50600091506107fa9050565b613e238582613d98565b6040805160208101929092528101839052606001604051602081830303815290604052805190602001209250505092915050565b60008181526001602052604090205460a081901c60c082901c613e7b838383613190565b600086815260036020526040812080546001600160a01b0319169055909350613ea8915085908484613975565b60408051858152600160208201526000916001600160a01b0386169133917fc3d58168c5ae7397731d063d5bbf3d657854427343f4c083240f7aacaa2d0f62910160405180910390a450505050565b6000806000613f0586610800565b925092509250613f168683836138cc565b846001148015613f375750876001600160a01b0316836001600160a01b0316145b613f535760405162461bcd60e51b81526004016107bb906151e8565b866001600160a01b0316836001600160a01b031603613f745750505061127a565b613f8086888484613975565b60408051878152602081018790526001600160a01b03808a1692908b169133917fc3d58168c5ae7397731d063d5bbf3d657854427343f4c083240f7aacaa2d0f62910160405180910390a46119c2338989898989614222565b6000808351831061402c5760405162461bcd60e51b815260206004820152601e60248201527f726561644c6162656c3a20496e646578206f7574206f6620626f756e6473000060448201526064016107bb565b6000848481518110614040576140406151d2565b016020015160f81c9050801561406c576140658561405f866001615736565b836142dd565b9250614071565b600092505b61407b8185615736565b614086906001615736565b9150509250929050565b600081815260036020526040902080546001600160a01b0319166001600160a01b03841690811790915581906140c5826116f4565b6001600160a01b03167f8c5be1e5ebec7d5bd14f71427d1e84f3dd0314c0f7b2291e5b200ac8c7c3b92560405160405180910390a45050565b606060018351101561412357604051631406d65b60e11b815260040160405180910390fd5b60ff83511115614148578260405163e3ba295f60e01b81526004016107bb91906145c7565b8251838360405160200161415e93929190615749565b604051602081830303815290604052905092915050565b61ffff81161580159061418d57506201000181811614155b156136015760405163a2a7201360e01b8152600481018390526024016107bb565b6141b88483614175565b6000848152600160205260409020546001600160a01b03811615614216576141df85613e57565b6040516000815285907fee2ba1195c65bcf218a83d874335c6bf9d9067b4c672f3c3bf16cf40de7586c49060200160405180910390a25b61127a85858585614301565b6001600160a01b0384163b156135ca5760405163f23a6e6160e01b81526001600160a01b0385169063f23a6e6190614266908990899088908890889060040161578e565b6020604051808303816000875af19250505080156142a1575060408051601f3d908101601f1916820190925261429e918101906155d2565b60015b6142ad57613a426155ef565b6001600160e01b0319811663f23a6e6160e01b146137ff5760405162461bcd60e51b81526004016107bb90615694565b82516000906142ec8385615736565b11156142f757600080fd5b5091016020012090565b836000808061430f84610800565b9194509250905063ffff000082166001600160401b038087169083161115614335578195505b42826001600160401b03161061434a57958617955b6001600160a01b038416156143a15760405162461bcd60e51b815260206004820152601f60248201527f455243313135353a206d696e74206f66206578697374696e6720746f6b656e0060448201526064016107bb565b6001600160a01b0388166144015760405162461bcd60e51b815260206004820152602160248201527f455243313135353a206d696e7420746f20746865207a65726f206164647265736044820152607360f81b60648201526084016107bb565b306001600160a01b038916036144765760405162461bcd60e51b815260206004820152603460248201527f455243313135353a206e65774f776e65722063616e6e6f74206265207468652060448201527313985b5955dc985c1c195c8818dbdb9d1c9858dd60621b60648201526084016107bb565b61448285898989613975565b60408051868152600160208201526001600160a01b038a169160009133917fc3d58168c5ae7397731d063d5bbf3d657854427343f4c083240f7aacaa2d0f62910160405180910390a46129123360008a88600160405180602001604052806000815250614222565b6001600160a01b03811681146121fb57600080fd5b6000806040838503121561451257600080fd5b823561451d816144ea565b946020939093013593505050565b60006020828403121561453d57600080fd5b5035919050565b6001600160e01b0319811681146121fb57600080fd5b60006020828403121561456c57600080fd5b81356108ae81614544565b60005b8381101561459257818101518382015260200161457a565b50506000910152565b600081518084526145b3816020860160208601614577565b601f01601f19169290920160200192915050565b6020815260006108ae602083018461459b565b600080604083850312156145ed57600080fd5b8235915060208301356145ff816144ea565b809150509250929050565b80356001600160401b038116811461462157600080fd5b919050565b6000806040838503121561463957600080fd5b823591506146496020840161460a565b90509250929050565b60008083601f84011261466457600080fd5b5081356001600160401b0381111561467b57600080fd5b60208301915083602082850101111561469357600080fd5b9250929050565b6000806000806000608086880312156146b257600080fd5b85356146bd816144ea565b945060208601356146cd816144ea565b93506040860135925060608601356001600160401b038111156146ef57600080fd5b6146fb88828901614652565b969995985093965092949392505050565b60006020828403121561471e57600080fd5b81356108ae816144ea565b634e487b7160e01b600052604160045260246000fd5b601f8201601f191681016001600160401b038111828210171561476457614764614729565b6040525050565b60006001600160401b0382111561478457614784614729565b50601f01601f191660200190565b600082601f8301126147a357600080fd5b81356147ae8161476b565b6040516147bb828261473f565b8281528560208487010111156147d057600080fd5b82602086016020830137600092810160200192909252509392505050565b803563ffffffff8116811461462157600080fd5b600080600080600080600060e0888a03121561481d57600080fd5b8735965060208801356001600160401b0381111561483a57600080fd5b6148468a828b01614792565b9650506040880135614857816144ea565b94506060880135614867816144ea565b93506148756080890161460a565b925061488360a089016147ee565b915061489160c0890161460a565b905092959891949750929550565b60006001600160401b038211156148b8576148b8614729565b5060051b60200190565b600082601f8301126148d357600080fd5b813560206148e08261489f565b6040516148ed828261473f565b83815260059390931b850182019282810191508684111561490d57600080fd5b8286015b84811015611f545780358352918301918301614911565b600080600080600060a0868803121561494057600080fd5b853561494b816144ea565b9450602086013561495b816144ea565b935060408601356001600160401b038082111561497757600080fd5b61498389838a016148c2565b9450606088013591508082111561499957600080fd5b6149a589838a016148c2565b935060808801359150808211156149bb57600080fd5b506149c888828901614792565b9150509295509295909350565b600080600080608085870312156149eb57600080fd5b8435935060208501359250614a02604086016147ee565b9150614a106060860161460a565b905092959194509250565b803561ffff8116811461462157600080fd5b60008060408385031215614a4057600080fd5b8235915061464960208401614a1b565b60008060408385031215614a6357600080fd5b82356001600160401b0380821115614a7a57600080fd5b818501915085601f830112614a8e57600080fd5b81356020614a9b8261489f565b604051614aa8828261473f565b83815260059390931b8501820192828101915089841115614ac857600080fd5b948201945b83861015614aef578535614ae0816144ea565b82529482019490820190614acd565b96505086013592505080821115614b0557600080fd5b50614086858286016148c2565b600081518084526020808501945080840160005b83811015614b4257815187529582019590820190600101614b26565b509495945050505050565b6020815260006108ae6020830184614b12565b600080600060608486031215614b7557600080fd5b8335614b80816144ea565b92506020840135614b90816144ea565b929592945050506040919091013590565b600080600060608486031215614bb657600080fd5b8335925060208401359150614bcd6040850161460a565b90509250925092565b600080600060608486031215614beb57600080fd5b833592506020840135614bfd816144ea565b91506040840135614c0d816144ea565b809150509250925092565b600080600080600060808688031215614c3057600080fd5b85356001600160401b03811115614c4657600080fd5b614c5288828901614652565b9096509450506020860135614c66816144ea565b9250614c7460408701614a1b565b91506060860135614c84816144ea565b809150509295509295909350565b80151581146121fb57600080fd5b60008060408385031215614cb357600080fd5b8235614cbe816144ea565b915060208301356145ff81614c92565b60008060008060008060a08789031215614ce757600080fd5b86356001600160401b03811115614cfd57600080fd5b614d0989828a01614652565b9097509550506020870135614d1d816144ea565b9350604087013592506060870135614d34816144ea565b9150614d4260808801614a1b565b90509295509295509295565b60008060408385031215614d6157600080fd5b82359150614649602084016147ee565b60008060408385031215614d8457600080fd5b50508035926020909101359150565b60008060008060008060a08789031215614dac57600080fd5b8635955060208701356001600160401b03811115614dc957600080fd5b614dd589828a01614652565b9096509450506040870135614de9816144ea565b9250614df7606088016147ee565b9150614d426080880161460a565b60008060008060408587031215614e1b57600080fd5b84356001600160401b0380821115614e3257600080fd5b614e3e88838901614652565b90965094506020870135915080821115614e5757600080fd5b50614e6487828801614652565b95989497509550505050565b60008060008060808587031215614e8657600080fd5b843593506020850135614e98816144ea565b92506040850135614a02816144ea565b600080600060608486031215614ebd57600080fd5b83359250602084013591506040840135614c0d816144ea565b60008060408385031215614ee957600080fd5b8235614ef4816144ea565b915060208301356145ff816144ea565b60008060008060608587031215614f1a57600080fd5b84356001600160401b03811115614f3057600080fd5b614f3c87828801614652565b9095509350506020850135614f50816144ea565b91506040850135614f60816144ea565b939692955090935050565b600080600080600060a08688031215614f8357600080fd5b8535614f8e816144ea565b94506020860135614f9e816144ea565b9350604086013592506060860135915060808601356001600160401b03811115614fc757600080fd5b6149c888828901614792565b600060208284031215614fe557600080fd5b81516001600160401b03811115614ffb57600080fd5b8201601f8101841361500c57600080fd5b80516150178161476b565b604051615024828261473f565b82815286602084860101111561503957600080fd5b61096b836020830160208701614577565b9182526001600160a01b0316602082015260400190565b6000806000806080858703121561507757600080fd5b84356001600160401b0381111561508d57600080fd5b61509987828801614792565b94505060208501356150aa816144ea565b92506150b860408601614a1b565b91506060850135614f60816144ea565b6000602082840312156150da57600080fd5b5051919050565b634e487b7160e01b600052601160045260246000fd5b6001600160401b03818116838216019080821115615117576151176150e1565b5092915050565b6020808252818101527f4f776e61626c653a2063616c6c6572206973206e6f7420746865206f776e6572604082015260600190565b600181811c9082168061516757607f821691505b60208210810361518757634e487b7160e01b600052602260045260246000fd5b50919050565b60208082526025908201527f455243313135353a207472616e7366657220746f20746865207a65726f206164604082015264647265737360d81b606082015260800190565b634e487b7160e01b600052603260045260246000fd5b6020808252602a908201527f455243313135353a20696e73756666696369656e742062616c616e636520666f60408201526939103a3930b739b332b960b11b606082015260800190565b600060018201615244576152446150e1565b5060010190565b60408152600061525e6040830185614b12565b82810360208401526152708185614b12565b95945050505050565b60006020828403121561528b57600080fd5b81516108ae816144ea565b6000602082840312156152a857600080fd5b81516108ae81614c92565b8183823760009101908152919050565b60208082526028908201527f436f6e74726f6c6c61626c653a2043616c6c6572206973206e6f74206120636f604082015267373a3937b63632b960c11b606082015260800190565b81835281816020850137506000828201602090810191909152601f909101601f19169091010190565b60c08152600061534860c083018a8c61530b565b6001600160a01b03898116602085015263ffffffff891660408501526001600160401b03881660608501528616608084015282810360a084015261538d81858761530b565b9b9a5050505050505050505050565b601f8211156108f657600081815260208120601f850160051c810160208610156153c35750805b601f850160051c820191505b818110156135ca578281556001016153cf565b6001600160401b038311156153f9576153f9614729565b61540d836154078354615153565b8361539c565b6000601f84116001811461544157600085156154295750838201355b600019600387901b1c1916600186901b17835561127a565b600083815260209020601f19861690835b828110156154725786850135825560209485019460019092019101615452565b508682101561548f5760001960f88860031b161c19848701351681555b505060018560011b0183555050505050565b6001600160401b03828116828216039080821115615117576151176150e1565b81516001600160401b038111156154da576154da614729565b6154ee816154e88454615153565b8461539c565b602080601f831160018114615523576000841561550b5750858301515b600019600386901b1c1916600185901b1785556135ca565b600085815260208120601f198616915b8281101561555257888601518255948401946001909101908401615533565b50858210156155705787850151600019600388901b60f8161c191681555b5050505050600190811b01905550565b6001600160a01b0386811682528516602082015260a0604082018190526000906155ac90830186614b12565b82810360608401526155be8186614b12565b9050828103608084015261370c818561459b565b6000602082840312156155e457600080fd5b81516108ae81614544565b600060033d11156156085760046000803e5060005160e01c5b90565b600060443d10156156195790565b6040516003193d81016004833e81513d6001600160401b03816024840111818411171561564857505050505090565b82850191508151818111156156605750505050505090565b843d870101602082850101111561567a5750505050505090565b6156896020828601018761473f565b509095945050505050565b60208082526028908201527f455243313135353a204552433131353552656365697665722072656a656374656040820152676420746f6b656e7360c01b606082015260800190565b6080815260006156ef608083018761459b565b6001600160a01b039590951660208301525063ffffffff9290921660408301526001600160401b0316606090910152919050565b818103818111156107fa576107fa6150e1565b808201808211156107fa576107fa6150e1565b60ff60f81b8460f81b1681526000835161576a816001850160208801614577565b835190830190615781816001840160208801614577565b0160010195945050505050565b6001600160a01b03868116825285166020820152604081018490526060810183905260a0608082018190526000906157c89083018461459b565b97965050505050505056fec0ae3fe48f09fde4a60d1b2e3f2c5d1f8dd5922c3ab88ca76377c5fd10816e49a26469706673582212208d7dcedcda609d4090ab1a996375fe862fea4a97ca61a825fc1bab3997ede62464736f6c63430008110033",
  "devdoc": {
    "kind": "dev",
    "methods": {
      "allFusesBurned(bytes32,uint32)": {
        "params": {
          "fuseMask": "The fuses you want to check",
          "node": "Namehash of the name"
        },
        "returns": {
          "_0": "Boolean of whether or not all the selected fuses are burned"
        }
      },
      "approve(address,uint256)": {
        "params": {
          "to": "address to approve",
          "tokenId": "name to approve"
        }
      },
      "balanceOf(address,uint256)": {
        "details": "See {IERC1155-balanceOf}. Requirements: - `account` cannot be the zero address."
      },
      "balanceOfBatch(address[],uint256[])": {
        "details": "See {IERC1155-balanceOfBatch}. Requirements: - `accounts` and `ids` must have the same length."
      },
      "canExtendSubnames(bytes32,address)": {
        "params": {
          "addr": "which address to check permissions for",
          "node": "namehash of the name to check"
        },
        "returns": {
          "_0": "whether or not is owner/operator or approved"
        }
      },
      "canModifyName(bytes32,address)": {
        "params": {
          "addr": "which address to check permissions for",
          "node": "namehash of the name to check"
        },
        "returns": {
          "_0": "whether or not is owner or operator"
        }
      },
      "extendExpiry(bytes32,bytes32,uint64)": {
        "params": {
          "expiry": "When the name will expire in seconds since the Unix epoch",
          "labelhash": "Labelhash of the name, e.g. vitalik.xyz would be keccak256('vitalik')",
          "parentNode": "Parent namehash of the name e.g. vitalik.xyz would be namehash('xyz')"
        },
        "returns": {
          "_0": "New expiry"
        }
      },
      "getApproved(uint256)": {
        "params": {
          "id": "Namehash of the name"
        },
        "returns": {
          "operator": "Approved operator of a name"
        }
      },
      "getData(uint256)": {
        "params": {
          "id": "Namehash of the name"
        },
        "returns": {
          "expiry": "Expiry of the name",
          "fuses": "Fuses of the name",
          "owner": "Owner of the name"
        }
      },
      "isApprovedForAll(address,address)": {
        "details": "See {IERC1155-isApprovedForAll}."
      },
      "isWrapped(bytes32)": {
        "params": {
          "node": "Namehash of the name"
        },
        "returns": {
          "_0": "Boolean of whether or not the name is wrapped"
        }
      },
      "isWrapped(bytes32,bytes32)": {
        "params": {
          "labelhash": "Namehash of the name",
          "parentNode": "Namehash of the name"
        },
        "returns": {
          "_0": "Boolean of whether or not the name is wrapped"
        }
      },
      "owner()": {
        "details": "Returns the address of the current owner."
      },
      "ownerOf(uint256)": {
        "params": {
          "id": "Label as a string of the 0xe761520f35bc505d5d33776c0d0a0c388647f53898a9d57228b275d12a23afa7 domain to wrap"
        },
        "returns": {
          "owner": "The owner of the name"
        }
      },
      "recoverFunds(address,address,uint256)": {
        "details": "The contract is Ownable and only the owner can call the recover function.",
        "params": {
          "_amount": "The amount of tokens to recover.",
          "_to": "The address to send the tokens to.",
          "_token": "The address of the ERC20 token to recover"
        }
      },
      "registerAndWrapETH2LD(string,address,uint256,address,uint16)": {
        "details": "Registers a new 0xe761520f35bc505d5d33776c0d0a0c388647f53898a9d57228b275d12a23afa7 second-level domain and wraps it.      Only callable by authorised controllers.",
        "params": {
          "duration": "The duration, in seconds, to register the name for.",
          "label": "The label to register (Eg, 'foo' for 'foo0xe761520f35bc505d5d33776c0d0a0c388647f53898a9d57228b275d12a23afa7').",
          "ownerControlledFuses": "Initial owner-controlled fuses to set",
          "resolver": "The resolver address to set on the ENS registry (optional).",
          "wrappedOwner": "The owner of the wrapped name."
        },
        "returns": {
          "registrarExpiry": "The expiry date of the new name on the 0xe761520f35bc505d5d33776c0d0a0c388647f53898a9d57228b275d12a23afa7 registrar, in seconds since the Unix epoch."
        }
      },
      "renew(uint256,uint256)": {
        "details": "Only callable by authorised controllers.",
        "params": {
          "duration": "The number of seconds to renew the name for.",
          "tokenId": "The hash of the label to register (eg, `keccak256('foo')`, for 'foo0xe761520f35bc505d5d33776c0d0a0c388647f53898a9d57228b275d12a23afa7')."
        },
        "returns": {
          "expires": "The expiry date of the name on the 0xe761520f35bc505d5d33776c0d0a0c388647f53898a9d57228b275d12a23afa7 registrar, in seconds since the Unix epoch."
        }
      },
      "renounceOwnership()": {
        "details": "Leaves the contract without owner. It will not be possible to call `onlyOwner` functions anymore. Can only be called by the current owner. NOTE: Renouncing ownership will leave the contract without an owner, thereby removing any functionality that is only available to the owner."
      },
      "safeBatchTransferFrom(address,address,uint256[],uint256[],bytes)": {
        "details": "See {IERC1155-safeBatchTransferFrom}."
      },
      "safeTransferFrom(address,address,uint256,uint256,bytes)": {
        "details": "See {IERC1155-safeTransferFrom}."
      },
      "setApprovalForAll(address,bool)": {
        "details": "See {IERC1155-setApprovalForAll}."
      },
      "setChildFuses(bytes32,bytes32,uint32,uint64)": {
        "params": {
          "expiry": "When the name will expire in seconds since the Unix epoch",
          "fuses": "Fuses to burn",
          "labelhash": "Labelhash of the name, e.g. vitalik.xyz would be keccak256('vitalik')",
          "parentNode": "Parent namehash of the name e.g. vitalik.xyz would be namehash('xyz')"
        }
      },
      "setFuses(bytes32,uint16)": {
        "params": {
          "node": "Namehash of the name",
          "ownerControlledFuses": "Owner-controlled fuses to burn"
        },
        "returns": {
          "_0": "Old fuses"
        }
      },
      "setMetadataService(address)": {
        "params": {
          "_metadataService": "The new metadata service"
        }
      },
      "setRecord(bytes32,address,address,uint64)": {
        "params": {
          "node": "Namehash of the name to set a record for",
          "owner": "New owner in the registry",
          "resolver": "Resolver contract",
          "ttl": "Time to live in the registry"
        }
      },
      "setResolver(bytes32,address)": {
        "params": {
          "node": "namehash of the name",
          "resolver": "the resolver contract"
        }
      },
      "setSubnodeOwner(bytes32,string,address,uint32,uint64)": {
        "params": {
          "expiry": "When the name will expire in seconds since the Unix epoch",
          "fuses": "Initial fuses for the wrapped subdomain",
          "label": "Label of the subdomain as a string",
          "owner": "New owner in the wrapper",
          "parentNode": "Parent namehash of the subdomain"
        },
        "returns": {
          "node": "Namehash of the subdomain"
        }
      },
      "setSubnodeRecord(bytes32,string,address,address,uint64,uint32,uint64)": {
        "params": {
          "expiry": "When the name will expire in seconds since the Unix epoch",
          "fuses": "initial fuses for the wrapped subdomain",
          "label": "label of the subdomain as a string",
          "owner": "new owner in the wrapper",
          "parentNode": "parent namehash of the subdomain",
          "resolver": "resolver contract in the registry",
          "ttl": "ttl in the registry"
        },
        "returns": {
          "node": "Namehash of the subdomain"
        }
      },
      "setTTL(bytes32,uint64)": {
        "params": {
          "node": "Namehash of the name",
          "ttl": "TTL in the registry"
        }
      },
      "setUpgradeContract(address)": {
        "details": "The default value of upgradeContract is the 0 address. Use the 0 address at any time to make the contract not upgradable.",
        "params": {
          "_upgradeAddress": "address of an upgraded contract"
        }
      },
      "transferOwnership(address)": {
        "details": "Transfers ownership of the contract to a new account (`newOwner`). Can only be called by the current owner."
      },
      "unwrap(bytes32,bytes32,address)": {
        "details": "Can be called by the owner in the wrapper or an authorised caller in the wrapper",
        "params": {
          "controller": "Sets the owner in the registry to this address",
          "labelhash": "Labelhash of the name, e.g. vitalik.xyz would be keccak256('vitalik')",
          "parentNode": "Parent namehash of the name e.g. vitalik.xyz would be namehash('xyz')"
        }
      },
      "unwrapETH2LD(bytes32,address,address)": {
        "details": "Can be called by the owner in the wrapper or an authorised caller in the wrapper",
        "params": {
          "controller": "Sets the owner in the registry to this address",
          "labelhash": "Labelhash of the 0xe761520f35bc505d5d33776c0d0a0c388647f53898a9d57228b275d12a23afa7 domain",
          "registrant": "Sets the owner in the 0xe761520f35bc505d5d33776c0d0a0c388647f53898a9d57228b275d12a23afa7 registrar to this address"
        }
      },
      "upgrade(bytes,bytes)": {
        "details": "Can be called by the owner or an authorised caller",
        "params": {
          "extraData": "Extra data to pass to the upgrade contract",
          "name": "The name to upgrade, in DNS format"
        }
      },
      "uri(uint256)": {
        "params": {
          "tokenId": "The id of the token"
        },
        "returns": {
          "_0": "string uri of the metadata service"
        }
      },
      "wrap(bytes,address,address)": {
        "details": "Can be called by the owner in the registry or an authorised caller in the registry",
        "params": {
          "name": "The name to wrap, in DNS format",
          "resolver": "Resolver contract",
          "wrappedOwner": "Owner of the name in this contract"
        }
      },
      "wrapETH2LD(string,address,uint16,address)": {
        "details": "Can be called by the owner of the name on the 0xe761520f35bc505d5d33776c0d0a0c388647f53898a9d57228b275d12a23afa7 registrar or an authorised caller on the registrar",
        "params": {
          "label": "Label as a string of the 0xe761520f35bc505d5d33776c0d0a0c388647f53898a9d57228b275d12a23afa7 domain to wrap",
          "ownerControlledFuses": "Initial owner-controlled fuses to set",
          "resolver": "Resolver contract address",
          "wrappedOwner": "Owner of the name in this contract"
        }
      }
    },
    "version": 1
  },
  "userdoc": {
    "kind": "user",
    "methods": {
      "allFusesBurned(bytes32,uint32)": {
        "notice": "Checks all Fuses in the mask are burned for the node"
      },
      "approve(address,uint256)": {
        "notice": "Approves an address for a name"
      },
      "canExtendSubnames(bytes32,address)": {
        "notice": "Checks if owner/operator or approved by owner"
      },
      "canModifyName(bytes32,address)": {
        "notice": "Checks if owner or operator of the owner"
      },
      "extendExpiry(bytes32,bytes32,uint64)": {
        "notice": "Extends expiry for a name"
      },
      "getApproved(uint256)": {
        "notice": "Gets the owner of a name"
      },
      "getData(uint256)": {
        "notice": "Gets the data for a name"
      },
      "isWrapped(bytes32)": {
        "notice": "Checks if a name is wrapped"
      },
      "isWrapped(bytes32,bytes32)": {
        "notice": "Checks if a name is wrapped in a more gas efficient way"
      },
      "ownerOf(uint256)": {
        "notice": "Gets the owner of a name"
      },
      "recoverFunds(address,address,uint256)": {
        "notice": "Recover ERC20 tokens sent to the contract by mistake."
      },
      "renew(uint256,uint256)": {
        "notice": "Renews a 0xe761520f35bc505d5d33776c0d0a0c388647f53898a9d57228b275d12a23afa7 second-level domain."
      },
      "setChildFuses(bytes32,bytes32,uint32,uint64)": {
        "notice": "Sets fuses of a name that you own the parent of"
      },
      "setFuses(bytes32,uint16)": {
        "notice": "Sets fuses of a name"
      },
      "setMetadataService(address)": {
        "notice": "Set the metadata service. Only the owner can do this"
      },
      "setRecord(bytes32,address,address,uint64)": {
        "notice": "Sets records for the name in the ENS Registry"
      },
      "setResolver(bytes32,address)": {
        "notice": "Sets resolver contract in the registry"
      },
      "setSubnodeOwner(bytes32,string,address,uint32,uint64)": {
        "notice": "Sets the subdomain owner in the registry and then wraps the subdomain"
      },
      "setSubnodeRecord(bytes32,string,address,address,uint64,uint32,uint64)": {
        "notice": "Sets the subdomain owner in the registry with records and then wraps the subdomain"
      },
      "setTTL(bytes32,uint64)": {
        "notice": "Sets TTL in the registry"
      },
      "setUpgradeContract(address)": {
        "notice": "Set the address of the upgradeContract of the contract. only admin can do this"
      },
      "unwrap(bytes32,bytes32,address)": {
        "notice": "Unwraps a non 0xe761520f35bc505d5d33776c0d0a0c388647f53898a9d57228b275d12a23afa7 domain, of any kind. Could be a DNSSEC name vitalik.xyz or a subdomain"
      },
      "unwrapETH2LD(bytes32,address,address)": {
        "notice": "Unwraps a 0xe761520f35bc505d5d33776c0d0a0c388647f53898a9d57228b275d12a23afa7 domain. e.g. vitalik0xe761520f35bc505d5d33776c0d0a0c388647f53898a9d57228b275d12a23afa7"
      },
      "upgrade(bytes,bytes)": {
        "notice": "Upgrades a domain of any kind. Could be a 0xe761520f35bc505d5d33776c0d0a0c388647f53898a9d57228b275d12a23afa7 name vitalik0xe761520f35bc505d5d33776c0d0a0c388647f53898a9d57228b275d12a23afa7, a DNSSEC name vitalik.xyz, or a subdomain"
      },
      "uri(uint256)": {
        "notice": "Get the metadata uri"
      },
      "wrap(bytes,address,address)": {
        "notice": "Wraps a non 0xe761520f35bc505d5d33776c0d0a0c388647f53898a9d57228b275d12a23afa7 domain, of any kind. Could be a DNSSEC name vitalik.xyz or a subdomain"
      },
      "wrapETH2LD(string,address,uint16,address)": {
        "notice": "Wraps a 0xe761520f35bc505d5d33776c0d0a0c388647f53898a9d57228b275d12a23afa7 domain, creating a new token and sending the original ERC721 token to this contract"
      }
    },
    "version": 1
  },
  "storageLayout": {
    "storage": [
      {
        "astId": 444,
        "contract": "contracts/wrapper/NameWrapper.sol:NameWrapper",
        "label": "_owner",
        "offset": 0,
        "slot": "0",
        "type": "t_address"
      },
      {
        "astId": 18648,
        "contract": "contracts/wrapper/NameWrapper.sol:NameWrapper",
        "label": "_tokens",
        "offset": 0,
        "slot": "1",
        "type": "t_mapping(t_uint256,t_uint256)"
      },
      {
        "astId": 18654,
        "contract": "contracts/wrapper/NameWrapper.sol:NameWrapper",
        "label": "_operatorApprovals",
        "offset": 0,
        "slot": "2",
        "type": "t_mapping(t_address,t_mapping(t_address,t_bool))"
      },
      {
        "astId": 18658,
        "contract": "contracts/wrapper/NameWrapper.sol:NameWrapper",
        "label": "_tokenApprovals",
        "offset": 0,
        "slot": "3",
        "type": "t_mapping(t_uint256,t_address)"
      },
      {
        "astId": 18579,
        "contract": "contracts/wrapper/NameWrapper.sol:NameWrapper",
        "label": "controllers",
        "offset": 0,
        "slot": "4",
        "type": "t_mapping(t_address,t_bool)"
      },
      {
        "astId": 20120,
        "contract": "contracts/wrapper/NameWrapper.sol:NameWrapper",
        "label": "metadataService",
        "offset": 0,
        "slot": "5",
        "type": "t_contract(IMetadataService)19622"
      },
      {
        "astId": 20124,
        "contract": "contracts/wrapper/NameWrapper.sol:NameWrapper",
        "label": "names",
        "offset": 0,
        "slot": "6",
        "type": "t_mapping(t_bytes32,t_bytes_storage)"
      },
      {
        "astId": 20142,
        "contract": "contracts/wrapper/NameWrapper.sol:NameWrapper",
        "label": "upgradeContract",
        "offset": 0,
        "slot": "7",
        "type": "t_contract(INameWrapperUpgrade)20014"
      }
    ],
    "types": {
      "t_address": {
        "encoding": "inplace",
        "label": "address",
        "numberOfBytes": "20"
      },
      "t_bool": {
        "encoding": "inplace",
        "label": "bool",
        "numberOfBytes": "1"
      },
      "t_bytes32": {
        "encoding": "inplace",
        "label": "bytes32",
        "numberOfBytes": "32"
      },
      "t_bytes_storage": {
        "encoding": "bytes",
        "label": "bytes",
        "numberOfBytes": "32"
      },
      "t_contract(IMetadataService)19622": {
        "encoding": "inplace",
        "label": "contract IMetadataService",
        "numberOfBytes": "20"
      },
      "t_contract(INameWrapperUpgrade)20014": {
        "encoding": "inplace",
        "label": "contract INameWrapperUpgrade",
        "numberOfBytes": "20"
      },
      "t_mapping(t_address,t_bool)": {
        "encoding": "mapping",
        "key": "t_address",
        "label": "mapping(address => bool)",
        "numberOfBytes": "32",
        "value": "t_bool"
      },
      "t_mapping(t_address,t_mapping(t_address,t_bool))": {
        "encoding": "mapping",
        "key": "t_address",
        "label": "mapping(address => mapping(address => bool))",
        "numberOfBytes": "32",
        "value": "t_mapping(t_address,t_bool)"
      },
      "t_mapping(t_bytes32,t_bytes_storage)": {
        "encoding": "mapping",
        "key": "t_bytes32",
        "label": "mapping(bytes32 => bytes)",
        "numberOfBytes": "32",
        "value": "t_bytes_storage"
      },
      "t_mapping(t_uint256,t_address)": {
        "encoding": "mapping",
        "key": "t_uint256",
        "label": "mapping(uint256 => address)",
        "numberOfBytes": "32",
        "value": "t_address"
      },
      "t_mapping(t_uint256,t_uint256)": {
        "encoding": "mapping",
        "key": "t_uint256",
        "label": "mapping(uint256 => uint256)",
        "numberOfBytes": "32",
        "value": "t_uint256"
      },
      "t_uint256": {
        "encoding": "inplace",
        "label": "uint256",
        "numberOfBytes": "32"
      }
    }
  }
}