{
  "address": "0x82FB8B5a7B5051cB3fa32Ec4E7035FBE81122d10",
  "abi": [
    {
      "inputs": [
        {
          "internalType": "contract ENS",
          "name": "_ens",
          "type": "address"
        },
        {
          "internalType": "contract IBaseRegistrar",
          "name": "_registrar",
          "type": "address"
        }
      ],
      "stateMutability": "nonpayable",
      "type": "constructor"
    },
    {
      "anonymous": false,
      "inputs": [
        {
          "indexed": true,
          "internalType": "address",
          "name": "previousOwner",
          "type": "address"
        },
        {
          "indexed": true,
          "internalType": "address",
          "name": "newOwner",
          "type": "address"
        }
      ],
      "name": "OwnershipTransferred",
      "type": "event"
    },
    {
      "inputs": [
        {
          "internalType": "address",
          "name": "",
          "type": "address"
        }
      ],
      "name": "approvedWrapper",
      "outputs": [
        {
          "internalType": "bool",
          "name": "",
          "type": "bool"
        }
      ],
      "stateMutability": "view",
      "type": "function"
    },
    {
      "inputs": [],
      "name": "ens",
      "outputs": [
        {
          "internalType": "contract ENS",
          "name": "",
          "type": "address"
        }
      ],
      "stateMutability": "view",
      "type": "function"
    },
    {
      "inputs": [],
      "name": "owner",
      "outputs": [
        {
          "internalType": "address",
          "name": "",
          "type": "address"
        }
      ],
      "stateMutability": "view",
      "type": "function"
    },
    {
      "inputs": [],
      "name": "registrar",
      "outputs": [
        {
          "internalType": "contract IBaseRegistrar",
          "name": "",
          "type": "address"
        }
      ],
      "stateMutability": "view",
      "type": "function"
    },
    {
      "inputs": [],
      "name": "renounceOwnership",
      "outputs": [],
      "stateMutability": "nonpayable",
      "type": "function"
    },
    {
      "inputs": [
        {
          "internalType": "bytes32",
          "name": "parentNode",
          "type": "bytes32"
        },
        {
          "internalType": "string",
          "name": "label",
          "type": "string"
        },
        {
          "internalType": "address",
          "name": "newOwner",
          "type": "address"
        },
        {
          "internalType": "address",
          "name": "resolver",
          "type": "address"
        },
        {
          "internalType": "uint64",
          "name": "ttl",
          "type": "uint64"
        },
        {
          "internalType": "uint32",
          "name": "fuses",
          "type": "uint32"
        },
        {
          "internalType": "uint64",
          "name": "expiry",
          "type": "uint64"
        }
      ],
      "name": "setSubnodeRecord",
      "outputs": [],
      "stateMutability": "nonpayable",
      "type": "function"
    },
    {
      "inputs": [
        {
          "internalType": "address",
          "name": "wrapper",
          "type": "address"
        },
        {
          "internalType": "bool",
          "name": "approved",
          "type": "bool"
        }
      ],
      "name": "setWrapperApproval",
      "outputs": [],
      "stateMutability": "nonpayable",
      "type": "function"
    },
    {
      "inputs": [
        {
          "internalType": "address",
          "name": "newOwner",
          "type": "address"
        }
      ],
      "name": "transferOwnership",
      "outputs": [],
      "stateMutability": "nonpayable",
      "type": "function"
    },
    {
      "inputs": [
        {
          "internalType": "string",
          "name": "label",
          "type": "string"
        },
        {
          "internalType": "address",
          "name": "wrappedOwner",
          "type": "address"
        },
        {
          "internalType": "uint32",
          "name": "fuses",
          "type": "uint32"
        },
        {
          "internalType": "uint64",
          "name": "expiry",
          "type": "uint64"
        },
        {
          "internalType": "address",
          "name": "resolver",
          "type": "address"
        }
      ],
      "name": "wrapETH2LD",
      "outputs": [],
      "stateMutability": "nonpayable",
      "type": "function"
    },
    {
      "inputs": [
        {
          "internalType": "bytes",
          "name": "name",
          "type": "bytes"
        },
        {
          "internalType": "address",
          "name": "wrappedOwner",
          "type": "address"
        },
        {
          "internalType": "uint32",
          "name": "fuses",
          "type": "uint32"
        },
        {
          "internalType": "uint64",
          "name": "expiry",
          "type": "uint64"
        },
        {
          "internalType": "address",
          "name": "approved",
          "type": "address"
        },
        {
          "internalType": "bytes",
          "name": "extraData",
          "type": "bytes"
        }
      ],
      "name": "wrapFromUpgrade",
      "outputs": [],
      "stateMutability": "nonpayable",
      "type": "function"
    }
  ],
  "transactionHash": "0xe1a0e7eeec53519472ec746fa9f7c7040b9c59980533ec20467fb598b52e6f53",
  "args": [
    "0x738314DBb3ca6486b62ab4ddfd76585A60C4682C",
    "0x09ee4824595d61F5B8ce797055CB4D2830ae066C"
  ],
  "numDeployments": 1,
  "solcInputHash": "2c0eb307c5c04aca158dc0df5329149a",
  "bytecode": "0x60c060405234801561001057600080fd5b506040516110f13803806110f183398101604081905261002f9161009f565b600080546001600160a01b031916339081178255604051909182917f8be0079c531659141344cd1fd0a4f28419497f9722a3daafe3b4186f6b6457e0908290a3506001600160a01b039182166080521660a0526100d9565b6001600160a01b038116811461009c57600080fd5b50565b600080604083850312156100b257600080fd5b82516100bd81610087565b60208401519092506100ce81610087565b809150509250929050565b60805160a051610fc361012e6000396000818160d0015281816108930152818161096e01528181610a3a0152610ac201526000818161011401528181610503015281816105de01526106aa0152610fc36000f3fe608060405234801561001057600080fd5b506004361061009e5760003560e01c80638da5cb5b116100665780638da5cb5b1461013e5780639198c2761461014f578063c6d6d7c114610162578063f2fde38b14610195578063f9547a9e146101a857600080fd5b80630cc17365146100a357806324c1af44146100b85780632b20e397146100cb5780633f15457f1461010f578063715018a614610136575b600080fd5b6100b66100b1366004610b81565b6101bb565b005b6100b66100c6366004610bfc565b610219565b6100f27f000000000000000000000000000000000000000000000000000000000000000081565b6040516001600160a01b0390911681526020015b60405180910390f35b6100f27f000000000000000000000000000000000000000000000000000000000000000081565b6100b6610243565b6000546001600160a01b03166100f2565b6100b661015d366004610d53565b6102b7565b610185610170366004610e0e565b60016020526000908152604090205460ff1681565b6040519015158152602001610106565b6100b66101a3366004610e0e565b6103a7565b6100b66101b6366004610e32565b610491565b6000546001600160a01b031633146101ee5760405162461bcd60e51b81526004016101e590610ebc565b60405180910390fd5b6001600160a01b03919091166000908152600160205260409020805460ff1916911515919091179055565b600061022c8888805190602001206104bb565b90506102398187336104ea565b5050505050505050565b6000546001600160a01b0316331461026d5760405162461bcd60e51b81526004016101e590610ebc565b600080546040516001600160a01b03909116907f8be0079c531659141344cd1fd0a4f28419497f9722a3daafe3b4186f6b6457e0908390a3600080546001600160a01b0319169055565b6000806102fe60008b8b8080601f01602080910402602001604051908101604052809392919081815260200183838082843760009201919091525092939250506107029050565b915091506000610347828c8c8080601f01602080910402602001604051908101604052809392919081815260200183838082843760009201919091525092939250506107b99050565b9050600061035582856104bb565b90507f3f51c01b70f6021b59f2e4d1c0d3a2e0722a6dd3c54773589c883a02ef7e91b7820161038e57610389848b33610878565b610399565b610399818b336104ea565b505050505050505050505050565b6000546001600160a01b031633146103d15760405162461bcd60e51b81526004016101e590610ebc565b6001600160a01b0381166104365760405162461bcd60e51b815260206004820152602660248201527f4f776e61626c653a206e6577206f776e657220697320746865207a65726f206160448201526564647265737360d01b60648201526084016101e5565b600080546040516001600160a01b03808516939216917f8be0079c531659141344cd1fd0a4f28419497f9722a3daafe3b4186f6b6457e091a3600080546001600160a01b0319166001600160a01b0392909216919091179055565b6104b386866040516104a4929190610ef1565b60405180910390208533610878565b505050505050565b604080516020808201859052818301849052825180830384018152606090920190925280519101205b92915050565b6040516302571be360e01b8152600481018490526000907f00000000000000000000000000000000000000000000000000000000000000006001600160a01b0316906302571be390602401602060405180830381865afa158015610552573d6000803e3d6000fd5b505050506040513d601f19601f820116820180604052508101906105769190610f01565b6001600160a01b03831660009081526001602052604090205490915060ff1680156105b25750816001600160a01b0316816001600160a01b0316145b8015610649575060405163e985e9c560e01b81526001600160a01b0382811660048301523060248301527f0000000000000000000000000000000000000000000000000000000000000000169063e985e9c590604401602060405180830381865afa158015610625573d6000803e3d6000fd5b505050506040513d601f19601f820116820180604052508101906106499190610f1e565b6106845760405162461bcd60e51b815260206004820152600c60248201526b155b985d5d1a1bdc9a5cd95960a21b60448201526064016101e5565b604051635b0fc9c360e01b8152600481018590526001600160a01b0384811660248301527f00000000000000000000000000000000000000000000000000000000000000001690635b0fc9c390604401600060405180830381600087803b1580156106ee57600080fd5b505af1158015610239573d6000803e3d6000fd5b600080835183106107555760405162461bcd60e51b815260206004820152601e60248201527f726561644c6162656c3a20496e646578206f7574206f6620626f756e6473000060448201526064016101e5565b600084848151811061076957610769610f3b565b016020015160f81c905080156107955761078e85610788866001610f67565b83610b27565b925061079a565b600092505b6107a48185610f67565b6107af906001610f67565b9150509250929050565b60008060006107c88585610702565b90925090508161083a57600185516107e09190610f7a565b841461082e5760405162461bcd60e51b815260206004820152601d60248201527f6e616d65686173683a204a756e6b20617420656e64206f66206e616d6500000060448201526064016101e5565b50600091506104e49050565b61084485826107b9565b6040805160208101929092528101839052606001604051602081830303815290604052805190602001209250505092915050565b6040516331a9108f60e11b81526004810184905283906000907f00000000000000000000000000000000000000000000000000000000000000006001600160a01b031690636352211e90602401602060405180830381865afa1580156108e2573d6000803e3d6000fd5b505050506040513d601f19601f820116820180604052508101906109069190610f01565b6001600160a01b03841660009081526001602052604090205490915060ff1680156109425750806001600160a01b0316836001600160a01b0316145b80156109d9575060405163e985e9c560e01b81526001600160a01b0382811660048301523060248301527f0000000000000000000000000000000000000000000000000000000000000000169063e985e9c590604401602060405180830381865afa1580156109b5573d6000803e3d6000fd5b505050506040513d601f19601f820116820180604052508101906109d99190610f1e565b610a145760405162461bcd60e51b815260206004820152600c60248201526b155b985d5d1a1bdc9a5cd95960a21b60448201526064016101e5565b604051630a3b53db60e21b8152600481018390526001600160a01b0385811660248301527f000000000000000000000000000000000000000000000000000000000000000016906328ed4f6c90604401600060405180830381600087803b158015610a7e57600080fd5b505af1158015610a92573d6000803e3d6000fd5b50506040516323b872dd60e01b81526001600160a01b0384811660048301528781166024830152604482018690527f00000000000000000000000000000000000000000000000000000000000000001692506323b872dd9150606401600060405180830381600087803b158015610b0857600080fd5b505af1158015610b1c573d6000803e3d6000fd5b505050505050505050565b8251600090610b368385610f67565b1115610b4157600080fd5b5091016020012090565b6001600160a01b0381168114610b6057600080fd5b50565b8035610b6e81610b4b565b919050565b8015158114610b6057600080fd5b60008060408385031215610b9457600080fd5b8235610b9f81610b4b565b91506020830135610baf81610b73565b809150509250929050565b634e487b7160e01b600052604160045260246000fd5b803567ffffffffffffffff81168114610b6e57600080fd5b803563ffffffff81168114610b6e57600080fd5b600080600080600080600060e0888a031215610c1757600080fd5b87359650602088013567ffffffffffffffff80821115610c3657600080fd5b818a0191508a601f830112610c4a57600080fd5b813581811115610c5c57610c5c610bba565b604051601f8201601f19908116603f01168101908382118183101715610c8457610c84610bba565b816040528281528d6020848701011115610c9d57600080fd5b82602086016020830137600060208483010152809a505050505050610cc460408901610b63565b9450610cd260608901610b63565b9350610ce060808901610bd0565b9250610cee60a08901610be8565b9150610cfc60c08901610bd0565b905092959891949750929550565b60008083601f840112610d1c57600080fd5b50813567ffffffffffffffff811115610d3457600080fd5b602083019150836020828501011115610d4c57600080fd5b9250929050565b60008060008060008060008060c0898b031215610d6f57600080fd5b883567ffffffffffffffff80821115610d8757600080fd5b610d938c838d01610d0a565b909a50985060208b01359150610da882610b4b565b819750610db760408c01610be8565b9650610dc560608c01610bd0565b955060808b01359150610dd782610b4b565b90935060a08a01359080821115610ded57600080fd5b50610dfa8b828c01610d0a565b999c989b5096995094979396929594505050565b600060208284031215610e2057600080fd5b8135610e2b81610b4b565b9392505050565b60008060008060008060a08789031215610e4b57600080fd5b863567ffffffffffffffff811115610e6257600080fd5b610e6e89828a01610d0a565b9097509550506020870135610e8281610b4b565b9350610e9060408801610be8565b9250610e9e60608801610bd0565b91506080870135610eae81610b4b565b809150509295509295509295565b6020808252818101527f4f776e61626c653a2063616c6c6572206973206e6f7420746865206f776e6572604082015260600190565b8183823760009101908152919050565b600060208284031215610f1357600080fd5b8151610e2b81610b4b565b600060208284031215610f3057600080fd5b8151610e2b81610b73565b634e487b7160e01b600052603260045260246000fd5b634e487b7160e01b600052601160045260246000fd5b808201808211156104e4576104e4610f51565b818103818111156104e4576104e4610f5156fea264697066735822122032a8599245732d4778620d38c45113e35ae0fcb828ced824b9b13133b1da6da764736f6c63430008110033",
  "devdoc": {
    "kind": "dev",
    "methods": {
      "owner()": {
        "details": "Returns the address of the current owner."
      },
      "renounceOwnership()": {
        "details": "Leaves the contract without owner. It will not be possible to call `onlyOwner` functions anymore. Can only be called by the current owner. NOTE: Renouncing ownership will leave the contract without an owner, thereby removing any functionality that is only available to the owner."
      },
      "transferOwnership(address)": {
        "details": "Transfers ownership of the contract to a new account (`newOwner`). Can only be called by the current owner."
      }
    },
    "version": 1
  },
  "userdoc": {
    "kind": "user",
    "methods": {},
    "version": 1
  },
  "storageLayout": {
    "storage": [
      {
        "astId": 444,
        "contract": "contracts/wrapper/mocks/TestUnwrap.sol:TestUnwrap",
        "label": "_owner",
        "offset": 0,
        "slot": "0",
        "type": "t_address"
      },
      {
        "astId": 23172,
        "contract": "contracts/wrapper/mocks/TestUnwrap.sol:TestUnwrap",
        "label": "approvedWrapper",
        "offset": 0,
        "slot": "1",
        "type": "t_mapping(t_address,t_bool)"
      }
    ],
    "types": {
      "t_address": {
        "encoding": "inplace",
        "label": "address",
        "numberOfBytes": "20"
      },
      "t_bool": {
        "encoding": "inplace",
        "label": "bool",
        "numberOfBytes": "1"
      },
      "t_mapping(t_address,t_bool)": {
        "encoding": "mapping",
        "key": "t_address",
        "label": "mapping(address => bool)",
        "numberOfBytes": "32",
        "value": "t_bool"
      }
    }
  }
}