{
  "address": "0x848a436D09278988484F7682929b773615F49e9F",
  "abi": [
    {
      "inputs": [
        {
          "internalType": "address",
          "name": "_registry",
          "type": "address"
        },
        {
          "internalType": "string[]",
          "name": "_urls",
          "type": "string[]"
        }
      ],
      "stateMutability": "nonpayable",
      "type": "constructor"
    },
    {
      "inputs": [
        {
          "internalType": "address",
          "name": "sender",
          "type": "address"
        },
        {
          "internalType": "string[]",
          "name": "urls",
          "type": "string[]"
        },
        {
          "internalType": "bytes",
          "name": "callData",
          "type": "bytes"
        },
        {
          "internalType": "bytes4",
          "name": "callbackFunction",
          "type": "bytes4"
        },
        {
          "internalType": "bytes",
          "name": "extraData",
          "type": "bytes"
        }
      ],
      "name": "OffchainLookup",
      "type": "error"
    },
    {
      "anonymous": false,
      "inputs": [
        {
          "indexed": true,
          "internalType": "address",
          "name": "previousOwner",
          "type": "address"
        },
        {
          "indexed": true,
          "internalType": "address",
          "name": "newOwner",
          "type": "address"
        }
      ],
      "name": "OwnershipTransferred",
      "type": "event"
    },
    {
      "inputs": [
        {
          "internalType": "bytes",
          "name": "name",
          "type": "bytes"
        },
        {
          "internalType": "bytes",
          "name": "data",
          "type": "bytes"
        },
        {
          "internalType": "string[]",
          "name": "gateways",
          "type": "string[]"
        },
        {
          "internalType": "bytes4",
          "name": "callbackFunction",
          "type": "bytes4"
        },
        {
          "internalType": "bytes",
          "name": "metaData",
          "type": "bytes"
        }
      ],
      "name": "_resolveSingle",
      "outputs": [
        {
          "internalType": "bytes",
          "name": "",
          "type": "bytes"
        },
        {
          "internalType": "address",
          "name": "",
          "type": "address"
        }
      ],
      "stateMutability": "view",
      "type": "function"
    },
    {
      "inputs": [
        {
          "internalType": "uint256",
          "name": "",
          "type": "uint256"
        }
      ],
      "name": "batchGatewayURLs",
      "outputs": [
        {
          "internalType": "string",
          "name": "",
          "type": "string"
        }
      ],
      "stateMutability": "view",
      "type": "function"
    },
    {
      "inputs": [
        {
          "internalType": "bytes",
          "name": "name",
          "type": "bytes"
        }
      ],
      "name": "findResolver",
      "outputs": [
        {
          "internalType": "contract Resolver",
          "name": "",
          "type": "address"
        },
        {
          "internalType": "bytes32",
          "name": "",
          "type": "bytes32"
        },
        {
          "internalType": "uint256",
          "name": "",
          "type": "uint256"
        }
      ],
      "stateMutability": "view",
      "type": "function"
    },
    {
      "inputs": [],
      "name": "owner",
      "outputs": [
        {
          "internalType": "address",
          "name": "",
          "type": "address"
        }
      ],
      "stateMutability": "view",
      "type": "function"
    },
    {
      "inputs": [],
      "name": "registry",
      "outputs": [
        {
          "internalType": "contract ENS",
          "name": "",
          "type": "address"
        }
      ],
      "stateMutability": "view",
      "type": "function"
    },
    {
      "inputs": [],
      "name": "renounceOwnership",
      "outputs": [],
      "stateMutability": "nonpayable",
      "type": "function"
    },
    {
      "inputs": [
        {
          "internalType": "bytes",
          "name": "name",
          "type": "bytes"
        },
        {
          "internalType": "bytes",
          "name": "data",
          "type": "bytes"
        },
        {
          "internalType": "string[]",
          "name": "gateways",
          "type": "string[]"
        }
      ],
      "name": "resolve",
      "outputs": [
        {
          "internalType": "bytes",
          "name": "",
          "type": "bytes"
        },
        {
          "internalType": "address",
          "name": "",
          "type": "address"
        }
      ],
      "stateMutability": "view",
      "type": "function"
    },
    {
      "inputs": [
        {
          "internalType": "bytes",
          "name": "name",
          "type": "bytes"
        },
        {
          "internalType": "bytes[]",
          "name": "data",
          "type": "bytes[]"
        }
      ],
      "name": "resolve",
      "outputs": [
        {
          "internalType": "bytes[]",
          "name": "",
          "type": "bytes[]"
        },
        {
          "internalType": "address",
          "name": "",
          "type": "address"
        }
      ],
      "stateMutability": "view",
      "type": "function"
    },
    {
      "inputs": [
        {
          "internalType": "bytes",
          "name": "name",
          "type": "bytes"
        },
        {
          "internalType": "bytes[]",
          "name": "data",
          "type": "bytes[]"
        },
        {
          "internalType": "string[]",
          "name": "gateways",
          "type": "string[]"
        }
      ],
      "name": "resolve",
      "outputs": [
        {
          "internalType": "bytes[]",
          "name": "",
          "type": "bytes[]"
        },
        {
          "internalType": "address",
          "name": "",
          "type": "address"
        }
      ],
      "stateMutability": "view",
      "type": "function"
    },
    {
      "inputs": [
        {
          "internalType": "bytes",
          "name": "name",
          "type": "bytes"
        },
        {
          "internalType": "bytes",
          "name": "data",
          "type": "bytes"
        }
      ],
      "name": "resolve",
      "outputs": [
        {
          "internalType": "bytes",
          "name": "",
          "type": "bytes"
        },
        {
          "internalType": "address",
          "name": "",
          "type": "address"
        }
      ],
      "stateMutability": "view",
      "type": "function"
    },
    {
      "inputs": [
        {
          "internalType": "bytes",
          "name": "response",
          "type": "bytes"
        },
        {
          "internalType": "bytes",
          "name": "extraData",
          "type": "bytes"
        }
      ],
      "name": "resolveCallback",
      "outputs": [
        {
          "internalType": "bytes[]",
          "name": "",
          "type": "bytes[]"
        },
        {
          "internalType": "address",
          "name": "",
          "type": "address"
        }
      ],
      "stateMutability": "view",
      "type": "function"
    },
    {
      "inputs": [
        {
          "internalType": "bytes",
          "name": "response",
          "type": "bytes"
        },
        {
          "internalType": "bytes",
          "name": "extraData",
          "type": "bytes"
        }
      ],
      "name": "resolveSingleCallback",
      "outputs": [
        {
          "internalType": "bytes",
          "name": "",
          "type": "bytes"
        },
        {
          "internalType": "address",
          "name": "",
          "type": "address"
        }
      ],
      "stateMutability": "view",
      "type": "function"
    },
    {
      "inputs": [
        {
          "internalType": "bytes",
          "name": "reverseName",
          "type": "bytes"
        },
        {
          "internalType": "string[]",
          "name": "gateways",
          "type": "string[]"
        }
      ],
      "name": "reverse",
      "outputs": [
        {
          "internalType": "string",
          "name": "",
          "type": "string"
        },
        {
          "internalType": "address",
          "name": "",
          "type": "address"
        },
        {
          "internalType": "address",
          "name": "",
          "type": "address"
        },
        {
          "internalType": "address",
          "name": "",
          "type": "address"
        }
      ],
      "stateMutability": "view",
      "type": "function"
    },
    {
      "inputs": [
        {
          "internalType": "bytes",
          "name": "reverseName",
          "type": "bytes"
        }
      ],
      "name": "reverse",
      "outputs": [
        {
          "internalType": "string",
          "name": "",
          "type": "string"
        },
        {
          "internalType": "address",
          "name": "",
          "type": "address"
        },
        {
          "internalType": "address",
          "name": "",
          "type": "address"
        },
        {
          "internalType": "address",
          "name": "",
          "type": "address"
        }
      ],
      "stateMutability": "view",
      "type": "function"
    },
    {
      "inputs": [
        {
          "internalType": "bytes",
          "name": "response",
          "type": "bytes"
        },
        {
          "internalType": "bytes",
          "name": "extraData",
          "type": "bytes"
        }
      ],
      "name": "reverseCallback",
      "outputs": [
        {
          "internalType": "string",
          "name": "",
          "type": "string"
        },
        {
          "internalType": "address",
          "name": "",
          "type": "address"
        },
        {
          "internalType": "address",
          "name": "",
          "type": "address"
        },
        {
          "internalType": "address",
          "name": "",
          "type": "address"
        }
      ],
      "stateMutability": "view",
      "type": "function"
    },
    {
      "inputs": [
        {
          "internalType": "string[]",
          "name": "_urls",
          "type": "string[]"
        }
      ],
      "name": "setGatewayURLs",
      "outputs": [],
      "stateMutability": "nonpayable",
      "type": "function"
    },
    {
      "inputs": [
        {
          "internalType": "bytes4",
          "name": "interfaceId",
          "type": "bytes4"
        }
      ],
      "name": "supportsInterface",
      "outputs": [
        {
          "internalType": "bool",
          "name": "",
          "type": "bool"
        }
      ],
      "stateMutability": "view",
      "type": "function"
    },
    {
      "inputs": [
        {
          "internalType": "address",
          "name": "newOwner",
          "type": "address"
        }
      ],
      "name": "transferOwnership",
      "outputs": [],
      "stateMutability": "nonpayable",
      "type": "function"
    }
  ],
  "transactionHash": "0xc3ad72e402370240d98a55d125cb70689d5be56bb363d9b36453f7c1544cd950",
  "args": [
    "0x738314DBb3ca6486b62ab4ddfd76585A60C4682C",
    [
      "https://universal-offchain-unwrapper.mns-cf.workers.dev/"
    ]
  ],
  "numDeployments": 1,
  "solcInputHash": "2c0eb307c5c04aca158dc0df5329149a",
  "bytecode": "0x60a06040523480156200001157600080fd5b5060405162003790380380620037908339810160408190526200003491620001c0565b600080546001600160a01b031916339081178255604051909182917f8be0079c531659141344cd1fd0a4f28419497f9722a3daafe3b4186f6b6457e0908290a3506001600160a01b038216608052805162000097906001906020840190620000a0565b50505062000482565b828054828255906000526020600020908101928215620000eb579160200282015b82811115620000eb5782518290620000da9082620003b6565b5091602001919060010190620000c1565b50620000f9929150620000fd565b5090565b80821115620000f95760006200011482826200011e565b50600101620000fd565b5080546200012c9062000327565b6000825580601f106200013d575050565b601f0160209004906000526020600020908101906200015d919062000160565b50565b5b80821115620000f9576000815560010162000161565b634e487b7160e01b600052604160045260246000fd5b604051601f8201601f191681016001600160401b0381118282101715620001b857620001b862000177565b604052919050565b6000806040808486031215620001d557600080fd5b83516001600160a01b0381168114620001ed57600080fd5b602085810151919450906001600160401b03808211156200020d57600080fd5b8187019150601f88818401126200022357600080fd5b82518281111562000238576200023862000177565b8060051b620002498682016200018d565b918252848101860191868101908c8411156200026457600080fd5b87870192505b838310156200031457825186811115620002845760008081fd5b8701603f81018e13620002975760008081fd5b8881015187811115620002ae57620002ae62000177565b620002c1818801601f19168b016200018d565b8181528f8c838501011115620002d75760008081fd5b60005b82811015620002f7578381018d01518282018d01528b01620002da565b5060009181018b019190915283525091870191908701906200026a565b8099505050505050505050509250929050565b600181811c908216806200033c57607f821691505b6020821081036200035d57634e487b7160e01b600052602260045260246000fd5b50919050565b601f821115620003b157600081815260208120601f850160051c810160208610156200038c5750805b601f850160051c820191505b81811015620003ad5782815560010162000398565b5050505b505050565b81516001600160401b03811115620003d257620003d262000177565b620003ea81620003e3845462000327565b8462000363565b602080601f831160018114620004225760008415620004095750858301515b600019600386901b1c1916600185901b178555620003ad565b600085815260208120601f198616915b82811015620004535788860151825594840194600190910190840162000432565b5085821015620004725787850151600019600388901b60f8161c191681555b5050505050600190811b01905550565b6080516132eb620004a5600039600081816101ca015261137201526132eb6000f3fe608060405234801561001057600080fd5b50600436106101165760003560e01c80638e5ea8df116100a2578063b241d0d311610071578063b241d0d3146102a6578063b4a85801146102b9578063e0a85412146102cc578063ec11c823146102df578063f2fde38b146102f257600080fd5b80638e5ea8df146102285780639061b9231461023b578063a1cbcbaf1461024e578063a6b164191461028657600080fd5b8063715018a6116100e9578063715018a6146101a857806376286c00146101b25780637b103999146101c55780638da5cb5b146102045780638e25a0f31461021557600080fd5b806301ffc9a71461011b5780630667cfea14610143578063206c74c9146101645780636dc4fb7314610185575b600080fd5b61012e6101293660046120ae565b610305565b60405190151581526020015b60405180910390f35b6101566101513660046122cf565b61033c565b60405161013a9291906123ac565b610177610172366004612455565b610371565b60405161013a9291906124bd565b610198610193366004612532565b61045e565b60405161013a949392919061259d565b6101b061052b565b005b6101776101c03660046125d9565b6105a8565b6101ec7f000000000000000000000000000000000000000000000000000000000000000081565b6040516001600160a01b03909116815260200161013a565b6000546001600160a01b03166101ec565b610156610223366004612637565b6105d0565b6101b06102363660046126fc565b610666565b610156610249366004612738565b6106a7565b61026161025c366004612796565b6107a0565b604080516001600160a01b03909416845260208401929092529082015260600161013a565b6102996102943660046127d7565b6107c6565b60405161013a91906127f0565b6101986102b4366004612803565b610872565b6101776102c7366004612532565b61094a565b6101566102da366004612532565b610975565b6101986102ed366004612796565b6109c0565b6101b0610300366004612876565b610ab5565b60006001600160e01b03198216639061b92360e01b148061033657506301ffc9a760e01b6001600160e01b03198316145b92915050565b606060006103648686868663e0a8541260e01b604051806020016040528060008152506105d0565b9150915094509492505050565b606060006104528585856001805480602002602001604051908101604052809291908181526020016000905b828210156104495783829060005260206000200180546103bc90612893565b80601f01602080910402602001604051908101604052809291908181526020018280546103e890612893565b80156104355780601f1061040a57610100808354040283529160200191610435565b820191906000526020600020905b81548152906001019060200180831161041857829003601f168201915b50505050508152602001906001019061039d565b505050506105a8565b91509150935093915050565b6060600080808080808061047c8c8c8c8c636dc4fb7360e01b610b9f565b93509350935093506000815111156104ee57600080828060200190518101906104a59190612912565b915091506000866000815181106104be576104be612963565b60200260200101518060200190518101906104d99190612979565b929a5091985096509294506105209350505050565b6105138460008151811061050457610504612963565b60200260200101518484610f23565b9750975097509750505050505b945094509450949050565b6000546001600160a01b0316331461055e5760405162461bcd60e51b815260040161055590612996565b60405180910390fd5b600080546040516001600160a01b03909116907f8be0079c531659141344cd1fd0a4f28419497f9722a3daafe3b4186f6b6457e0908390a3600080546001600160a01b0319169055565b606060006103648686868663b4a8580160e01b6040518060200160405280600081525061106b565b6040805160018082528183019092526060916000918291816020015b60608152602001906001900390816105ec579050509050868160008151811061061757610617612963565b60200260200101819052506000806106338b8b858b8b8b61106b565b915091508160008151811061064a5761064a612963565b602002602001015181945094505050505b965096945050505050565b6000546001600160a01b031633146106905760405162461bcd60e51b815260040161055590612996565b80516106a3906001906020840190611fd3565b5050565b606060006104528585856001805480602002602001604051908101604052809291908181526020016000905b8282101561077f5783829060005260206000200180546106f290612893565b80601f016020809104026020016040519081016040528092919081815260200182805461071e90612893565b801561076b5780601f106107405761010080835404028352916020019161076b565b820191906000526020600020905b81548152906001019060200180831161074e57829003601f168201915b5050505050815260200190600101906106d3565b5050505063e0a8541260e01b604051806020016040528060008152506105d0565b6000806000806000806107b588886000611184565b919750955093505050509250925092565b600181815481106107d657600080fd5b9060005260206000200160009150905080546107f190612893565b80601f016020809104026020016040519081016040528092919081815260200182805461081d90612893565b801561086a5780601f1061083f5761010080835404028352916020019161086a565b820191906000526020600020905b81548152906001019060200180831161084d57829003601f168201915b505050505081565b60606000806000806108be600089898080601f01602080910402602001604051908101604052809392919081815260200183838082843760009201919091525092939250506114199050565b6040516024016108d091815260200190565b60408051601f19818403018152918152602080830180516001600160e01b031663691f343160e01b179052815190810190915260008082529192508190610927908b908b9086908c90636dc4fb7360e01b906105d0565b9150915061093682828a610f23565b965096509650965050505093509350935093565b6060600080806109648888888863b4a8580160e01b610b9f565b50919a909950975050505050505050565b60606000808061098f888888886370542a0960e11b610b9f565b505091509150816000815181106109a8576109a8612963565b60200260200101518193509350505094509492505050565b60606000806000610aa386866001805480602002602001604051908101604052809291908181526020016000905b82821015610a9a578382906000526020600020018054610a0d90612893565b80601f0160208091040260200160405190810160405280929190818152602001828054610a3990612893565b8015610a865780601f10610a5b57610100808354040283529160200191610a86565b820191906000526020600020905b815481529060010190602001808311610a6957829003601f168201915b5050505050815260200190600101906109ee565b50505050610872565b93509350935093505b92959194509250565b6000546001600160a01b03163314610adf5760405162461bcd60e51b815260040161055590612996565b6001600160a01b038116610b445760405162461bcd60e51b815260206004820152602660248201527f4f776e61626c653a206e6577206f776e657220697320746865207a65726f206160448201526564647265737360d01b6064820152608401610555565b600080546040516001600160a01b03808516939216917f8be0079c531659141344cd1fd0a4f28419497f9722a3daafe3b4186f6b6457e091a3600080546001600160a01b0319166001600160a01b0392909216919091179055565b60606000606080610c0360405180610100016040528060608152602001606081526020016060815260200160006001600160e01b031916815260200160001515815260200160006001600160a01b0316815260200160608152602001606081525090565b6001600160e01b031986166060820152600080610c228b8d018d6129d9565b90925090506060610c358a8c018c612a90565b60c089019190915260408801919091526001600160a01b0390911660a08701529015156080860152805183519192501015610c6f57600080fd5b80516001600160401b03811115610c8857610c8861211a565b604051908082528060200260200182016040528015610cbb57816020015b6060815260200190600190039081610ca65790505b50602085015280516001600160401b03811115610cda57610cda61211a565b604051908082528060200260200182016040528015610d03578160200160208202803683370190505b5060e08501526000805b8251811015610ef1578251600090849083908110610d2d57610d2d612963565b6020026020010151600001516001600160e01b03191603610d8c57828181518110610d5a57610d5a612963565b60200260200101516020015186602001518281518110610d7c57610d7c612963565b6020026020010181905250610edf565b848281518110610d9e57610d9e612963565b602002602001015115610e155760018660e001518281518110610dc357610dc3612963565b602002602001019015159081151581525050838281518110610de757610de7612963565b602002602001015186602001518281518110610e0557610e05612963565b6020026020010181905250610ed1565b828181518110610e2757610e27612963565b602002602001015160000151848381518110610e4557610e45612963565b6020026020010151848381518110610e5f57610e5f612963565b602002602001015160200151604051602401610e7c929190612c13565b604051602081830303815290604052906001600160e01b0319166020820180516001600160e01b03838183161783525050505086602001518281518110610ec557610ec5612963565b60200260200101819052505b610edc826001612c57565b91505b80610ee981612c6a565b915050610d0d565b50610efb856114d8565b8560a0015186604001518760c001519850985098509850505050505095509550955095915050565b606060008060008087806020019051810190610f3f9190612c83565b9050600080610f4d83611968565b91509150600081604051602401610f6691815260200190565b60408051601f19818403018152918152602080830180516001600160e01b0316631d9dabef60e11b1790529051919250600091610fa79187918e91016123ac565b6040516020818303038152906040529050600080306001600160a01b0316638e25a0f387868f636dc4fb7360e01b886040518663ffffffff1660e01b8152600401610ff6959493929190612d0f565b600060405180830381865afa158015611013573d6000803e3d6000fd5b505050506040513d6000823e601f3d908101601f1916820160405261103b9190810190612912565b915091506000828060200190518101906110559190612979565b979f979e50909b50959950505050505050505050565b6060600080600061107c8a8a6107a0565b919450849350909150506001600160a01b0382166110a057506000915061065b9050565b604080516101206020601f8d01819004028201810190925261010081018b815283151592611174929182918f908f9081908501838280828437600092019190915250505090825250602081018c9052604081018b90526001600160e01b03198a16606082015283151560808201526001600160a01b03871660a082015260c081018990528b5160e0909101906001600160401b038111156111435761114361211a565b60405190808252806020026020018201604052801561116c578160200160208202803683370190505b5090526114d8565b9450505050965096945050505050565b60008060008086868681811061119c5761119c612963565b919091013560f81c91505060008190036111c0575060009250829150839050611410565b60006111cc8287612c57565b6111d7906001612c57565b9050600082604214801561121d575088886111f3896001612c57565b81811061120257611202612963565b9050013560f81c60f81b6001600160f81b031916605b60f81b145b801561125b57508888611231600185612d78565b81811061124057611240612963565b9050013560f81c60f81b6001600160f81b031916605d60f81b145b156112d3576112cb600060408b8b6112748c6002612c57565b90611280600189612d78565b9261128d93929190612d8b565b8080601f016020809104026020016040519081016040528093929190818152602001838380828437600092019190915250929493925050611b5c9050565b509050611305565b88886112e0896001612c57565b6112ec92859290612d8b565b6040516112fa929190612db5565b604051809103902090505b60008060006113158c8c87611184565b92509250925060008285604051602001611339929190918252602082015260400190565b60408051601f19818403018152908290528051602090910120630178b8bf60e01b82526004820181905291506000906001600160a01b037f00000000000000000000000000000000000000000000000000000000000000001690630178b8bf90602401602060405180830381865afa1580156113b9573d6000803e3d6000fd5b505050506040513d601f19601f820116820180604052508101906113dd9190612979565b90506001600160a01b03811615611401579950975089965061141095505050505050565b50929850919650909450505050505b93509350939050565b60008060006114288585611c2d565b90925090508161149a57600185516114409190612d78565b841461148e5760405162461bcd60e51b815260206004820152601d60248201527f6e616d65686173683a204a756e6b20617420656e64206f66206e616d650000006044820152606401610555565b50600091506103369050565b6114a48582611419565b6040805160208101929092528101839052606001604051602081830303815290604052805190602001209250505092915050565b602081015151606090600080826001600160401b038111156114fc576114fc61211a565b60405190808252806020026020018201604052801561155a57816020015b611547604051806060016040528060006001600160a01b0316815260200160608152602001606081525090565b81526020019060019003908161151a5790505b5090506000836001600160401b038111156115775761157761211a565b6040519080825280602002602001820160405280156115bd57816020015b6040805180820190915260008152606060208201528152602001906001900390816115955790505b509050836001600160401b038111156115d8576115d861211a565b60405190808252806020026020018201604052801561160b57816020015b60608152602001906001900390816115f65790505b5086515160a0880151919650159060009061162590611ce4565b9050876080015115806116355750805b6116b65760405162461bcd60e51b815260206004820152604660248201527f556e6976657273616c5265736f6c7665723a2057696c6463617264206f6e206e60448201527f6f6e2d657874656e646564207265736f6c76657273206973206e6f74207375706064820152651c1bdc9d195960d21b608482015260a401610555565b60005b868110156118a6576000896020015182815181106116d9576116d9612963565b6020026020010151905060008a60e0015183815181106116fb576116fb612963565b60200260200101519050801561173057818a848151811061171e5761171e612963565b60200260200101819052505050611894565b8415801561173b5750835b15611781578a5160405161175491908490602401612c13565b60408051601f198184030181529190526020810180516001600160e01b0316639061b92360e01b17905291505b6000806000806117958f60a0015187611d5f565b9350935093509350831561180a57828060200190518101906117b79190612e44565b8b8d815181106117c9576117c9612963565b6020026020010181905250818a88815181106117e7576117e7612963565b60209081029190910101526117fd60018d612c57565b9b50505050505050611894565b8080156118145750875b15611830578280602001905181019061182d9190612c83565b92505b828e888151811061184357611843612963565b60200260200101819052508e60200151878151811061186457611864612963565b60200260200101518a888151811061187e5761187e612963565b6020026020010151602001819052505050505050505b8061189e81612c6a565b9150506116b9565b50846000036118ba57505050505050919050565b84845230886040015163a780bab660e01b866040516024016118dc9190612f3d565b604051602081830303815290604052906001600160e01b0319166020820180516001600160e01b0383818316178352505050508a606001518b608001518c60a001518d604001518e60c001518a60405160200161193d959493929190612f9f565b60408051601f1981840301815290829052630556f18360e41b8252610555959493929160040161305b565b80516060906000908190849061197f816002612c57565b6001600160401b038111156119965761199661211a565b6040519080825280601f01601f1916602001820160405280156119c0576020820181803683370190505b50945060009350808403611a0557600060f81b856000815181106119e6576119e6612963565b60200101906001600160f81b031916908160001a905350505050915091565b60001981015b828181518110611a1d57611a1d612963565b01602001516001600160f81b031916601760f91b03611aab578360f81b868260010181518110611a4f57611a4f612963565b60200101906001600160f81b031916908160001a90535084611a78846001840160ff8816611ed8565b60408051602081019390935282015260600160405160208183030381529060405280519060200120945060009350611afb565b600184019350828181518110611ac357611ac3612963565b602001015160f81c60f81b868260010181518110611ae357611ae3612963565b60200101906001600160f81b031916908160001a9053505b8015611b0a5760001901611a0b565b5083611b1b83600060ff8716611ed8565b6040805160208101939093528201526060016040516020818303038152906040528051906020012093508260f81b856000815181106119e6576119e6612963565b8251600090600190831115611b7057600080fd5b611bc1565b6000603a8210602f83111615611b8d5750602f190190565b60478210604083111615611ba357506036190190565b60678210606083111615611bb957506056190190565b5060ff919050565b60208501845b84811015611c2357611bde8183015160001a611b75565b611bf06001830184015160001a611b75565b60ff811460ff83141715611c0957600094505050611c23565b60049190911b1760089490941b9390931792600201611bc7565b5050935093915050565b60008083518310611c805760405162461bcd60e51b815260206004820152601e60248201527f726561644c6162656c3a20496e646578206f7574206f6620626f756e647300006044820152606401610555565b6000848481518110611c9457611c94612963565b016020015160f81c90508015611cc057611cb985611cb3866001612c57565b83611ed8565b9250611cc5565b600092505b611ccf8185612c57565b611cda906001612c57565b9150509250929050565b6040516301ffc9a760e01b8152639061b92360e01b60048201526000906001600160a01b038316906301ffc9a79061c350906024016020604051808303818786fa93505050508015611d53575060408051601f3d908101601f19168201909252611d5091810190613091565b60015b61033657506000919050565b60408051808201909152600080825260606020830181905290916000611d858686611efc565b90503d8115611dab576000611d9b600083611f7f565b909550935060019150610aac9050565b60048110611ece576000611dc160006004611f7f565b90506000611dd96004611dd48186612d78565b611f7f565b9050630556f18360e41b611dec836130ae565b6001600160e01b03191603611eba57600080600080600085806020019051810190611e1791906130e5565b945094509450945094508d6001600160a01b0316856001600160a01b031603611eb0576040518060600160405280866001600160a01b0316815260200185815260200184815250604051602001611e6e9190613194565b60408051601f198184030181528282019091526001600160e01b03199093168152602081019190915260019b50909950975060009650610aac95505050505050565b5050505050611ecb565b600096509450859250610aac915050565b50505b5092959194509250565b8251600090611ee78385612c57565b1115611ef257600080fd5b5091016020012090565b60006001600160a01b0383163b611f6c5760405162461bcd60e51b815260206004820152602e60248201527f4c6f774c6576656c43616c6c5574696c733a207374617469632063616c6c207460448201526d1bc81b9bdb8b58dbdb9d1c9858dd60921b6064820152608401610555565b600080835160208501865afa9392505050565b6060816001600160401b03811115611f9957611f9961211a565b6040519080825280601f01601f191660200182016040528015611fc3576020820181803683370190505b5090508183602083013e92915050565b828054828255906000526020600020908101928215612019579160200282015b82811115612019578251829061200990826131f6565b5091602001919060010190611ff3565b50612025929150612029565b5090565b8082111561202557600061203d8282612046565b50600101612029565b50805461205290612893565b6000825580601f10612062575050565b601f0160209004906000526020600020908101906120809190612083565b50565b5b808211156120255760008155600101612084565b6001600160e01b03198116811461208057600080fd5b6000602082840312156120c057600080fd5b81356120cb81612098565b9392505050565b60008083601f8401126120e457600080fd5b5081356001600160401b038111156120fb57600080fd5b60208301915083602082850101111561211357600080fd5b9250929050565b634e487b7160e01b600052604160045260246000fd5b604080519081016001600160401b03811182821017156121525761215261211a565b60405290565b604051601f8201601f191681016001600160401b03811182821017156121805761218061211a565b604052919050565b60006001600160401b038211156121a1576121a161211a565b50601f01601f191660200190565b60006121c26121bd84612188565b612158565b90508281528383830111156121d657600080fd5b828260208301376000602084830101529392505050565b600082601f8301126121fe57600080fd5b6120cb838335602085016121af565b60006001600160401b038211156122265761222661211a565b5060051b60200190565b600082601f83011261224157600080fd5b813560206122516121bd8361220d565b82815260059290921b8401810191818101908684111561227057600080fd5b8286015b848110156122c45780356001600160401b038111156122935760008081fd5b8701603f810189136122a55760008081fd5b6122b68986830135604084016121af565b845250918301918301612274565b509695505050505050565b600080600080606085870312156122e557600080fd5b84356001600160401b03808211156122fc57600080fd5b612308888389016120d2565b9096509450602087013591508082111561232157600080fd5b61232d888389016121ed565b9350604087013591508082111561234357600080fd5b5061235087828801612230565b91505092959194509250565b60005b8381101561237757818101518382015260200161235f565b50506000910152565b6000815180845261239881602086016020860161235c565b601f01601f19169290920160200192915050565b6040815260006123bf6040830185612380565b905060018060a01b03831660208301529392505050565b600082601f8301126123e757600080fd5b813560206123f76121bd8361220d565b82815260059290921b8401810191818101908684111561241657600080fd5b8286015b848110156122c45780356001600160401b038111156124395760008081fd5b6124478986838b01016121ed565b84525091830191830161241a565b60008060006040848603121561246a57600080fd5b83356001600160401b038082111561248157600080fd5b61248d878388016120d2565b909550935060208601359150808211156124a657600080fd5b506124b3868287016123d6565b9150509250925092565b6000604082016040835280855180835260608501915060608160051b8601019250602080880160005b8381101561251457605f19888703018552612502868351612380565b955093820193908201906001016124e6565b50506001600160a01b03969096169490950193909352949350505050565b6000806000806040858703121561254857600080fd5b84356001600160401b038082111561255f57600080fd5b61256b888389016120d2565b9096509450602087013591508082111561258457600080fd5b50612591878288016120d2565b95989497509550505050565b6080815260006125b06080830187612380565b6001600160a01b0395861660208401529385166040830152509216606090920191909152919050565b600080600080606085870312156125ef57600080fd5b84356001600160401b038082111561260657600080fd5b612612888389016120d2565b9096509450602087013591508082111561262b57600080fd5b61232d888389016123d6565b60008060008060008060a0878903121561265057600080fd5b86356001600160401b038082111561266757600080fd5b6126738a838b016120d2565b9098509650602089013591508082111561268c57600080fd5b6126988a838b016121ed565b955060408901359150808211156126ae57600080fd5b6126ba8a838b01612230565b9450606089013591506126cc82612098565b909250608088013590808211156126e257600080fd5b506126ef89828a016121ed565b9150509295509295509295565b60006020828403121561270e57600080fd5b81356001600160401b0381111561272457600080fd5b61273084828501612230565b949350505050565b60008060006040848603121561274d57600080fd5b83356001600160401b038082111561276457600080fd5b612770878388016120d2565b9095509350602086013591508082111561278957600080fd5b506124b3868287016121ed565b600080602083850312156127a957600080fd5b82356001600160401b038111156127bf57600080fd5b6127cb858286016120d2565b90969095509350505050565b6000602082840312156127e957600080fd5b5035919050565b6020815260006120cb6020830184612380565b60008060006040848603121561281857600080fd5b83356001600160401b038082111561282f57600080fd5b61283b878388016120d2565b9095509350602086013591508082111561285457600080fd5b506124b386828701612230565b6001600160a01b038116811461208057600080fd5b60006020828403121561288857600080fd5b81356120cb81612861565b600181811c908216806128a757607f821691505b6020821081036128c757634e487b7160e01b600052602260045260246000fd5b50919050565b600082601f8301126128de57600080fd5b81516128ec6121bd82612188565b81815284602083860101111561290157600080fd5b61273082602083016020870161235c565b6000806040838503121561292557600080fd5b82516001600160401b0381111561293b57600080fd5b612947858286016128cd565b925050602083015161295881612861565b809150509250929050565b634e487b7160e01b600052603260045260246000fd5b60006020828403121561298b57600080fd5b81516120cb81612861565b6020808252818101527f4f776e61626c653a2063616c6c6572206973206e6f7420746865206f776e6572604082015260600190565b801515811461208057600080fd5b600080604083850312156129ec57600080fd5b82356001600160401b0380821115612a0357600080fd5b818501915085601f830112612a1757600080fd5b81356020612a276121bd8361220d565b82815260059290921b84018101918181019089841115612a4657600080fd5b948201945b83861015612a6d578535612a5e816129cb565b82529482019490820190612a4b565b96505086013592505080821115612a8357600080fd5b50611cda858286016123d6565b600080600080600060a08688031215612aa857600080fd5b612ab286356129cb565b85359450612ac36020870135612861565b602086013593506001600160401b038060408801351115612ae357600080fd5b612af38860408901358901612230565b93508060608801351115612b0657600080fd5b612b1688606089013589016121ed565b92508060808801351115612b2957600080fd5b6080870135870188601f820112612b3f57600080fd5b612b4c6121bd823561220d565b81358082526020808301929160051b8401018b1015612b6a57600080fd5b602083015b6020843560051b850101811015612c01578481351115612b8e57600080fd5b803584016040818e03601f19011215612ba657600080fd5b612bae612130565b612bbb6020830135612098565b602082013581528660408301351115612bd357600080fd5b612be68e602060408501358501016121ed565b60208201528085525050602083019250602081019050612b6f565b50809450505050509295509295909350565b604081526000612c266040830185612380565b8281036020840152612c388185612380565b95945050505050565b634e487b7160e01b600052601160045260246000fd5b8082018082111561033657610336612c41565b600060018201612c7c57612c7c612c41565b5060010190565b600060208284031215612c9557600080fd5b81516001600160401b03811115612cab57600080fd5b612730848285016128cd565b600082825180855260208086019550808260051b84010181860160005b84811015612d0257601f19868403018952612cf0838351612380565b98840198925090830190600101612cd4565b5090979650505050505050565b60a081526000612d2260a0830188612380565b8281036020840152612d348188612380565b90508281036040840152612d488187612cb7565b6001600160e01b03198616606085015283810360808501529050612d6c8185612380565b98975050505050505050565b8181038181111561033657610336612c41565b60008085851115612d9b57600080fd5b83861115612da857600080fd5b5050820193919092039150565b8183823760009101908152919050565b600082601f830112612dd657600080fd5b81516020612de66121bd8361220d565b82815260059290921b84018101918181019086841115612e0557600080fd5b8286015b848110156122c45780516001600160401b03811115612e285760008081fd5b612e368986838b01016128cd565b845250918301918301612e09565b600060208284031215612e5657600080fd5b81516001600160401b0380821115612e6d57600080fd5b9083019060608286031215612e8157600080fd5b604051606081018181108382111715612e9c57612e9c61211a565b6040528251612eaa81612861565b8152602083015182811115612ebe57600080fd5b612eca87828601612dc5565b602083015250604083015182811115612ee257600080fd5b612eee878286016128cd565b60408301525095945050505050565b60018060a01b0381511682526000602082015160606020850152612f246060850182612cb7565b905060408301518482036040860152612c388282612380565b6000602080830181845280855180835260408601915060408160051b870101925083870160005b82811015612f9257603f19888603018452612f80858351612efd565b94509285019290850190600101612f64565b5092979650505050505050565b85151581526000602060018060a01b03871681840152604060a081850152612fca60a0850188612cb7565b8481036060860152612fdc8188612380565b905084810360808601528086518083528483019150848160051b84010185890160005b8381101561304857858303601f19018552815180516001600160e01b031916845288015188840188905261303588850182612380565b9589019593505090870190600101612fff565b50909d9c50505050505050505050505050565b6001600160a01b038616815260a06020820181905260009061307f90830187612cb7565b8281036040840152612d488187612380565b6000602082840312156130a357600080fd5b81516120cb816129cb565b805160208201516001600160e01b031980821692919060048310156130dd5780818460040360031b1b83161693505b505050919050565b600080600080600060a086880312156130fd57600080fd5b855161310881612861565b60208701519095506001600160401b038082111561312557600080fd5b61313189838a01612dc5565b9550604088015191508082111561314757600080fd5b61315389838a016128cd565b94506060880151915061316582612098565b60808801519193508082111561317a57600080fd5b50613187888289016128cd565b9150509295509295909350565b6020815260006120cb6020830184612efd565b601f8211156131f157600081815260208120601f850160051c810160208610156131ce5750805b601f850160051c820191505b818110156131ed578281556001016131da565b5050505b505050565b81516001600160401b0381111561320f5761320f61211a565b6132238161321d8454612893565b846131a7565b602080601f83116001811461325857600084156132405750858301515b600019600386901b1c1916600185901b1785556131ed565b600085815260208120601f198616915b8281101561328757888601518255948401946001909101908401613268565b50858210156132a55787850151600019600388901b60f8161c191681555b5050505050600190811b0190555056fea2646970667358221220488a4d7cec1025cc01bdd3f5a04a36f938421eafef482089792f8208e11ca40464736f6c63430008110033",
  "devdoc": {
    "kind": "dev",
    "methods": {
      "findResolver(bytes)": {
        "details": "Finds a resolver by recursively querying the registry, starting at the longest name and progressively      removing labels until it finds a result.",
        "params": {
          "name": "The name to resolve, in DNS-encoded and normalised form."
        },
        "returns": {
          "_0": "resolver The Resolver responsible for this name.",
          "_1": "namehash The namehash of the full name.",
          "_2": "finalOffset The offset of the first label with a resolver."
        }
      },
      "owner()": {
        "details": "Returns the address of the current owner."
      },
      "renounceOwnership()": {
        "details": "Leaves the contract without owner. It will not be possible to call `onlyOwner` functions anymore. Can only be called by the current owner. NOTE: Renouncing ownership will leave the contract without an owner, thereby removing any functionality that is only available to the owner."
      },
      "resolve(bytes,bytes)": {
        "details": "Performs ENS name resolution for the supplied name and resolution data.",
        "params": {
          "data": "The resolution data, as specified in ENSIP-10.",
          "name": "The name to resolve, in normalised and DNS-encoded form."
        },
        "returns": {
          "_0": "The result of resolving the name."
        }
      },
      "reverse(bytes,string[])": {
        "details": "Performs ENS name reverse resolution for the supplied reverse name.",
        "params": {
          "reverseName": "The reverse name to resolve, in normalised and DNS-encoded form. e.g. b6E040C9ECAaE172a89bD561c5F73e1C48d28cd9.addr.reverse"
        },
        "returns": {
          "_0": "The resolved name, the resolved address, the reverse resolver address, and the resolver address."
        }
      },
      "supportsInterface(bytes4)": {
        "details": "See {IERC165-supportsInterface}."
      },
      "transferOwnership(address)": {
        "details": "Transfers ownership of the contract to a new account (`newOwner`). Can only be called by the current owner."
      }
    },
    "version": 1
  },
  "userdoc": {
    "kind": "user",
    "methods": {},
    "notice": "The Universal Resolver is a contract that handles the work of resolving a name entirely onchain, making it possible to make a single smart contract call to resolve an ENS name.",
    "version": 1
  },
  "storageLayout": {
    "storage": [
      {
        "astId": 444,
        "contract": "contracts/utils/UniversalResolver.sol:UniversalResolver",
        "label": "_owner",
        "offset": 0,
        "slot": "0",
        "type": "t_address"
      },
      {
        "astId": 17021,
        "contract": "contracts/utils/UniversalResolver.sol:UniversalResolver",
        "label": "batchGatewayURLs",
        "offset": 0,
        "slot": "1",
        "type": "t_array(t_string_storage)dyn_storage"
      }
    ],
    "types": {
      "t_address": {
        "encoding": "inplace",
        "label": "address",
        "numberOfBytes": "20"
      },
      "t_array(t_string_storage)dyn_storage": {
        "base": "t_string_storage",
        "encoding": "dynamic_array",
        "label": "string[]",
        "numberOfBytes": "32"
      },
      "t_string_storage": {
        "encoding": "bytes",
        "label": "string",
        "numberOfBytes": "32"
      }
    }
  }
}