{
  "address": "0xD879004149706a6156De08e9a571Bfa5Ac6eDa84",
  "abi": [
    {
      "inputs": [
        {
          "internalType": "contract ENS",
          "name": "_ens",
          "type": "address"
        }
      ],
      "stateMutability": "nonpayable",
      "type": "constructor"
    },
    {
      "inputs": [],
      "name": "ens",
      "outputs": [
        {
          "internalType": "contract ENS",
          "name": "",
          "type": "address"
        }
      ],
      "stateMutability": "view",
      "type": "function"
    },
    {
      "inputs": [
        {
          "internalType": "string[]",
          "name": "names",
          "type": "string[]"
        },
        {
          "internalType": "uint256",
          "name": "duration",
          "type": "uint256"
        }
      ],
      "name": "renewAll",
      "outputs": [],
      "stateMutability": "payable",
      "type": "function"
    },
    {
      "inputs": [
        {
          "internalType": "string[]",
          "name": "names",
          "type": "string[]"
        },
        {
          "internalType": "uint256",
          "name": "duration",
          "type": "uint256"
        }
      ],
      "name": "rentPrice",
      "outputs": [
        {
          "internalType": "uint256",
          "name": "total",
          "type": "uint256"
        }
      ],
      "stateMutability": "view",
      "type": "function"
    },
    {
      "inputs": [
        {
          "internalType": "bytes4",
          "name": "interfaceID",
          "type": "bytes4"
        }
      ],
      "name": "supportsInterface",
      "outputs": [
        {
          "internalType": "bool",
          "name": "",
          "type": "bool"
        }
      ],
      "stateMutability": "pure",
      "type": "function"
    }
  ],
  "transactionHash": "0x7e7f39e5c443000772ba5d2a90f5cc3ec38c4c7b3f830d2549adbb220dc26f4b",
  "args": [
    "0x4E7984fF74569a270765EE67792386cBA77D1b01"
  ],
  "numDeployments": 1,
  "solcInputHash": "b0f86eb025a2bf184421368d827bdf79",
  "bytecode": "0x60a060405234801561001057600080fd5b5060405161079e38038061079e83398101604081905261002f91610040565b6001600160a01b0316608052610070565b60006020828403121561005257600080fd5b81516001600160a01b038116811461006957600080fd5b9392505050565b60805161070d6100916000396000818160b901526103d6015261070d6000f3fe60806040526004361061003f5760003560e01c806301ffc9a7146100445780633971d467146100795780633f15457f146100a7578063e8d6dbb4146100f3575b600080fd5b34801561005057600080fd5b5061006461005f3660046104e7565b610108565b60405190151581526020015b60405180910390f35b34801561008557600080fd5b50610099610094366004610518565b61013f565b604051908152602001610070565b3480156100b357600080fd5b506100db7f000000000000000000000000000000000000000000000000000000000000000081565b6040516001600160a01b039091168152602001610070565b610106610101366004610518565b61020c565b005b60006001600160e01b031982166301ffc9a760e01b148061013957506001600160e01b0319821663d1a70fd360e01b145b92915050565b60008061014a61039c565b90508360005b81811015610202576000836001600160a01b03166383e7f6ff89898581811061017b5761017b610593565b905060200281019061018d91906105a9565b896040518463ffffffff1660e01b81526004016101ac939291906105f7565b6040805180830381865afa1580156101c8573d6000803e3d6000fd5b505050506040513d601f19601f820116820180604052508101906101ec9190610630565b6020810151905101949094019350600101610150565b5050509392505050565b600061021661039c565b9050826000805b82811015610366576000846001600160a01b03166383e7f6ff89898581811061024857610248610593565b905060200281019061025a91906105a9565b896040518463ffffffff1660e01b8152600401610279939291906105f7565b6040805180830381865afa158015610295573d6000803e3d6000fd5b505050506040513d601f19601f820116820180604052508101906102b99190610630565b90506000816020015182600001516102d1919061068d565b9050856001600160a01b031663acf1a841828b8b878181106102f5576102f5610593565b905060200281019061030791906105a9565b8b6040518563ffffffff1660e01b8152600401610326939291906105f7565b6000604051808303818588803b15801561033f57600080fd5b505af1158015610353573d6000803e3d6000fd5b505050919094019350505060010161021d565b5060405133904780156108fc02916000818181858888f19350505050158015610393573d6000803e3d6000fd5b50505050505050565b604051630178b8bf60e01b81527fc0ae3fe48f09fde4a60d1b2e3f2c5d1f8dd5922c3ab88ca76377c5fd10816e49600482015260009081907f00000000000000000000000000000000000000000000000000000000000000006001600160a01b031690630178b8bf90602401602060405180830381865afa158015610425573d6000803e3d6000fd5b505050506040513d601f19601f8201168201806040525081019061044991906106ae565b6040516304928c6760e21b81527fc0ae3fe48f09fde4a60d1b2e3f2c5d1f8dd5922c3ab88ca76377c5fd10816e49600482015263612e8c0960e01b60248201529091506001600160a01b0382169063124a319c90604401602060405180830381865afa1580156104bd573d6000803e3d6000fd5b505050506040513d601f19601f820116820180604052508101906104e191906106ae565b91505090565b6000602082840312156104f957600080fd5b81356001600160e01b03198116811461051157600080fd5b9392505050565b60008060006040848603121561052d57600080fd5b833567ffffffffffffffff8082111561054557600080fd5b818601915086601f83011261055957600080fd5b81358181111561056857600080fd5b8760208260051b850101111561057d57600080fd5b6020928301989097509590910135949350505050565b634e487b7160e01b600052603260045260246000fd5b6000808335601e198436030181126105c057600080fd5b83018035915067ffffffffffffffff8211156105db57600080fd5b6020019150368190038213156105f057600080fd5b9250929050565b604081528260408201528284606083013760006060848301015260006060601f19601f8601168301019050826020830152949350505050565b60006040828403121561064257600080fd5b6040516040810181811067ffffffffffffffff8211171561067357634e487b7160e01b600052604160045260246000fd5b604052825181526020928301519281019290925250919050565b8082018082111561013957634e487b7160e01b600052601160045260246000fd5b6000602082840312156106c057600080fd5b81516001600160a01b038116811461051157600080fdfea2646970667358221220ba7819d1cc56a48bafff83859079ab427832b6286d661ed234602a3046e36b3164736f6c63430008110033",
  "devdoc": {
    "kind": "dev",
    "methods": {},
    "version": 1
  },
  "userdoc": {
    "kind": "user",
    "methods": {},
    "version": 1
  },
  "storageLayout": {
    "storage": [],
    "types": null
  }
}