{
  "address": "0x42A2c6983261de0596Ff9c3cA626F25a18579A47",
  "abi": [
    {
      "inputs": [
        {
          "internalType": "contract AggregatorInterface",
          "name": "_usdOracle",
          "type": "address"
        },
        {
          "internalType": "uint256[]",
          "name": "_rentPrices",
          "type": "uint256[]"
        },
        {
          "internalType": "uint256",
          "name": "_startPremium",
          "type": "uint256"
        },
        {
          "internalType": "uint256",
          "name": "totalDays",
          "type": "uint256"
        }
      ],
      "stateMutability": "nonpayable",
      "type": "constructor"
    },
    {
      "anonymous": false,
      "inputs": [
        {
          "indexed": false,
          "internalType": "uint256[]",
          "name": "prices",
          "type": "uint256[]"
        }
      ],
      "name": "RentPriceChanged",
      "type": "event"
    },
    {
      "inputs": [
        {
          "internalType": "uint256",
          "name": "startPremium",
          "type": "uint256"
        },
        {
          "internalType": "uint256",
          "name": "elapsed",
          "type": "uint256"
        }
      ],
      "name": "decayedPremium",
      "outputs": [
        {
          "internalType": "uint256",
          "name": "",
          "type": "uint256"
        }
      ],
      "stateMutability": "pure",
      "type": "function"
    },
    {
      "inputs": [
        {
          "internalType": "string",
          "name": "name",
          "type": "string"
        },
        {
          "internalType": "uint256",
          "name": "expires",
          "type": "uint256"
        },
        {
          "internalType": "uint256",
          "name": "duration",
          "type": "uint256"
        }
      ],
      "name": "premium",
      "outputs": [
        {
          "internalType": "uint256",
          "name": "",
          "type": "uint256"
        }
      ],
      "stateMutability": "view",
      "type": "function"
    },
    {
      "inputs": [
        {
          "internalType": "string",
          "name": "name",
          "type": "string"
        },
        {
          "internalType": "uint256",
          "name": "expires",
          "type": "uint256"
        },
        {
          "internalType": "uint256",
          "name": "duration",
          "type": "uint256"
        }
      ],
      "name": "price",
      "outputs": [
        {
          "components": [
            {
              "internalType": "uint256",
              "name": "base",
              "type": "uint256"
            },
            {
              "internalType": "uint256",
              "name": "premium",
              "type": "uint256"
            }
          ],
          "internalType": "struct IPriceOracle.Price",
          "name": "",
          "type": "tuple"
        }
      ],
      "stateMutability": "view",
      "type": "function"
    },
    {
      "inputs": [],
      "name": "price1Letter",
      "outputs": [
        {
          "internalType": "uint256",
          "name": "",
          "type": "uint256"
        }
      ],
      "stateMutability": "view",
      "type": "function"
    },
    {
      "inputs": [],
      "name": "price2Letter",
      "outputs": [
        {
          "internalType": "uint256",
          "name": "",
          "type": "uint256"
        }
      ],
      "stateMutability": "view",
      "type": "function"
    },
    {
      "inputs": [],
      "name": "price3Letter",
      "outputs": [
        {
          "internalType": "uint256",
          "name": "",
          "type": "uint256"
        }
      ],
      "stateMutability": "view",
      "type": "function"
    },
    {
      "inputs": [],
      "name": "price4Letter",
      "outputs": [
        {
          "internalType": "uint256",
          "name": "",
          "type": "uint256"
        }
      ],
      "stateMutability": "view",
      "type": "function"
    },
    {
      "inputs": [],
      "name": "price5Letter",
      "outputs": [
        {
          "internalType": "uint256",
          "name": "",
          "type": "uint256"
        }
      ],
      "stateMutability": "view",
      "type": "function"
    },
    {
      "inputs": [
        {
          "internalType": "bytes4",
          "name": "interfaceID",
          "type": "bytes4"
        }
      ],
      "name": "supportsInterface",
      "outputs": [
        {
          "internalType": "bool",
          "name": "",
          "type": "bool"
        }
      ],
      "stateMutability": "view",
      "type": "function"
    },
    {
      "inputs": [],
      "name": "usdOracle",
      "outputs": [
        {
          "internalType": "contract AggregatorInterface",
          "name": "",
          "type": "address"
        }
      ],
      "stateMutability": "view",
      "type": "function"
    }
  ],
  "transactionHash": "0xc68e5a16b6a508855d5d43e907250c741fb308eb147eab4728564da6a577e2f6",
  "args": [
    "0x69ee04f338eC5260e6d050323dF243b3d64BF581",
    [
      0,
      0,
      "20294266869609",
      "5073566717402",
      "158548959919"
    ],
    "100000000000000000000000000",
    21
  ],
  "numDeployments": 1,
  "solcInputHash": "b0f86eb025a2bf184421368d827bdf79",
  "bytecode": "0x6101806040523480156200001257600080fd5b5060405162000f4638038062000f4683398101604081905262000035916200012c565b6001600160a01b0384166101205282518490849081906000906200005d576200005d62000227565b6020026020010151608081815250508060018151811062000082576200008262000227565b602002602001015160a0818152505080600281518110620000a757620000a762000227565b602002602001015160c0818152505080600381518110620000cc57620000cc62000227565b602002602001015160e0818152505080600481518110620000f157620000f162000227565b60209081029190910101516101005250506101408290521c61016052506200023d9050565b634e487b7160e01b600052604160045260246000fd5b600080600080608085870312156200014357600080fd5b84516001600160a01b03811681146200015b57600080fd5b602086810151919550906001600160401b03808211156200017b57600080fd5b818801915088601f8301126200019057600080fd5b815181811115620001a557620001a562000116565b8060051b604051601f19603f83011681018181108582111715620001cd57620001cd62000116565b60405291825284820192508381018501918b831115620001ec57600080fd5b938501935b828510156200020c57845184529385019392850192620001f1565b60408b01516060909b0151999c909b50975050505050505050565b634e487b7160e01b600052603260045260246000fd5b60805160a05160c05160e05161010051610120516101405161016051610c73620002d360003960008181610731015261075b015260006107080152600081816101a7015261063001526000818161013301526102a701526000818161020d01526102e001526000818161016d01526103120152600081816101e6015261034401526000818160d0015261036e0152610c736000f3fe608060405234801561001057600080fd5b506004361061009e5760003560e01c8063a200e15311610066578063a200e15314610168578063a34e35961461018f578063c8a4271f146101a2578063cd5d2c74146101e1578063d820ed421461020857600080fd5b806301ffc9a7146100a35780632c0fd74c146100cb57806350e9a7151461010057806359b6b86c1461012e57806359e1777c14610155575b600080fd5b6100b66100b1366004610ab5565b61022f565b60405190151581526020015b60405180910390f35b6100f27f000000000000000000000000000000000000000000000000000000000000000081565b6040519081526020016100c2565b61011361010e366004610adf565b610240565b604080518251815260209283015192810192909252016100c2565b6100f27f000000000000000000000000000000000000000000000000000000000000000081565b6100f2610163366004610b5e565b610406565b6100f27f000000000000000000000000000000000000000000000000000000000000000081565b6100f261019d366004610adf565b6104a1565b6101c97f000000000000000000000000000000000000000000000000000000000000000081565b6040516001600160a01b0390911681526020016100c2565b6100f27f000000000000000000000000000000000000000000000000000000000000000081565b6100f27f000000000000000000000000000000000000000000000000000000000000000081565b600061023a826104f2565b92915050565b6040805180820190915260008082526020820152600061029586868080601f01602080910402602001604051908101604052809392919081815260200183838082843760009201919091525061052892505050565b90506000600582106102d2576102cb847f0000000000000000000000000000000000000000000000000000000000000000610b96565b9050610395565b81600403610304576102cb847f0000000000000000000000000000000000000000000000000000000000000000610b96565b81600303610336576102cb847f0000000000000000000000000000000000000000000000000000000000000000610b96565b81600203610368576102cb847f0000000000000000000000000000000000000000000000000000000000000000610b96565b610392847f0000000000000000000000000000000000000000000000000000000000000000610b96565b90505b60405180604001604052806103a98361062b565b81526020016103f96103f48a8a8080601f0160208091040260200160405190810160405280939291908181526020018383808284376000920191909152508c92508b91506106d29050565b61062b565b9052979650505050505050565b6000806201518061041f670de0b6b3a764000085610b96565b6104299190610bad565b9050600061043f670de0b6b3a764000083610bad565b905084811c6000610458670de0b6b3a764000084610b96565b6104629085610bcf565b90506000670de0b6b3a764000061047c8362010000610b96565b6104869190610bad565b905060006104948285610795565b9998505050505050505050565b60006104e96103f486868080601f0160208091040260200160405190810160405280939291908181526020018383808284376000920191909152508892508791506106d29050565b95945050505050565b60006001600160e01b031982166301ffc9a760e01b148061023a57506001600160e01b031982166350e9a71560e01b1492915050565b8051600090819081905b8082101561062257600085838151811061054e5761054e610be2565b01602001516001600160f81b0319169050600160ff1b81101561057d57610576600184610bf8565b925061060f565b600760fd1b6001600160f81b03198216101561059e57610576600284610bf8565b600f60fc1b6001600160f81b0319821610156105bf57610576600384610bf8565b601f60fb1b6001600160f81b0319821610156105e057610576600484610bf8565b603f60fa1b6001600160f81b03198216101561060157610576600584610bf8565b61060c600684610bf8565b92505b508261061a81610c0b565b935050610532565b50909392505050565b6000807f00000000000000000000000000000000000000000000000000000000000000006001600160a01b03166350d25bcd6040518163ffffffff1660e01b8152600401602060405180830381865afa15801561068c573d6000803e3d6000fd5b505050506040513d601f19601f820116820180604052508101906106b09190610c24565b9050806106c1846305f5e100610b96565b6106cb9190610bad565b9392505050565b60006106e16276a70084610bf8565b9250428311156106f3575060006106cb565b60006106ff8442610bcf565b9050600061072d7f000000000000000000000000000000000000000000000000000000000000000083610406565b90507f00000000000000000000000000000000000000000000000000000000000000008110610789576107807f000000000000000000000000000000000000000000000000000000000000000082610bcf565b925050506106cb565b50600095945050505050565b600060018316156107c857670de0b6b3a76400006107bb670de0ad151d09418084610b96565b6107c59190610bad565b91505b60028316156107f957670de0b6b3a76400006107ec670de0a3769959680084610b96565b6107f69190610bad565b91505b600483161561082a57670de0b6b3a764000061081d670de09039a5fa510084610b96565b6108279190610bad565b91505b600883161561085b57670de0b6b3a764000061084e670de069c00f3e120084610b96565b6108589190610bad565b91505b601083161561088c57670de0b6b3a764000061087f670de01cce21c9440084610b96565b6108899190610bad565b91505b60208316156108bd57670de0b6b3a76400006108b0670ddf82ef46ce100084610b96565b6108ba9190610bad565b91505b60408316156108ee57670de0b6b3a76400006108e1670dde4f458f8e8d8084610b96565b6108eb9190610bad565b91505b608083161561091f57670de0b6b3a7640000610912670ddbe84213d5f08084610b96565b61091c9190610bad565b91505b61010083161561095157670de0b6b3a7640000610944670dd71b7aa6df5b8084610b96565b61094e9190610bad565b91505b61020083161561098357670de0b6b3a7640000610976670dcd86e7f28cde0084610b96565b6109809190610bad565b91505b6104008316156109b557670de0b6b3a76400006109a8670dba71a3084ad68084610b96565b6109b29190610bad565b91505b6108008316156109e757670de0b6b3a76400006109da670d94961b13dbde8084610b96565b6109e49190610bad565b91505b611000831615610a1957670de0b6b3a7640000610a0c670d4a171c35c9838084610b96565b610a169190610bad565b91505b612000831615610a4b57670de0b6b3a7640000610a3e670cb9da519ccfb70084610b96565b610a489190610bad565b91505b614000831615610a7d57670de0b6b3a7640000610a70670bab76d59c18d68084610b96565b610a7a9190610bad565b91505b618000831615610aaf57670de0b6b3a7640000610aa26709d025defee4df8084610b96565b610aac9190610bad565b91505b50919050565b600060208284031215610ac757600080fd5b81356001600160e01b0319811681146106cb57600080fd5b60008060008060608587031215610af557600080fd5b843567ffffffffffffffff80821115610b0d57600080fd5b818701915087601f830112610b2157600080fd5b813581811115610b3057600080fd5b886020828501011115610b4257600080fd5b6020928301999098509187013596604001359550909350505050565b60008060408385031215610b7157600080fd5b50508035926020909101359150565b634e487b7160e01b600052601160045260246000fd5b808202811582820484141761023a5761023a610b80565b600082610bca57634e487b7160e01b600052601260045260246000fd5b500490565b8181038181111561023a5761023a610b80565b634e487b7160e01b600052603260045260246000fd5b8082018082111561023a5761023a610b80565b600060018201610c1d57610c1d610b80565b5060010190565b600060208284031215610c3657600080fd5b505191905056fea26469706673582212205ca88044260b91b96d7a4e2db2e701cc0dfdd675d5f304b643d85a707a63b83764736f6c63430008110033",
  "devdoc": {
    "kind": "dev",
    "methods": {
      "decayedPremium(uint256,uint256)": {
        "details": "Returns the premium price at current time elapsed",
        "params": {
          "elapsed": "time past since expiry",
          "startPremium": "starting price"
        }
      },
      "premium(string,uint256,uint256)": {
        "details": "Returns the pricing premium in wei."
      },
      "price(string,uint256,uint256)": {
        "details": "Returns the price to register or renew a name.",
        "params": {
          "duration": "How long the name is being registered or extended for, in seconds.",
          "expires": "When the name presently expires (0 if this is a new registration).",
          "name": "The name being registered or renewed."
        },
        "returns": {
          "_0": "base premium tuple of base price + premium price"
        }
      }
    },
    "version": 1
  },
  "userdoc": {
    "kind": "user",
    "methods": {},
    "version": 1
  },
  "storageLayout": {
    "storage": [],
    "types": null
  }
}