{
  "address": "0xDbDd6BBCc67E03862c25Aa046298Ac7CEB323189",
  "abi": [
    {
      "inputs": [
        {
          "internalType": "contract ENS",
          "name": "_ens",
          "type": "address"
        },
        {
          "internalType": "contract DNSSEC",
          "name": "_oracle",
          "type": "address"
        },
        {
          "internalType": "string",
          "name": "_gatewayURL",
          "type": "string"
        }
      ],
      "stateMutability": "nonpayable",
      "type": "constructor"
    },
    {
      "inputs": [
        {
          "internalType": "bytes",
          "name": "name",
          "type": "bytes"
        }
      ],
      "name": "CouldNotResolve",
      "type": "error"
    },
    {
      "inputs": [
        {
          "internalType": "address",
          "name": "sender",
          "type": "address"
        },
        {
          "internalType": "string[]",
          "name": "urls",
          "type": "string[]"
        },
        {
          "internalType": "bytes",
          "name": "callData",
          "type": "bytes"
        },
        {
          "internalType": "bytes4",
          "name": "callbackFunction",
          "type": "bytes4"
        },
        {
          "internalType": "bytes",
          "name": "extraData",
          "type": "bytes"
        }
      ],
      "name": "OffchainLookup",
      "type": "error"
    },
    {
      "inputs": [],
      "name": "ens",
      "outputs": [
        {
          "internalType": "contract ENS",
          "name": "",
          "type": "address"
        }
      ],
      "stateMutability": "view",
      "type": "function"
    },
    {
      "inputs": [],
      "name": "gatewayURL",
      "outputs": [
        {
          "internalType": "string",
          "name": "",
          "type": "string"
        }
      ],
      "stateMutability": "view",
      "type": "function"
    },
    {
      "inputs": [],
      "name": "oracle",
      "outputs": [
        {
          "internalType": "contract DNSSEC",
          "name": "",
          "type": "address"
        }
      ],
      "stateMutability": "view",
      "type": "function"
    },
    {
      "inputs": [
        {
          "internalType": "bytes",
          "name": "name",
          "type": "bytes"
        },
        {
          "internalType": "bytes",
          "name": "data",
          "type": "bytes"
        }
      ],
      "name": "resolve",
      "outputs": [
        {
          "internalType": "bytes",
          "name": "",
          "type": "bytes"
        }
      ],
      "stateMutability": "view",
      "type": "function"
    },
    {
      "inputs": [
        {
          "internalType": "bytes",
          "name": "response",
          "type": "bytes"
        },
        {
          "internalType": "bytes",
          "name": "extraData",
          "type": "bytes"
        }
      ],
      "name": "resolveCallback",
      "outputs": [
        {
          "internalType": "bytes",
          "name": "",
          "type": "bytes"
        }
      ],
      "stateMutability": "view",
      "type": "function"
    }
  ],
  "transactionHash": "0xec5a672ee77f1748aa9cbf4bc38ed89b7915fa8361c0cb2aa9709ac2727e458d",
  "args": [
    "0x4E7984fF74569a270765EE67792386cBA77D1b01",
    "0x77938e634869Cbb6F9940fd690dbA9757328705F",
    "https://dnssec-oracle.ens.domains/"
  ],
  "numDeployments": 1,
  "solcInputHash": "b0f86eb025a2bf184421368d827bdf79",
  "bytecode": "0x60c06040523480156200001157600080fd5b5060405162001a5f38038062001a5f83398101604081905262000034916200008e565b6001600160a01b03808416608052821660a05260006200005582826200021d565b50505050620002e9565b6001600160a01b03811681146200007557600080fd5b50565b634e487b7160e01b600052604160045260246000fd5b600080600060608486031215620000a457600080fd5b8351620000b1816200005f565b80935050602080850151620000c6816200005f565b60408601519093506001600160401b0380821115620000e457600080fd5b818701915087601f830112620000f957600080fd5b8151818111156200010e576200010e62000078565b604051601f8201601f19908116603f0116810190838211818310171562000139576200013962000078565b816040528281528a868487010111156200015257600080fd5b600093505b8284101562000176578484018601518185018701529285019262000157565b60008684830101528096505050505050509250925092565b600181811c90821680620001a357607f821691505b602082108103620001c457634e487b7160e01b600052602260045260246000fd5b50919050565b601f8211156200021857600081815260208120601f850160051c81016020861015620001f35750805b601f850160051c820191505b818110156200021457828155600101620001ff565b5050505b505050565b81516001600160401b0381111562000239576200023962000078565b62000251816200024a84546200018e565b84620001ca565b602080601f831160018114620002895760008415620002705750858301515b600019600386901b1c1916600185901b17855562000214565b600085815260208120601f198616915b82811015620002ba5788860151825594840194600190910190840162000299565b5085821015620002d95787850151600019600388901b60f8161c191681555b5050505050600190811b01905550565b60805160a0516117446200031b6000396000818160ba015261032901526000818160610152610d1b01526117446000f3fe608060405234801561001057600080fd5b50600436106100575760003560e01c80633f15457f1461005c57806352539968146100a05780637dc0d1d0146100b55780639061b923146100dc578063b4a85801146100ef575b600080fd5b6100837f000000000000000000000000000000000000000000000000000000000000000081565b6040516001600160a01b0390911681526020015b60405180910390f35b6100a8610102565b6040516100979190610fc2565b6100837f000000000000000000000000000000000000000000000000000000000000000081565b6100a86100ea36600461101e565b610190565b6100a86100fd36600461101e565b6102ff565b6000805461010f9061108a565b80601f016020809104026020016040519081016040528092919081815260200182805461013b9061108a565b80156101885780601f1061015d57610100808354040283529160200191610188565b820191906000526020600020905b81548152906001019060200180831161016b57829003601f168201915b505050505081565b60408051600180825281830190925260609160009190816020015b60608152602001906001900390816101ab579050509050600080546101cf9061108a565b80601f01602080910402602001604051908101604052809291908181526020018280546101fb9061108a565b80156102485780601f1061021d57610100808354040283529160200191610248565b820191906000526020600020905b81548152906001019060200180831161022b57829003601f168201915b505050505081600081518110610260576102606110da565b602002602001018190525030818787601060405160240161028393929190611119565b60408051601f19818403018152918152602080830180516001600160e01b03166331b137b960e01b179052905163b4a8580160e01b916102cb918c918c918c918c9101611141565b60408051601f1981840301815290829052630556f18360e41b82526102f69594939291600401611173565b60405180910390fd5b6060600080610310848601866112f6565b909250905060006103238789018961135a565b905060007f00000000000000000000000000000000000000000000000000000000000000006001600160a01b031663bdf95fef836040518263ffffffff1660e01b81526004016103739190611478565b600060405180830381865afa158015610390573d6000803e3d6000fd5b505050506040513d6000823e601f3d908101601f191682016040526103b89190810190611542565b50905060006103c782826106bc565b90505b805151602082015110156106985760006103ec82600001518360200151610723565b90506103f8818761073e565b158061040d5750606082015161ffff16600114155b806104215750604082015161ffff16601014155b1561042c575061068a565b60008061044684600001518560a001518660c00151610763565b90925090506001600160a01b03821615610686576040516301ffc9a760e01b815263477cc53f60e11b60048201526001600160a01b038316906301ffc9a790602401602060405180830381865afa1580156104a5573d6000803e3d6000fd5b505050506040513d601f19601f820116820180604052508101906104c9919061159d565b156105525760405163477cc53f60e11b81526001600160a01b03831690638ef98a7e906104fe908b908b9086906004016115bf565b600060405180830381865afa15801561051b573d6000803e3d6000fd5b505050506040513d6000823e601f3d908101601f1916820160405261054391908101906115f8565b985050505050505050506106b4565b6040516301ffc9a760e01b8152639061b92360e01b60048201526001600160a01b038316906301ffc9a790602401602060405180830381865afa15801561059d573d6000803e3d6000fd5b505050506040513d601f19601f820116820180604052508101906105c1919061159d565b156105f457604051639061b92360e01b81526001600160a01b03831690639061b923906104fe908b908b9060040161162d565b600080836001600160a01b03168960405161060f9190611652565b600060405180830381855afa9150503d806000811461064a576040519150601f19603f3d011682016040523d82523d6000602084013e61064f565b606091505b5091509150811561066b5799506106b498505050505050505050565b896040516314d3b60360e11b81526004016102f69190610fc2565b5050505b6106938161087e565b6103ca565b50836040516314d3b60360e11b81526004016102f69190610fc2565b949350505050565b61070a6040518060e001604052806060815260200160008152602001600061ffff168152602001600061ffff168152602001600063ffffffff16815260200160008152602001600081525090565b82815260c0810182905261071d8161087e565b92915050565b606060006107318484610966565b90506106b48484836109c0565b60008151835114801561075c575061075c8360008460008751610a42565b9392505050565b600060606000610774868686610a65565b90506005815110806107b1575060408051808201909152600580825264022a72998960dd1b60208301526107af918391600091908290610a42565b155b156107cf575050604080516020810190915260008082529150610876565b60006107f060058084516107e39190611684565b849190600160fd1b610aaf565b9050815181111561082757600061080a8360058551610b1b565b604080516020810190915260008152909550935061087692505050565b600061083583600584610b1b565b905080610867610846846001611697565b60018587516108559190611684565b61085f9190611684565b8691906109c0565b94509450505050610876565b50505b935093915050565b60c081015160208201819052815151116108955750565b60006108a982600001518360200151610966565b82602001516108b89190611697565b82519091506108c79082610bbd565b61ffff1660408301526108db600282611697565b82519091506108ea9082610bbd565b61ffff1660608301526108fe600282611697565b825190915061090d9082610be5565b63ffffffff166080830152610923600482611697565b82519091506000906109359083610bbd565b61ffff169050610946600283611697565b60a0840181905291506109598183611697565b60c0909301929092525050565b6000815b8351811061097a5761097a6116aa565b60006109868583610c0f565b60ff169050610996816001611697565b6109a09083611697565b9150806000036109b057506109b6565b5061096a565b6106b48382611684565b82516060906109cf8385611697565b11156109da57600080fd5b60008267ffffffffffffffff8111156109f5576109f56110c4565b6040519080825280601f01601f191660200182016040528015610a1f576020820181803683370190505b50905060208082019086860101610a37828287610c33565b509095945050505050565b6000610a4f848484610c89565b610a5a878785610c89565b149695505050505050565b60606000610a738585610c0f565b60ff16905082610a838286611697565b10610a9057610a906116aa565b610aa6610a9e856001611697565b8690836109c0565b95945050505050565b6000835b610abd8486611697565b811015610b0e57826001600160f81b031916868281518110610ae157610ae16110da565b01602001516001600160f81b03191603610afc5790506106b4565b80610b06816116c0565b915050610ab3565b5060001995945050505050565b6000838381518110610b2f57610b2f6110da565b6020910101516001600160f81b031916600360fc1b148015610b7f575083610b58846001611697565b81518110610b6857610b686110da565b6020910101516001600160f81b031916600f60fb1b145b15610bb257600080610b9d610b95866002611697565b879086610cad565b915091508015610baf5750905061075c565b50505b6106b4848484610ce9565b8151600090610bcd836002611697565b1115610bd857600080fd5b50016002015161ffff1690565b8151600090610bf5836004611697565b1115610c0057600080fd5b50016004015163ffffffff1690565b6000828281518110610c2357610c236110da565b016020015160f81c905092915050565b60208110610c6b5781518352610c4a602084611697565b9250610c57602083611697565b9150610c64602082611684565b9050610c33565b905182516020929092036101000a6000190180199091169116179052565b8251600090610c988385611697565b1115610ca357600080fd5b5091016020012090565b6000806028610cbc8585611684565b1015610ccd57506000905080610876565b600080610cdb878787610e14565b909890975095505050505050565b600080610cf7858585610edb565b604051630178b8bf60e01b8152600481018290529091506000906001600160a01b037f00000000000000000000000000000000000000000000000000000000000000001690630178b8bf90602401602060405180830381865afa158015610d62573d6000803e3d6000fd5b505050506040513d601f19601f82011682018060405250810190610d8691906116f1565b90506001600160a01b038116610da15760009250505061075c565b604051631d9dabef60e11b8152600481018390526001600160a01b03821690633b3b57de90602401602060405180830381865afa158015610de6573d6000803e3d6000fd5b505050506040513d601f19601f82011682018060405250810190610e0a91906116f1565b9695505050505050565b8251600090600190831115610e2857600080fd5b610e79565b6000603a8210602f83111615610e455750602f190190565b60478210604083111615610e5b57506036190190565b60678210606083111615610e7157506056190190565b5060ff919050565b60208501845b8481101561087357610e968183015160001a610e2d565b610ea86001830184015160001a610e2d565b60ff811460ff83141715610ec157600094505050610873565b60049190911b1760089490941b9390931792600201610e7f565b600080610efc84858751610eef9190611684565b879190601760f91b610aaf565b9050600083821015610f2457610f1d86610f17846001611697565b86610edb565b9050610f28565b8391505b80610f3f86610f378186611684565b899190610c89565b60408051602081019390935282015260600160405160208183030381529060405280519060200120925050509392505050565b60005b83811015610f8d578181015183820152602001610f75565b50506000910152565b60008151808452610fae816020860160208601610f72565b601f01601f19169290920160200192915050565b60208152600061075c6020830184610f96565b60008083601f840112610fe757600080fd5b50813567ffffffffffffffff811115610fff57600080fd5b60208301915083602082850101111561101757600080fd5b9250929050565b6000806000806040858703121561103457600080fd5b843567ffffffffffffffff8082111561104c57600080fd5b61105888838901610fd5565b9096509450602087013591508082111561107157600080fd5b5061107e87828801610fd5565b95989497509550505050565b600181811c9082168061109e57607f821691505b6020821081036110be57634e487b7160e01b600052602260045260246000fd5b50919050565b634e487b7160e01b600052604160045260246000fd5b634e487b7160e01b600052603260045260246000fd5b81835281816020850137506000828201602090810191909152601f909101601f19169091010190565b60408152600061112d6040830185876110f0565b905061ffff83166020830152949350505050565b6040815260006111556040830186886110f0565b82810360208401526111688185876110f0565b979650505050505050565b600060a0820160018060a01b0388168352602060a08185015281885180845260c08601915060c08160051b8701019350828a0160005b828110156111d75760bf198887030184526111c5868351610f96565b955092840192908401906001016111a9565b505050505082810360408401526111ee8187610f96565b6001600160e01b031986166060850152905082810360808401526112128185610f96565b98975050505050505050565b6040805190810167ffffffffffffffff81118282101715611241576112416110c4565b60405290565b604051601f8201601f1916810167ffffffffffffffff81118282101715611270576112706110c4565b604052919050565b600067ffffffffffffffff821115611292576112926110c4565b50601f01601f191660200190565b600082601f8301126112b157600080fd5b81356112c46112bf82611278565b611247565b8181528460208386010111156112d957600080fd5b816020850160208301376000918101602001919091529392505050565b6000806040838503121561130957600080fd5b823567ffffffffffffffff8082111561132157600080fd5b61132d868387016112a0565b9350602085013591508082111561134357600080fd5b50611350858286016112a0565b9150509250929050565b6000602080838503121561136d57600080fd5b823567ffffffffffffffff8082111561138557600080fd5b818501915085601f83011261139957600080fd5b8135818111156113ab576113ab6110c4565b8060051b6113ba858201611247565b91825283810185019185810190898411156113d457600080fd5b86860192505b8383101561146b578235858111156113f25760008081fd5b86016040818c03601f190181131561140a5760008081fd5b61141261121e565b89830135888111156114245760008081fd5b6114328e8c838701016112a0565b8252509082013590878211156114485760008081fd5b6114568d8b848601016112a0565b818b01528452505091860191908601906113da565b9998505050505050505050565b60006020808301818452808551808352604092508286019150828160051b87010184880160005b838110156114ef57888303603f19018552815180518785526114c388860182610f96565b91890151858303868b01529190506114db8183610f96565b96890196945050509086019060010161149f565b509098975050505050505050565b600082601f83011261150e57600080fd5b815161151c6112bf82611278565b81815284602083860101111561153157600080fd5b6106b4826020830160208701610f72565b6000806040838503121561155557600080fd5b825167ffffffffffffffff81111561156c57600080fd5b611578858286016114fd565b925050602083015163ffffffff8116811461159257600080fd5b809150509250929050565b6000602082840312156115af57600080fd5b8151801515811461075c57600080fd5b6060815260006115d26060830186610f96565b82810360208401526115e48186610f96565b90508281036040840152610e0a8185610f96565b60006020828403121561160a57600080fd5b815167ffffffffffffffff81111561162157600080fd5b6106b4848285016114fd565b6040815260006116406040830185610f96565b8281036020840152610aa68185610f96565b60008251611664818460208701610f72565b9190910192915050565b634e487b7160e01b600052601160045260246000fd5b8181038181111561071d5761071d61166e565b8082018082111561071d5761071d61166e565b634e487b7160e01b600052600160045260246000fd5b6000600182016116d2576116d261166e565b5060010190565b6001600160a01b03811681146116ee57600080fd5b50565b60006020828403121561170357600080fd5b815161075c816116d956fea26469706673582212201e2ca3758b497d13a921a1b2a58d025be9609f1d0d09f414265011052c187a3a64736f6c63430008110033",
  "devdoc": {
    "kind": "dev",
    "methods": {},
    "version": 1
  },
  "userdoc": {
    "kind": "user",
    "methods": {},
    "version": 1
  },
  "storageLayout": {
    "storage": [
      {
        "astId": 4867,
        "contract": "contracts/dnsregistrar/OffchainDNSResolver.sol:OffchainDNSResolver",
        "label": "gatewayURL",
        "offset": 0,
        "slot": "0",
        "type": "t_string_storage"
      }
    ],
    "types": {
      "t_string_storage": {
        "encoding": "bytes",
        "label": "string",
        "numberOfBytes": "32"
      }
    }
  }
}