{
  "address": "0xAe8935de85492FF82236b88cFaE7C8Bb266d3cBa",
  "abi": [
    {
      "inputs": [
        {
          "internalType": "bytes",
          "name": "key",
          "type": "bytes"
        },
        {
          "internalType": "bytes",
          "name": "data",
          "type": "bytes"
        },
        {
          "internalType": "bytes",
          "name": "sig",
          "type": "bytes"
        }
      ],
      "name": "verify",
      "outputs": [
        {
          "internalType": "bool",
          "name": "",
          "type": "bool"
        }
      ],
      "stateMutability": "view",
      "type": "function"
    }
  ],
  "transactionHash": "0xccd3deb0a9615a40652e65e094629db681911a12fc1a7c7940f3f1c1c1925ee2",
  "args": [],
  "numDeployments": 1,
  "solcInputHash": "b0f86eb025a2bf184421368d827bdf79",
  "bytecode": "0x608060405234801561001057600080fd5b50610728806100206000396000f3fe608060405234801561001057600080fd5b506004361061002b5760003560e01c8063de8f50a114610030575b600080fd5b61004361003e366004610539565b610057565b604051901515815260200160405180910390f35b600060608060006100a260048b8b8080601f01602080910402602001604051908101604052809392919081815260200183838082843760009201919091525092939250506102f59050565b60ff169050801561016e576100f760058261ffff168c8c8080601f01602080910402602001604051908101604052809392919081815260200183838082843760009201919091525092949392505061031a9050565b92506101676101078260056105e9565b61ffff9081169060059061011d9085168d61060b565b610127919061060b565b8c8c8080601f01602080910402602001604051908101604052809392919081815260200183838082843760009201919091525092949392505061031a9050565b9150610227565b6101b260058b8b8080601f016020809104026020016040519081016040528093929190818152602001838380828437600092019190915250929392505061039c9050565b90506101fe60078261ffff168c8c8080601f01602080910402602001604051908101604052809392919081815260200183838082843760009201919091525092949392505061031a9050565b925061022461020e8260076105e9565b61ffff9081169060079061011d9085168d61060b565b91505b6000606061026c84868a8a8080601f0160208091040260200160405190810160405280939291908181526020018383808284376000920191909152506103c492505050565b90925090508180156102e557506102916020825161028a919061060b565b82906103df565b60028b8b6040516102a392919061061e565b602060405180830381855afa1580156102c0573d6000803e3d6000fd5b5050506040513d601f19601f820116820180604052508101906102e3919061062e565b145b9c9b505050505050505050505050565b600082828151811061030957610309610647565b016020015160f81c90505b92915050565b8251606090610329838561065d565b111561033457600080fd5b60008267ffffffffffffffff81111561034f5761034f610670565b6040519080825280601f01601f191660200182016040528015610379576020820181803683370190505b50905060208082019086860101610391828287610403565b509095945050505050565b81516000906103ac83600261065d565b11156103b757600080fd5b50016002015161ffff1690565b600060606103d3838587610459565b91509150935093915050565b81516000906103ef83602061065d565b11156103fa57600080fd5b50016020015190565b6020811061043b578151835261041a60208461065d565b925061042760208361065d565b915061043460208261060b565b9050610403565b905182516020929092036101000a6000190180199091169116179052565b60006060600085518551855188888860405160200161047d969594939291906106b6565b6040516020818303038152906040529050835167ffffffffffffffff8111156104a8576104a8610670565b6040519080825280601f01601f1916602001820160405280156104d2576020820181803683370190505b50915083516020830182516020840160055afa925050935093915050565b60008083601f84011261050257600080fd5b50813567ffffffffffffffff81111561051a57600080fd5b60208301915083602082850101111561053257600080fd5b9250929050565b6000806000806000806060878903121561055257600080fd5b863567ffffffffffffffff8082111561056a57600080fd5b6105768a838b016104f0565b9098509650602089013591508082111561058f57600080fd5b61059b8a838b016104f0565b909650945060408901359150808211156105b457600080fd5b506105c189828a016104f0565b979a9699509497509295939492505050565b634e487b7160e01b600052601160045260246000fd5b61ffff818116838216019080821115610604576106046105d3565b5092915050565b81810381811115610314576103146105d3565b8183823760009101908152919050565b60006020828403121561064057600080fd5b5051919050565b634e487b7160e01b600052603260045260246000fd5b80820180821115610314576103146105d3565b634e487b7160e01b600052604160045260246000fd5b6000815160005b818110156106a7576020818501810151868301520161068d565b50600093019283525090919050565b86815285602082015284604082015260006106e66106e06106da6060850188610686565b86610686565b84610686565b9897505050505050505056fea2646970667358221220c6f74af3e8cb595c2ecf3a13638ee45a3d46305e536697e93b72babcb37e45e964736f6c63430008110033",
  "devdoc": {
    "details": "Implements the DNSSEC RSASHA256 algorithm.",
    "kind": "dev",
    "methods": {},
    "version": 1
  },
  "userdoc": {
    "kind": "user",
    "methods": {},
    "version": 1
  },
  "storageLayout": {
    "storage": [],
    "types": null
  }
}