{
  "address": "0xbF413BADA2338cAA73De54A692ea1352C1Ca69ff",
  "abi": [
    {
      "inputs": [
        {
          "internalType": "bytes",
          "name": "data",
          "type": "bytes"
        },
        {
          "internalType": "bytes",
          "name": "hash",
          "type": "bytes"
        }
      ],
      "name": "verify",
      "outputs": [
        {
          "internalType": "bool",
          "name": "",
          "type": "bool"
        }
      ],
      "stateMutability": "pure",
      "type": "function"
    }
  ],
  "transactionHash": "0x9ee7e056d64302950cb050adb57365604211496b89d65492da31c631e7550a53",
  "args": [],
  "numDeployments": 1,
  "solcInputHash": "b0f86eb025a2bf184421368d827bdf79",
  "bytecode": "0x608060405234801561001057600080fd5b50610698806100206000396000f3fe608060405234801561001057600080fd5b506004361061002b5760003560e01c8063f7e83aee14610030575b600080fd5b61004361003e3660046105cf565b610057565b604051901515815260200160405180910390f35b6000601482146100ad5760405162461bcd60e51b815260206004820152601860248201527f496e76616c696420736861312068617368206c656e6774680000000000000000604482015260640160405180910390fd5b60006100f3600085858080601f01602080910402602001604051908101604052809392919081815260200183838082843760009201919091525092939250506101629050565b6bffffffffffffffffffffffff19169050600061014587878080601f01602080910402602001604051908101604052809392919081815260200183838082843760009201919091525061019592505050565b6bffffffffffffffffffffffff1916919091149695505050505050565b815160009061017283601461063b565b111561017d57600080fd5b5001602001516bffffffffffffffffffffffff191690565b60006040518251602084019350604067ffffffffffffffc0600183011601600982820310600181036101c8576040820191505b50776745230100efcdab890098badcfe001032547600c3d2e1f061021b565b600083831015610214575080820151928290039260208410156102145760001960208590036101000a0119165b9392505050565b60005b82811015610525576102318482896101e7565b85526102418460208301896101e7565b60208601526040818503106001810361025d5760808286038701535b506040830381146001810361027a57602086018051600887021790525b5060405b608081101561030257858101603f19810151603719820151601f19830151600b198401516002911891909218189081027ffffffffefffffffefffffffefffffffefffffffefffffffefffffffefffffffe1663800000009091047c010000000100000001000000010000000100000001000000010000000116179052600c0161027e565b5060805b61014081101561038b57858101607f19810151606f19820151603f198301516017198401516004911891909218189081027ffffffffcfffffffcfffffffcfffffffcfffffffcfffffffcfffffffcfffffffc1663400000009091047c030000000300000003000000030000000300000003000000030000000316179052601801610306565b508160008060005b60508110156104fb576014810480156103c357600181146103ea576002811461040f57600381146104395761045a565b600160281b8504600160501b86048118600160781b870416189350635a827999925061045a565b600160281b8504600160781b8604600160501b870418189350636ed9eba1925061045a565b600160501b8504600160781b8604818117600160281b8804169116179350638f1bbcdc925061045a565b600160281b8504600160781b8604600160501b87041818935063ca62c1d692505b50601f600160bb1b8504168063ffffffe06001609b1b87041617905080840190508063ffffffff8616019050808301905080600160e01b600484028c015104019050600160a01b8102600160281b860417945050600160501b633fffffff600160521b86041663c00000006604000000000000870416170277ffffffff00ffffffff000000000000ffffffff00ffffffff8516179350600181019050610393565b5050509190910177ffffffff00ffffffff00ffffffff00ffffffff00ffffffff169060400161021e565b50600160601b63ffffffff821667ffffffff000000006101008404166bffffffff00000000000000006201000085041663ffffffff60601b630100000086041663ffffffff60801b6401000000008704161717171702945050505050919050565b60008083601f84011261059857600080fd5b50813567ffffffffffffffff8111156105b057600080fd5b6020830191508360208285010111156105c857600080fd5b9250929050565b600080600080604085870312156105e557600080fd5b843567ffffffffffffffff808211156105fd57600080fd5b61060988838901610586565b9096509450602087013591508082111561062257600080fd5b5061062f87828801610586565b95989497509550505050565b8082018082111561065c57634e487b7160e01b600052601160045260246000fd5b9291505056fea2646970667358221220d3516a07dae43fa5e2aec8d6b3147ae91014b0e1bf92f464bf1fb49c8105deba64736f6c63430008110033",
  "devdoc": {
    "details": "Implements the DNSSEC SHA1 digest.",
    "kind": "dev",
    "methods": {
      "verify(bytes,bytes)": {
        "details": "Verifies a cryptographic hash.",
        "params": {
          "data": "The data to hash.",
          "hash": "The hash to compare to."
        },
        "returns": {
          "_0": "True iff the hashed data matches the provided hash value."
        }
      }
    },
    "version": 1
  },
  "userdoc": {
    "kind": "user",
    "methods": {},
    "version": 1
  },
  "storageLayout": {
    "storage": [],
    "types": null
  }
}