{
  "address": "0x1AcBA90b99B5c045191d8bfd660E5B95c443EC11",
  "abi": [
    {
      "inputs": [
        {
          "internalType": "contract ENS",
          "name": "_ens",
          "type": "address"
        },
        {
          "internalType": "contract IBaseRegistrar",
          "name": "_registrar",
          "type": "address"
        }
      ],
      "stateMutability": "nonpayable",
      "type": "constructor"
    },
    {
      "anonymous": false,
      "inputs": [
        {
          "indexed": true,
          "internalType": "address",
          "name": "previousOwner",
          "type": "address"
        },
        {
          "indexed": true,
          "internalType": "address",
          "name": "newOwner",
          "type": "address"
        }
      ],
      "name": "OwnershipTransferred",
      "type": "event"
    },
    {
      "inputs": [
        {
          "internalType": "address",
          "name": "",
          "type": "address"
        }
      ],
      "name": "approvedWrapper",
      "outputs": [
        {
          "internalType": "bool",
          "name": "",
          "type": "bool"
        }
      ],
      "stateMutability": "view",
      "type": "function"
    },
    {
      "inputs": [],
      "name": "ens",
      "outputs": [
        {
          "internalType": "contract ENS",
          "name": "",
          "type": "address"
        }
      ],
      "stateMutability": "view",
      "type": "function"
    },
    {
      "inputs": [],
      "name": "owner",
      "outputs": [
        {
          "internalType": "address",
          "name": "",
          "type": "address"
        }
      ],
      "stateMutability": "view",
      "type": "function"
    },
    {
      "inputs": [],
      "name": "registrar",
      "outputs": [
        {
          "internalType": "contract IBaseRegistrar",
          "name": "",
          "type": "address"
        }
      ],
      "stateMutability": "view",
      "type": "function"
    },
    {
      "inputs": [],
      "name": "renounceOwnership",
      "outputs": [],
      "stateMutability": "nonpayable",
      "type": "function"
    },
    {
      "inputs": [
        {
          "internalType": "bytes32",
          "name": "parentNode",
          "type": "bytes32"
        },
        {
          "internalType": "string",
          "name": "label",
          "type": "string"
        },
        {
          "internalType": "address",
          "name": "newOwner",
          "type": "address"
        },
        {
          "internalType": "address",
          "name": "resolver",
          "type": "address"
        },
        {
          "internalType": "uint64",
          "name": "ttl",
          "type": "uint64"
        },
        {
          "internalType": "uint32",
          "name": "fuses",
          "type": "uint32"
        },
        {
          "internalType": "uint64",
          "name": "expiry",
          "type": "uint64"
        }
      ],
      "name": "setSubnodeRecord",
      "outputs": [],
      "stateMutability": "nonpayable",
      "type": "function"
    },
    {
      "inputs": [
        {
          "internalType": "address",
          "name": "wrapper",
          "type": "address"
        },
        {
          "internalType": "bool",
          "name": "approved",
          "type": "bool"
        }
      ],
      "name": "setWrapperApproval",
      "outputs": [],
      "stateMutability": "nonpayable",
      "type": "function"
    },
    {
      "inputs": [
        {
          "internalType": "address",
          "name": "newOwner",
          "type": "address"
        }
      ],
      "name": "transferOwnership",
      "outputs": [],
      "stateMutability": "nonpayable",
      "type": "function"
    },
    {
      "inputs": [
        {
          "internalType": "string",
          "name": "label",
          "type": "string"
        },
        {
          "internalType": "address",
          "name": "wrappedOwner",
          "type": "address"
        },
        {
          "internalType": "uint32",
          "name": "fuses",
          "type": "uint32"
        },
        {
          "internalType": "uint64",
          "name": "expiry",
          "type": "uint64"
        },
        {
          "internalType": "address",
          "name": "resolver",
          "type": "address"
        }
      ],
      "name": "wrapETH2LD",
      "outputs": [],
      "stateMutability": "nonpayable",
      "type": "function"
    },
    {
      "inputs": [
        {
          "internalType": "bytes",
          "name": "name",
          "type": "bytes"
        },
        {
          "internalType": "address",
          "name": "wrappedOwner",
          "type": "address"
        },
        {
          "internalType": "uint32",
          "name": "fuses",
          "type": "uint32"
        },
        {
          "internalType": "uint64",
          "name": "expiry",
          "type": "uint64"
        },
        {
          "internalType": "address",
          "name": "approved",
          "type": "address"
        },
        {
          "internalType": "bytes",
          "name": "extraData",
          "type": "bytes"
        }
      ],
      "name": "wrapFromUpgrade",
      "outputs": [],
      "stateMutability": "nonpayable",
      "type": "function"
    }
  ],
  "transactionHash": "0xabd545528d6ca667433d7d34910be452be99b68ded91659d1eb9ae37bf5d062c",
  "args": [
    "0x1Ee5F6b9083af19Ea13D4B0665aa3896DC262565",
    "0xE490C7df37ae5Cc2A7909246E87B292A83Fc3423"
  ],
  "numDeployments": 1,
  "solcInputHash": "b0f86eb025a2bf184421368d827bdf79",
  "bytecode": "0x60c060405234801561001057600080fd5b5060405161108438038061108483398101604081905261002f916100b7565b6100383361004f565b6001600160a01b039182166080521660a0526100f1565b600080546001600160a01b038381166001600160a01b0319831681178455604051919092169283917f8be0079c531659141344cd1fd0a4f28419497f9722a3daafe3b4186f6b6457e09190a35050565b6001600160a01b03811681146100b457600080fd5b50565b600080604083850312156100ca57600080fd5b82516100d58161009f565b60208401519092506100e68161009f565b809150509250929050565b60805160a051610f3e6101466000396000818160d00152818161084601528181610921015281816109ed0152610a750152600081816101140152818161046601528181610541015261060d0152610f3e6000f3fe608060405234801561001057600080fd5b506004361061009e5760003560e01c80638da5cb5b116100665780638da5cb5b1461013e5780639198c2761461014f578063c6d6d7c114610162578063f2fde38b14610195578063f9547a9e146101a857600080fd5b80630cc17365146100a357806324c1af44146100b85780632b20e397146100cb5780633f15457f1461010f578063715018a614610136575b600080fd5b6100b66100b1366004610b31565b6101bb565b005b6100b66100c6366004610bac565b6101ee565b6100f27f000000000000000000000000000000000000000000000000000000000000000081565b6040516001600160a01b0390911681526020015b60405180910390f35b6100f27f000000000000000000000000000000000000000000000000000000000000000081565b6100b6610218565b6000546001600160a01b03166100f2565b6100b661015d366004610d03565b61022c565b610185610170366004610dbe565b60016020526000908152604090205460ff1681565b6040519015158152602001610106565b6100b66101a3366004610dbe565b61031c565b6100b66101b6366004610de2565b61039a565b6101c36103c4565b6001600160a01b03919091166000908152600160205260409020805460ff1916911515919091179055565b600061020188888051906020012061041e565b905061020e81873361044d565b5050505050505050565b6102206103c4565b61022a6000610665565b565b60008061027360008b8b8080601f01602080910402602001604051908101604052809392919081815260200183838082843760009201919091525092939250506106b59050565b9150915060006102bc828c8c8080601f016020809104026020016040519081016040528093929190818152602001838380828437600092019190915250929392505061076c9050565b905060006102ca828561041e565b90507f3f51c01b70f6021b59f2e4d1c0d3a2e0722a6dd3c54773589c883a02ef7e91b78201610303576102fe848b3361082b565b61030e565b61030e818b3361044d565b505050505050505050505050565b6103246103c4565b6001600160a01b03811661038e5760405162461bcd60e51b815260206004820152602660248201527f4f776e61626c653a206e6577206f776e657220697320746865207a65726f206160448201526564647265737360d01b60648201526084015b60405180910390fd5b61039781610665565b50565b6103bc86866040516103ad929190610e6c565b6040518091039020853361082b565b505050505050565b6000546001600160a01b0316331461022a5760405162461bcd60e51b815260206004820181905260248201527f4f776e61626c653a2063616c6c6572206973206e6f7420746865206f776e65726044820152606401610385565b604080516020808201859052818301849052825180830384018152606090920190925280519101205b92915050565b6040516302571be360e01b8152600481018490526000907f00000000000000000000000000000000000000000000000000000000000000006001600160a01b0316906302571be390602401602060405180830381865afa1580156104b5573d6000803e3d6000fd5b505050506040513d601f19601f820116820180604052508101906104d99190610e7c565b6001600160a01b03831660009081526001602052604090205490915060ff1680156105155750816001600160a01b0316816001600160a01b0316145b80156105ac575060405163e985e9c560e01b81526001600160a01b0382811660048301523060248301527f0000000000000000000000000000000000000000000000000000000000000000169063e985e9c590604401602060405180830381865afa158015610588573d6000803e3d6000fd5b505050506040513d601f19601f820116820180604052508101906105ac9190610e99565b6105e75760405162461bcd60e51b815260206004820152600c60248201526b155b985d5d1a1bdc9a5cd95960a21b6044820152606401610385565b604051635b0fc9c360e01b8152600481018590526001600160a01b0384811660248301527f00000000000000000000000000000000000000000000000000000000000000001690635b0fc9c390604401600060405180830381600087803b15801561065157600080fd5b505af115801561020e573d6000803e3d6000fd5b600080546001600160a01b038381166001600160a01b0319831681178455604051919092169283917f8be0079c531659141344cd1fd0a4f28419497f9722a3daafe3b4186f6b6457e09190a35050565b600080835183106107085760405162461bcd60e51b815260206004820152601e60248201527f726561644c6162656c3a20496e646578206f7574206f6620626f756e647300006044820152606401610385565b600084848151811061071c5761071c610eb6565b016020015160f81c90508015610748576107418561073b866001610ee2565b83610ada565b925061074d565b600092505b6107578185610ee2565b610762906001610ee2565b9150509250929050565b600080600061077b85856106b5565b9092509050816107ed57600185516107939190610ef5565b84146107e15760405162461bcd60e51b815260206004820152601d60248201527f6e616d65686173683a204a756e6b20617420656e64206f66206e616d650000006044820152606401610385565b50600091506104479050565b6107f7858261076c565b6040805160208101929092528101839052606001604051602081830303815290604052805190602001209250505092915050565b6040516331a9108f60e11b81526004810184905283906000907f00000000000000000000000000000000000000000000000000000000000000006001600160a01b031690636352211e90602401602060405180830381865afa158015610895573d6000803e3d6000fd5b505050506040513d601f19601f820116820180604052508101906108b99190610e7c565b6001600160a01b03841660009081526001602052604090205490915060ff1680156108f55750806001600160a01b0316836001600160a01b0316145b801561098c575060405163e985e9c560e01b81526001600160a01b0382811660048301523060248301527f0000000000000000000000000000000000000000000000000000000000000000169063e985e9c590604401602060405180830381865afa158015610968573d6000803e3d6000fd5b505050506040513d601f19601f8201168201806040525081019061098c9190610e99565b6109c75760405162461bcd60e51b815260206004820152600c60248201526b155b985d5d1a1bdc9a5cd95960a21b6044820152606401610385565b604051630a3b53db60e21b8152600481018390526001600160a01b0385811660248301527f000000000000000000000000000000000000000000000000000000000000000016906328ed4f6c90604401600060405180830381600087803b158015610a3157600080fd5b505af1158015610a45573d6000803e3d6000fd5b50506040516323b872dd60e01b81526001600160a01b0384811660048301528781166024830152604482018690527f00000000000000000000000000000000000000000000000000000000000000001692506323b872dd9150606401600060405180830381600087803b158015610abb57600080fd5b505af1158015610acf573d6000803e3d6000fd5b505050505050505050565b8251600090610ae98385610ee2565b1115610af457600080fd5b5091016020012090565b6001600160a01b038116811461039757600080fd5b8035610b1e81610afe565b919050565b801515811461039757600080fd5b60008060408385031215610b4457600080fd5b8235610b4f81610afe565b91506020830135610b5f81610b23565b809150509250929050565b634e487b7160e01b600052604160045260246000fd5b803567ffffffffffffffff81168114610b1e57600080fd5b803563ffffffff81168114610b1e57600080fd5b600080600080600080600060e0888a031215610bc757600080fd5b87359650602088013567ffffffffffffffff80821115610be657600080fd5b818a0191508a601f830112610bfa57600080fd5b813581811115610c0c57610c0c610b6a565b604051601f8201601f19908116603f01168101908382118183101715610c3457610c34610b6a565b816040528281528d6020848701011115610c4d57600080fd5b82602086016020830137600060208483010152809a505050505050610c7460408901610b13565b9450610c8260608901610b13565b9350610c9060808901610b80565b9250610c9e60a08901610b98565b9150610cac60c08901610b80565b905092959891949750929550565b60008083601f840112610ccc57600080fd5b50813567ffffffffffffffff811115610ce457600080fd5b602083019150836020828501011115610cfc57600080fd5b9250929050565b60008060008060008060008060c0898b031215610d1f57600080fd5b883567ffffffffffffffff80821115610d3757600080fd5b610d438c838d01610cba565b909a50985060208b01359150610d5882610afe565b819750610d6760408c01610b98565b9650610d7560608c01610b80565b955060808b01359150610d8782610afe565b90935060a08a01359080821115610d9d57600080fd5b50610daa8b828c01610cba565b999c989b5096995094979396929594505050565b600060208284031215610dd057600080fd5b8135610ddb81610afe565b9392505050565b60008060008060008060a08789031215610dfb57600080fd5b863567ffffffffffffffff811115610e1257600080fd5b610e1e89828a01610cba565b9097509550506020870135610e3281610afe565b9350610e4060408801610b98565b9250610e4e60608801610b80565b91506080870135610e5e81610afe565b809150509295509295509295565b8183823760009101908152919050565b600060208284031215610e8e57600080fd5b8151610ddb81610afe565b600060208284031215610eab57600080fd5b8151610ddb81610b23565b634e487b7160e01b600052603260045260246000fd5b634e487b7160e01b600052601160045260246000fd5b8082018082111561044757610447610ecc565b8181038181111561044757610447610ecc56fea2646970667358221220f8770965c2662a1861945e8c40b02a0df75212be635e442773ed4cf05df1707764736f6c63430008110033",
  "devdoc": {
    "kind": "dev",
    "methods": {
      "owner()": {
        "details": "Returns the address of the current owner."
      },
      "renounceOwnership()": {
        "details": "Leaves the contract without owner. It will not be possible to call `onlyOwner` functions anymore. Can only be called by the current owner. NOTE: Renouncing ownership will leave the contract without an owner, thereby removing any functionality that is only available to the owner."
      },
      "transferOwnership(address)": {
        "details": "Transfers ownership of the contract to a new account (`newOwner`). Can only be called by the current owner."
      }
    },
    "version": 1
  },
  "userdoc": {
    "kind": "user",
    "methods": {},
    "version": 1
  },
  "storageLayout": {
    "storage": [
      {
        "astId": 444,
        "contract": "contracts/wrapper/mocks/TestUnwrap.sol:TestUnwrap",
        "label": "_owner",
        "offset": 0,
        "slot": "0",
        "type": "t_address"
      },
      {
        "astId": 24467,
        "contract": "contracts/wrapper/mocks/TestUnwrap.sol:TestUnwrap",
        "label": "approvedWrapper",
        "offset": 0,
        "slot": "1",
        "type": "t_mapping(t_address,t_bool)"
      }
    ],
    "types": {
      "t_address": {
        "encoding": "inplace",
        "label": "address",
        "numberOfBytes": "20"
      },
      "t_bool": {
        "encoding": "inplace",
        "label": "bool",
        "numberOfBytes": "1"
      },
      "t_mapping(t_address,t_bool)": {
        "encoding": "mapping",
        "key": "t_address",
        "label": "mapping(address => bool)",
        "numberOfBytes": "32",
        "value": "t_bool"
      }
    }
  }
}