{
  "address": "0x4dc508720f701882c0bBB2fa67aA5c6bfBcC9c3e",
  "abi": [
    {
      "inputs": [
        {
          "internalType": "address",
          "name": "_registry",
          "type": "address"
        },
        {
          "internalType": "string[]",
          "name": "_urls",
          "type": "string[]"
        }
      ],
      "stateMutability": "nonpayable",
      "type": "constructor"
    },
    {
      "inputs": [
        {
          "internalType": "address",
          "name": "sender",
          "type": "address"
        },
        {
          "internalType": "string[]",
          "name": "urls",
          "type": "string[]"
        },
        {
          "internalType": "bytes",
          "name": "callData",
          "type": "bytes"
        },
        {
          "internalType": "bytes4",
          "name": "callbackFunction",
          "type": "bytes4"
        },
        {
          "internalType": "bytes",
          "name": "extraData",
          "type": "bytes"
        }
      ],
      "name": "OffchainLookup",
      "type": "error"
    },
    {
      "anonymous": false,
      "inputs": [
        {
          "indexed": true,
          "internalType": "address",
          "name": "previousOwner",
          "type": "address"
        },
        {
          "indexed": true,
          "internalType": "address",
          "name": "newOwner",
          "type": "address"
        }
      ],
      "name": "OwnershipTransferred",
      "type": "event"
    },
    {
      "inputs": [
        {
          "internalType": "bytes",
          "name": "name",
          "type": "bytes"
        },
        {
          "internalType": "bytes",
          "name": "data",
          "type": "bytes"
        },
        {
          "internalType": "string[]",
          "name": "gateways",
          "type": "string[]"
        },
        {
          "internalType": "bytes4",
          "name": "callbackFunction",
          "type": "bytes4"
        },
        {
          "internalType": "bytes",
          "name": "metaData",
          "type": "bytes"
        }
      ],
      "name": "_resolveSingle",
      "outputs": [
        {
          "internalType": "bytes",
          "name": "",
          "type": "bytes"
        },
        {
          "internalType": "address",
          "name": "",
          "type": "address"
        }
      ],
      "stateMutability": "view",
      "type": "function"
    },
    {
      "inputs": [
        {
          "internalType": "uint256",
          "name": "",
          "type": "uint256"
        }
      ],
      "name": "batchGatewayURLs",
      "outputs": [
        {
          "internalType": "string",
          "name": "",
          "type": "string"
        }
      ],
      "stateMutability": "view",
      "type": "function"
    },
    {
      "inputs": [
        {
          "internalType": "bytes",
          "name": "name",
          "type": "bytes"
        }
      ],
      "name": "findResolver",
      "outputs": [
        {
          "internalType": "contract Resolver",
          "name": "",
          "type": "address"
        },
        {
          "internalType": "bytes32",
          "name": "",
          "type": "bytes32"
        },
        {
          "internalType": "uint256",
          "name": "",
          "type": "uint256"
        }
      ],
      "stateMutability": "view",
      "type": "function"
    },
    {
      "inputs": [],
      "name": "owner",
      "outputs": [
        {
          "internalType": "address",
          "name": "",
          "type": "address"
        }
      ],
      "stateMutability": "view",
      "type": "function"
    },
    {
      "inputs": [],
      "name": "registry",
      "outputs": [
        {
          "internalType": "contract ENS",
          "name": "",
          "type": "address"
        }
      ],
      "stateMutability": "view",
      "type": "function"
    },
    {
      "inputs": [],
      "name": "renounceOwnership",
      "outputs": [],
      "stateMutability": "nonpayable",
      "type": "function"
    },
    {
      "inputs": [
        {
          "internalType": "bytes",
          "name": "name",
          "type": "bytes"
        },
        {
          "internalType": "bytes",
          "name": "data",
          "type": "bytes"
        },
        {
          "internalType": "string[]",
          "name": "gateways",
          "type": "string[]"
        }
      ],
      "name": "resolve",
      "outputs": [
        {
          "internalType": "bytes",
          "name": "",
          "type": "bytes"
        },
        {
          "internalType": "address",
          "name": "",
          "type": "address"
        }
      ],
      "stateMutability": "view",
      "type": "function"
    },
    {
      "inputs": [
        {
          "internalType": "bytes",
          "name": "name",
          "type": "bytes"
        },
        {
          "internalType": "bytes[]",
          "name": "data",
          "type": "bytes[]"
        }
      ],
      "name": "resolve",
      "outputs": [
        {
          "internalType": "bytes[]",
          "name": "",
          "type": "bytes[]"
        },
        {
          "internalType": "address",
          "name": "",
          "type": "address"
        }
      ],
      "stateMutability": "view",
      "type": "function"
    },
    {
      "inputs": [
        {
          "internalType": "bytes",
          "name": "name",
          "type": "bytes"
        },
        {
          "internalType": "bytes[]",
          "name": "data",
          "type": "bytes[]"
        },
        {
          "internalType": "string[]",
          "name": "gateways",
          "type": "string[]"
        }
      ],
      "name": "resolve",
      "outputs": [
        {
          "internalType": "bytes[]",
          "name": "",
          "type": "bytes[]"
        },
        {
          "internalType": "address",
          "name": "",
          "type": "address"
        }
      ],
      "stateMutability": "view",
      "type": "function"
    },
    {
      "inputs": [
        {
          "internalType": "bytes",
          "name": "name",
          "type": "bytes"
        },
        {
          "internalType": "bytes",
          "name": "data",
          "type": "bytes"
        }
      ],
      "name": "resolve",
      "outputs": [
        {
          "internalType": "bytes",
          "name": "",
          "type": "bytes"
        },
        {
          "internalType": "address",
          "name": "",
          "type": "address"
        }
      ],
      "stateMutability": "view",
      "type": "function"
    },
    {
      "inputs": [
        {
          "internalType": "bytes",
          "name": "response",
          "type": "bytes"
        },
        {
          "internalType": "bytes",
          "name": "extraData",
          "type": "bytes"
        }
      ],
      "name": "resolveCallback",
      "outputs": [
        {
          "internalType": "bytes[]",
          "name": "",
          "type": "bytes[]"
        },
        {
          "internalType": "address",
          "name": "",
          "type": "address"
        }
      ],
      "stateMutability": "view",
      "type": "function"
    },
    {
      "inputs": [
        {
          "internalType": "bytes",
          "name": "response",
          "type": "bytes"
        },
        {
          "internalType": "bytes",
          "name": "extraData",
          "type": "bytes"
        }
      ],
      "name": "resolveSingleCallback",
      "outputs": [
        {
          "internalType": "bytes",
          "name": "",
          "type": "bytes"
        },
        {
          "internalType": "address",
          "name": "",
          "type": "address"
        }
      ],
      "stateMutability": "view",
      "type": "function"
    },
    {
      "inputs": [
        {
          "internalType": "bytes",
          "name": "reverseName",
          "type": "bytes"
        },
        {
          "internalType": "string[]",
          "name": "gateways",
          "type": "string[]"
        }
      ],
      "name": "reverse",
      "outputs": [
        {
          "internalType": "string",
          "name": "",
          "type": "string"
        },
        {
          "internalType": "address",
          "name": "",
          "type": "address"
        },
        {
          "internalType": "address",
          "name": "",
          "type": "address"
        },
        {
          "internalType": "address",
          "name": "",
          "type": "address"
        }
      ],
      "stateMutability": "view",
      "type": "function"
    },
    {
      "inputs": [
        {
          "internalType": "bytes",
          "name": "reverseName",
          "type": "bytes"
        }
      ],
      "name": "reverse",
      "outputs": [
        {
          "internalType": "string",
          "name": "",
          "type": "string"
        },
        {
          "internalType": "address",
          "name": "",
          "type": "address"
        },
        {
          "internalType": "address",
          "name": "",
          "type": "address"
        },
        {
          "internalType": "address",
          "name": "",
          "type": "address"
        }
      ],
      "stateMutability": "view",
      "type": "function"
    },
    {
      "inputs": [
        {
          "internalType": "bytes",
          "name": "response",
          "type": "bytes"
        },
        {
          "internalType": "bytes",
          "name": "extraData",
          "type": "bytes"
        }
      ],
      "name": "reverseCallback",
      "outputs": [
        {
          "internalType": "string",
          "name": "",
          "type": "string"
        },
        {
          "internalType": "address",
          "name": "",
          "type": "address"
        },
        {
          "internalType": "address",
          "name": "",
          "type": "address"
        },
        {
          "internalType": "address",
          "name": "",
          "type": "address"
        }
      ],
      "stateMutability": "view",
      "type": "function"
    },
    {
      "inputs": [
        {
          "internalType": "string[]",
          "name": "_urls",
          "type": "string[]"
        }
      ],
      "name": "setGatewayURLs",
      "outputs": [],
      "stateMutability": "nonpayable",
      "type": "function"
    },
    {
      "inputs": [
        {
          "internalType": "bytes4",
          "name": "interfaceId",
          "type": "bytes4"
        }
      ],
      "name": "supportsInterface",
      "outputs": [
        {
          "internalType": "bool",
          "name": "",
          "type": "bool"
        }
      ],
      "stateMutability": "view",
      "type": "function"
    },
    {
      "inputs": [
        {
          "internalType": "address",
          "name": "newOwner",
          "type": "address"
        }
      ],
      "name": "transferOwnership",
      "outputs": [],
      "stateMutability": "nonpayable",
      "type": "function"
    }
  ],
  "transactionHash": "0x1c1c0cce336884cf0889b881ed6ad8241bb89a4747469ba2df200d1e926a10ba",
  "args": [
    "0x4E7984fF74569a270765EE67792386cBA77D1b01",
    [
      "https://universal-offchain-unwrapper.mns-cf.workers.dev/"
    ]
  ],
  "numDeployments": 1,
  "solcInputHash": "b0f86eb025a2bf184421368d827bdf79",
  "bytecode": "0x60a06040523480156200001157600080fd5b5060405162003720380380620037208339810160408190526200003491620001da565b6200003f336200006a565b6001600160a01b038216608052805162000061906001906020840190620000ba565b5050506200049c565b600080546001600160a01b038381166001600160a01b0319831681178455604051919092169283917f8be0079c531659141344cd1fd0a4f28419497f9722a3daafe3b4186f6b6457e09190a35050565b82805482825590600052602060002090810192821562000105579160200282015b82811115620001055782518290620000f49082620003d0565b5091602001919060010190620000db565b506200011392915062000117565b5090565b80821115620001135760006200012e828262000138565b5060010162000117565b508054620001469062000341565b6000825580601f1062000157575050565b601f0160209004906000526020600020908101906200017791906200017a565b50565b5b808211156200011357600081556001016200017b565b634e487b7160e01b600052604160045260246000fd5b604051601f8201601f191681016001600160401b0381118282101715620001d257620001d262000191565b604052919050565b6000806040808486031215620001ef57600080fd5b83516001600160a01b03811681146200020757600080fd5b602085810151919450906001600160401b03808211156200022757600080fd5b8187019150601f88818401126200023d57600080fd5b82518281111562000252576200025262000191565b8060051b62000263868201620001a7565b918252848101860191868101908c8411156200027e57600080fd5b87870192505b838310156200032e578251868111156200029e5760008081fd5b8701603f81018e13620002b15760008081fd5b8881015187811115620002c857620002c862000191565b620002db818801601f19168b01620001a7565b8181528f8c838501011115620002f15760008081fd5b60005b8281101562000311578381018d01518282018d01528b01620002f4565b5060009181018b0191909152835250918701919087019062000284565b8099505050505050505050509250929050565b600181811c908216806200035657607f821691505b6020821081036200037757634e487b7160e01b600052602260045260246000fd5b50919050565b601f821115620003cb57600081815260208120601f850160051c81016020861015620003a65750805b601f850160051c820191505b81811015620003c757828155600101620003b2565b5050505b505050565b81516001600160401b03811115620003ec57620003ec62000191565b6200040481620003fd845462000341565b846200037d565b602080601f8311600181146200043c5760008415620004235750858301515b600019600386901b1c1916600185901b178555620003c7565b600085815260208120601f198616915b828110156200046d578886015182559484019460019091019084016200044c565b50858210156200048c5787850151600019600388901b60f8161c191681555b5050505050600190811b01905550565b608051613261620004bf600039600081816101ca015261132501526132616000f3fe608060405234801561001057600080fd5b50600436106101165760003560e01c80638e5ea8df116100a2578063b241d0d311610071578063b241d0d3146102a6578063b4a85801146102b9578063e0a85412146102cc578063ec11c823146102df578063f2fde38b146102f257600080fd5b80638e5ea8df146102285780639061b9231461023b578063a1cbcbaf1461024e578063a6b164191461028657600080fd5b8063715018a6116100e9578063715018a6146101a857806376286c00146101b25780637b103999146101c55780638da5cb5b146102045780638e25a0f31461021557600080fd5b806301ffc9a71461011b5780630667cfea14610143578063206c74c9146101645780636dc4fb7314610185575b600080fd5b61012e610129366004612059565b610305565b60405190151581526020015b60405180910390f35b61015661015136600461227a565b61033c565b60405161013a929190612357565b610177610172366004612400565b610371565b60405161013a929190612468565b6101986101933660046124dd565b61045e565b60405161013a9493929190612548565b6101b061052b565b005b6101776101c0366004612584565b61053f565b6101ec7f000000000000000000000000000000000000000000000000000000000000000081565b6040516001600160a01b03909116815260200161013a565b6000546001600160a01b03166101ec565b6101566102233660046125e2565b610567565b6101b06102363660046126a7565b6105fd565b6101566102493660046126e3565b61061c565b61026161025c366004612741565b610715565b604080516001600160a01b03909416845260208401929092529082015260600161013a565b610299610294366004612782565b61073b565b60405161013a919061279b565b6101986102b43660046127ae565b6107e7565b6101776102c73660046124dd565b6108bf565b6101566102da3660046124dd565b6108ea565b6101986102ed366004612741565b610935565b6101b0610300366004612821565b610a2a565b60006001600160e01b03198216639061b92360e01b148061033657506301ffc9a760e01b6001600160e01b03198316145b92915050565b606060006103648686868663e0a8541260e01b60405180602001604052806000815250610567565b9150915094509492505050565b606060006104528585856001805480602002602001604051908101604052809291908181526020016000905b828210156104495783829060005260206000200180546103bc9061283e565b80601f01602080910402602001604051908101604052809291908181526020018280546103e89061283e565b80156104355780601f1061040a57610100808354040283529160200191610435565b820191906000526020600020905b81548152906001019060200180831161041857829003601f168201915b50505050508152602001906001019061039d565b5050505061053f565b91509150935093915050565b6060600080808080808061047c8c8c8c8c636dc4fb7360e01b610aa8565b93509350935093506000815111156104ee57600080828060200190518101906104a591906128bd565b915091506000866000815181106104be576104be61290e565b60200260200101518060200190518101906104d99190612924565b929a5091985096509294506105209350505050565b610513846000815181106105045761050461290e565b60200260200101518484610e2c565b9750975097509750505050505b945094509450949050565b610533610f74565b61053d6000610fce565b565b606060006103648686868663b4a8580160e01b6040518060200160405280600081525061101e565b6040805160018082528183019092526060916000918291816020015b606081526020019060019003908161058357905050905086816000815181106105ae576105ae61290e565b60200260200101819052506000806105ca8b8b858b8b8b61101e565b91509150816000815181106105e1576105e161290e565b602002602001015181945094505050505b965096945050505050565b610605610f74565b8051610618906001906020840190611f86565b5050565b606060006104528585856001805480602002602001604051908101604052809291908181526020016000905b828210156106f45783829060005260206000200180546106679061283e565b80601f01602080910402602001604051908101604052809291908181526020018280546106939061283e565b80156106e05780601f106106b5576101008083540402835291602001916106e0565b820191906000526020600020905b8154815290600101906020018083116106c357829003601f168201915b505050505081526020019060010190610648565b5050505063e0a8541260e01b60405180602001604052806000815250610567565b60008060008060008061072a88886000611137565b919750955093505050509250925092565b6001818154811061074b57600080fd5b9060005260206000200160009150905080546107669061283e565b80601f01602080910402602001604051908101604052809291908181526020018280546107929061283e565b80156107df5780601f106107b4576101008083540402835291602001916107df565b820191906000526020600020905b8154815290600101906020018083116107c257829003601f168201915b505050505081565b6060600080600080610833600089898080601f01602080910402602001604051908101604052809392919081815260200183838082843760009201919091525092939250506113cc9050565b60405160240161084591815260200190565b60408051601f19818403018152918152602080830180516001600160e01b031663691f343160e01b17905281519081019091526000808252919250819061089c908b908b9086908c90636dc4fb7360e01b90610567565b915091506108ab82828a610e2c565b965096509650965050505093509350935093565b6060600080806108d98888888863b4a8580160e01b610aa8565b50919a909950975050505050505050565b606060008080610904888888886370542a0960e11b610aa8565b5050915091508160008151811061091d5761091d61290e565b60200260200101518193509350505094509492505050565b60606000806000610a1886866001805480602002602001604051908101604052809291908181526020016000905b82821015610a0f5783829060005260206000200180546109829061283e565b80601f01602080910402602001604051908101604052809291908181526020018280546109ae9061283e565b80156109fb5780601f106109d0576101008083540402835291602001916109fb565b820191906000526020600020905b8154815290600101906020018083116109de57829003601f168201915b505050505081526020019060010190610963565b505050506107e7565b93509350935093505b92959194509250565b610a32610f74565b6001600160a01b038116610a9c5760405162461bcd60e51b815260206004820152602660248201527f4f776e61626c653a206e6577206f776e657220697320746865207a65726f206160448201526564647265737360d01b60648201526084015b60405180910390fd5b610aa581610fce565b50565b60606000606080610b0c60405180610100016040528060608152602001606081526020016060815260200160006001600160e01b031916815260200160001515815260200160006001600160a01b0316815260200160608152602001606081525090565b6001600160e01b031986166060820152600080610b2b8b8d018d61294f565b90925090506060610b3e8a8c018c612a06565b60c089019190915260408801919091526001600160a01b0390911660a08701529015156080860152805183519192501015610b7857600080fd5b80516001600160401b03811115610b9157610b916120c5565b604051908082528060200260200182016040528015610bc457816020015b6060815260200190600190039081610baf5790505b50602085015280516001600160401b03811115610be357610be36120c5565b604051908082528060200260200182016040528015610c0c578160200160208202803683370190505b5060e08501526000805b8251811015610dfa578251600090849083908110610c3657610c3661290e565b6020026020010151600001516001600160e01b03191603610c9557828181518110610c6357610c6361290e565b60200260200101516020015186602001518281518110610c8557610c8561290e565b6020026020010181905250610de8565b848281518110610ca757610ca761290e565b602002602001015115610d1e5760018660e001518281518110610ccc57610ccc61290e565b602002602001019015159081151581525050838281518110610cf057610cf061290e565b602002602001015186602001518281518110610d0e57610d0e61290e565b6020026020010181905250610dda565b828181518110610d3057610d3061290e565b602002602001015160000151848381518110610d4e57610d4e61290e565b6020026020010151848381518110610d6857610d6861290e565b602002602001015160200151604051602401610d85929190612b89565b604051602081830303815290604052906001600160e01b0319166020820180516001600160e01b03838183161783525050505086602001518281518110610dce57610dce61290e565b60200260200101819052505b610de5826001612bcd565b91505b80610df281612be0565b915050610c16565b50610e048561148b565b8560a0015186604001518760c001519850985098509850505050505095509550955095915050565b606060008060008087806020019051810190610e489190612bf9565b9050600080610e568361191b565b91509150600081604051602401610e6f91815260200190565b60408051601f19818403018152918152602080830180516001600160e01b0316631d9dabef60e11b1790529051919250600091610eb09187918e9101612357565b6040516020818303038152906040529050600080306001600160a01b0316638e25a0f387868f636dc4fb7360e01b886040518663ffffffff1660e01b8152600401610eff959493929190612c85565b600060405180830381865afa158015610f1c573d6000803e3d6000fd5b505050506040513d6000823e601f3d908101601f19168201604052610f4491908101906128bd565b91509150600082806020019051810190610f5e9190612924565b979f979e50909b50959950505050505050505050565b6000546001600160a01b0316331461053d5760405162461bcd60e51b815260206004820181905260248201527f4f776e61626c653a2063616c6c6572206973206e6f7420746865206f776e65726044820152606401610a93565b600080546001600160a01b038381166001600160a01b0319831681178455604051919092169283917f8be0079c531659141344cd1fd0a4f28419497f9722a3daafe3b4186f6b6457e09190a35050565b6060600080600061102f8a8a610715565b919450849350909150506001600160a01b0382166110535750600091506105f29050565b604080516101206020601f8d01819004028201810190925261010081018b815283151592611127929182918f908f9081908501838280828437600092019190915250505090825250602081018c9052604081018b90526001600160e01b03198a16606082015283151560808201526001600160a01b03871660a082015260c081018990528b5160e0909101906001600160401b038111156110f6576110f66120c5565b60405190808252806020026020018201604052801561111f578160200160208202803683370190505b50905261148b565b9450505050965096945050505050565b60008060008086868681811061114f5761114f61290e565b919091013560f81c91505060008190036111735750600092508291508390506113c3565b600061117f8287612bcd565b61118a906001612bcd565b905060008260421480156111d0575088886111a6896001612bcd565b8181106111b5576111b561290e565b9050013560f81c60f81b6001600160f81b031916605b60f81b145b801561120e575088886111e4600185612cee565b8181106111f3576111f361290e565b9050013560f81c60f81b6001600160f81b031916605d60f81b145b156112865761127e600060408b8b6112278c6002612bcd565b90611233600189612cee565b9261124093929190612d01565b8080601f016020809104026020016040519081016040528093929190818152602001838380828437600092019190915250929493925050611b0f9050565b5090506112b8565b8888611293896001612bcd565b61129f92859290612d01565b6040516112ad929190612d2b565b604051809103902090505b60008060006112c88c8c87611137565b925092509250600082856040516020016112ec929190918252602082015260400190565b60408051601f19818403018152908290528051602090910120630178b8bf60e01b82526004820181905291506000906001600160a01b037f00000000000000000000000000000000000000000000000000000000000000001690630178b8bf90602401602060405180830381865afa15801561136c573d6000803e3d6000fd5b505050506040513d601f19601f820116820180604052508101906113909190612924565b90506001600160a01b038116156113b457995097508996506113c395505050505050565b50929850919650909450505050505b93509350939050565b60008060006113db8585611be0565b90925090508161144d57600185516113f39190612cee565b84146114415760405162461bcd60e51b815260206004820152601d60248201527f6e616d65686173683a204a756e6b20617420656e64206f66206e616d650000006044820152606401610a93565b50600091506103369050565b61145785826113cc565b6040805160208101929092528101839052606001604051602081830303815290604052805190602001209250505092915050565b602081015151606090600080826001600160401b038111156114af576114af6120c5565b60405190808252806020026020018201604052801561150d57816020015b6114fa604051806060016040528060006001600160a01b0316815260200160608152602001606081525090565b8152602001906001900390816114cd5790505b5090506000836001600160401b0381111561152a5761152a6120c5565b60405190808252806020026020018201604052801561157057816020015b6040805180820190915260008152606060208201528152602001906001900390816115485790505b509050836001600160401b0381111561158b5761158b6120c5565b6040519080825280602002602001820160405280156115be57816020015b60608152602001906001900390816115a95790505b5086515160a088015191965015906000906115d890611c97565b9050876080015115806115e85750805b6116695760405162461bcd60e51b815260206004820152604660248201527f556e6976657273616c5265736f6c7665723a2057696c6463617264206f6e206e60448201527f6f6e2d657874656e646564207265736f6c76657273206973206e6f74207375706064820152651c1bdc9d195960d21b608482015260a401610a93565b60005b868110156118595760008960200151828151811061168c5761168c61290e565b6020026020010151905060008a60e0015183815181106116ae576116ae61290e565b6020026020010151905080156116e357818a84815181106116d1576116d161290e565b60200260200101819052505050611847565b841580156116ee5750835b15611734578a5160405161170791908490602401612b89565b60408051601f198184030181529190526020810180516001600160e01b0316639061b92360e01b17905291505b6000806000806117488f60a0015187611d12565b935093509350935083156117bd578280602001905181019061176a9190612dba565b8b8d8151811061177c5761177c61290e565b6020026020010181905250818a888151811061179a5761179a61290e565b60209081029190910101526117b060018d612bcd565b9b50505050505050611847565b8080156117c75750875b156117e357828060200190518101906117e09190612bf9565b92505b828e88815181106117f6576117f661290e565b60200260200101819052508e6020015187815181106118175761181761290e565b60200260200101518a88815181106118315761183161290e565b6020026020010151602001819052505050505050505b8061185181612be0565b91505061166c565b508460000361186d57505050505050919050565b84845230886040015163a780bab660e01b8660405160240161188f9190612eb3565b604051602081830303815290604052906001600160e01b0319166020820180516001600160e01b0383818316178352505050508a606001518b608001518c60a001518d604001518e60c001518a6040516020016118f0959493929190612f15565b60408051601f1981840301815290829052630556f18360e41b8252610a939594939291600401612fd1565b805160609060009081908490611932816002612bcd565b6001600160401b03811115611949576119496120c5565b6040519080825280601f01601f191660200182016040528015611973576020820181803683370190505b509450600093508084036119b857600060f81b856000815181106119995761199961290e565b60200101906001600160f81b031916908160001a905350505050915091565b60001981015b8281815181106119d0576119d061290e565b01602001516001600160f81b031916601760f91b03611a5e578360f81b868260010181518110611a0257611a0261290e565b60200101906001600160f81b031916908160001a90535084611a2b846001840160ff8816611e8b565b60408051602081019390935282015260600160405160208183030381529060405280519060200120945060009350611aae565b600184019350828181518110611a7657611a7661290e565b602001015160f81c60f81b868260010181518110611a9657611a9661290e565b60200101906001600160f81b031916908160001a9053505b8015611abd57600019016119be565b5083611ace83600060ff8716611e8b565b6040805160208101939093528201526060016040516020818303038152906040528051906020012093508260f81b856000815181106119995761199961290e565b8251600090600190831115611b2357600080fd5b611b74565b6000603a8210602f83111615611b405750602f190190565b60478210604083111615611b5657506036190190565b60678210606083111615611b6c57506056190190565b5060ff919050565b60208501845b84811015611bd657611b918183015160001a611b28565b611ba36001830184015160001a611b28565b60ff811460ff83141715611bbc57600094505050611bd6565b60049190911b1760089490941b9390931792600201611b7a565b5050935093915050565b60008083518310611c335760405162461bcd60e51b815260206004820152601e60248201527f726561644c6162656c3a20496e646578206f7574206f6620626f756e647300006044820152606401610a93565b6000848481518110611c4757611c4761290e565b016020015160f81c90508015611c7357611c6c85611c66866001612bcd565b83611e8b565b9250611c78565b600092505b611c828185612bcd565b611c8d906001612bcd565b9150509250929050565b6040516301ffc9a760e01b8152639061b92360e01b60048201526000906001600160a01b038316906301ffc9a79061c350906024016020604051808303818786fa93505050508015611d06575060408051601f3d908101601f19168201909252611d0391810190613007565b60015b61033657506000919050565b60408051808201909152600080825260606020830181905290916000611d388686611eaf565b90503d8115611d5e576000611d4e600083611f32565b909550935060019150610a219050565b60048110611e81576000611d7460006004611f32565b90506000611d8c6004611d878186612cee565b611f32565b9050630556f18360e41b611d9f83613024565b6001600160e01b03191603611e6d57600080600080600085806020019051810190611dca919061305b565b945094509450945094508d6001600160a01b0316856001600160a01b031603611e63576040518060600160405280866001600160a01b0316815260200185815260200184815250604051602001611e21919061310a565b60408051601f198184030181528282019091526001600160e01b03199093168152602081019190915260019b50909950975060009650610a2195505050505050565b5050505050611e7e565b600096509450859250610a21915050565b50505b5092959194509250565b8251600090611e9a8385612bcd565b1115611ea557600080fd5b5091016020012090565b60006001600160a01b0383163b611f1f5760405162461bcd60e51b815260206004820152602e60248201527f4c6f774c6576656c43616c6c5574696c733a207374617469632063616c6c207460448201526d1bc81b9bdb8b58dbdb9d1c9858dd60921b6064820152608401610a93565b600080835160208501865afa9392505050565b6060816001600160401b03811115611f4c57611f4c6120c5565b6040519080825280601f01601f191660200182016040528015611f76576020820181803683370190505b5090508183602083013e92915050565b828054828255906000526020600020908101928215611fcc579160200282015b82811115611fcc5782518290611fbc908261316c565b5091602001919060010190611fa6565b50611fd8929150611fdc565b5090565b80821115611fd8576000611ff08282611ff9565b50600101611fdc565b5080546120059061283e565b6000825580601f10612015575050565b601f016020900490600052602060002090810190610aa591905b80821115611fd8576000815560010161202f565b6001600160e01b031981168114610aa557600080fd5b60006020828403121561206b57600080fd5b813561207681612043565b9392505050565b60008083601f84011261208f57600080fd5b5081356001600160401b038111156120a657600080fd5b6020830191508360208285010111156120be57600080fd5b9250929050565b634e487b7160e01b600052604160045260246000fd5b604080519081016001600160401b03811182821017156120fd576120fd6120c5565b60405290565b604051601f8201601f191681016001600160401b038111828210171561212b5761212b6120c5565b604052919050565b60006001600160401b0382111561214c5761214c6120c5565b50601f01601f191660200190565b600061216d61216884612133565b612103565b905082815283838301111561218157600080fd5b828260208301376000602084830101529392505050565b600082601f8301126121a957600080fd5b6120768383356020850161215a565b60006001600160401b038211156121d1576121d16120c5565b5060051b60200190565b600082601f8301126121ec57600080fd5b813560206121fc612168836121b8565b82815260059290921b8401810191818101908684111561221b57600080fd5b8286015b8481101561226f5780356001600160401b0381111561223e5760008081fd5b8701603f810189136122505760008081fd5b61226189868301356040840161215a565b84525091830191830161221f565b509695505050505050565b6000806000806060858703121561229057600080fd5b84356001600160401b03808211156122a757600080fd5b6122b38883890161207d565b909650945060208701359150808211156122cc57600080fd5b6122d888838901612198565b935060408701359150808211156122ee57600080fd5b506122fb878288016121db565b91505092959194509250565b60005b8381101561232257818101518382015260200161230a565b50506000910152565b60008151808452612343816020860160208601612307565b601f01601f19169290920160200192915050565b60408152600061236a604083018561232b565b905060018060a01b03831660208301529392505050565b600082601f83011261239257600080fd5b813560206123a2612168836121b8565b82815260059290921b840181019181810190868411156123c157600080fd5b8286015b8481101561226f5780356001600160401b038111156123e45760008081fd5b6123f28986838b0101612198565b8452509183019183016123c5565b60008060006040848603121561241557600080fd5b83356001600160401b038082111561242c57600080fd5b6124388783880161207d565b9095509350602086013591508082111561245157600080fd5b5061245e86828701612381565b9150509250925092565b6000604082016040835280855180835260608501915060608160051b8601019250602080880160005b838110156124bf57605f198887030185526124ad86835161232b565b95509382019390820190600101612491565b50506001600160a01b03969096169490950193909352949350505050565b600080600080604085870312156124f357600080fd5b84356001600160401b038082111561250a57600080fd5b6125168883890161207d565b9096509450602087013591508082111561252f57600080fd5b5061253c8782880161207d565b95989497509550505050565b60808152600061255b608083018761232b565b6001600160a01b0395861660208401529385166040830152509216606090920191909152919050565b6000806000806060858703121561259a57600080fd5b84356001600160401b03808211156125b157600080fd5b6125bd8883890161207d565b909650945060208701359150808211156125d657600080fd5b6122d888838901612381565b60008060008060008060a087890312156125fb57600080fd5b86356001600160401b038082111561261257600080fd5b61261e8a838b0161207d565b9098509650602089013591508082111561263757600080fd5b6126438a838b01612198565b9550604089013591508082111561265957600080fd5b6126658a838b016121db565b94506060890135915061267782612043565b9092506080880135908082111561268d57600080fd5b5061269a89828a01612198565b9150509295509295509295565b6000602082840312156126b957600080fd5b81356001600160401b038111156126cf57600080fd5b6126db848285016121db565b949350505050565b6000806000604084860312156126f857600080fd5b83356001600160401b038082111561270f57600080fd5b61271b8783880161207d565b9095509350602086013591508082111561273457600080fd5b5061245e86828701612198565b6000806020838503121561275457600080fd5b82356001600160401b0381111561276a57600080fd5b6127768582860161207d565b90969095509350505050565b60006020828403121561279457600080fd5b5035919050565b602081526000612076602083018461232b565b6000806000604084860312156127c357600080fd5b83356001600160401b03808211156127da57600080fd5b6127e68783880161207d565b909550935060208601359150808211156127ff57600080fd5b5061245e868287016121db565b6001600160a01b0381168114610aa557600080fd5b60006020828403121561283357600080fd5b81356120768161280c565b600181811c9082168061285257607f821691505b60208210810361287257634e487b7160e01b600052602260045260246000fd5b50919050565b600082601f83011261288957600080fd5b815161289761216882612133565b8181528460208386010111156128ac57600080fd5b6126db826020830160208701612307565b600080604083850312156128d057600080fd5b82516001600160401b038111156128e657600080fd5b6128f285828601612878565b92505060208301516129038161280c565b809150509250929050565b634e487b7160e01b600052603260045260246000fd5b60006020828403121561293657600080fd5b81516120768161280c565b8015158114610aa557600080fd5b6000806040838503121561296257600080fd5b82356001600160401b038082111561297957600080fd5b818501915085601f83011261298d57600080fd5b8135602061299d612168836121b8565b82815260059290921b840181019181810190898411156129bc57600080fd5b948201945b838610156129e35785356129d481612941565b825294820194908201906129c1565b965050860135925050808211156129f957600080fd5b50611c8d85828601612381565b600080600080600060a08688031215612a1e57600080fd5b612a288635612941565b85359450612a39602087013561280c565b602086013593506001600160401b038060408801351115612a5957600080fd5b612a6988604089013589016121db565b93508060608801351115612a7c57600080fd5b612a8c8860608901358901612198565b92508060808801351115612a9f57600080fd5b6080870135870188601f820112612ab557600080fd5b612ac261216882356121b8565b81358082526020808301929160051b8401018b1015612ae057600080fd5b602083015b6020843560051b850101811015612b77578481351115612b0457600080fd5b803584016040818e03601f19011215612b1c57600080fd5b612b246120db565b612b316020830135612043565b602082013581528660408301351115612b4957600080fd5b612b5c8e60206040850135850101612198565b60208201528085525050602083019250602081019050612ae5565b50809450505050509295509295909350565b604081526000612b9c604083018561232b565b8281036020840152612bae818561232b565b95945050505050565b634e487b7160e01b600052601160045260246000fd5b8082018082111561033657610336612bb7565b600060018201612bf257612bf2612bb7565b5060010190565b600060208284031215612c0b57600080fd5b81516001600160401b03811115612c2157600080fd5b6126db84828501612878565b600082825180855260208086019550808260051b84010181860160005b84811015612c7857601f19868403018952612c6683835161232b565b98840198925090830190600101612c4a565b5090979650505050505050565b60a081526000612c9860a083018861232b565b8281036020840152612caa818861232b565b90508281036040840152612cbe8187612c2d565b6001600160e01b03198616606085015283810360808501529050612ce2818561232b565b98975050505050505050565b8181038181111561033657610336612bb7565b60008085851115612d1157600080fd5b83861115612d1e57600080fd5b5050820193919092039150565b8183823760009101908152919050565b600082601f830112612d4c57600080fd5b81516020612d5c612168836121b8565b82815260059290921b84018101918181019086841115612d7b57600080fd5b8286015b8481101561226f5780516001600160401b03811115612d9e5760008081fd5b612dac8986838b0101612878565b845250918301918301612d7f565b600060208284031215612dcc57600080fd5b81516001600160401b0380821115612de357600080fd5b9083019060608286031215612df757600080fd5b604051606081018181108382111715612e1257612e126120c5565b6040528251612e208161280c565b8152602083015182811115612e3457600080fd5b612e4087828601612d3b565b602083015250604083015182811115612e5857600080fd5b612e6487828601612878565b60408301525095945050505050565b60018060a01b0381511682526000602082015160606020850152612e9a6060850182612c2d565b905060408301518482036040860152612bae828261232b565b6000602080830181845280855180835260408601915060408160051b870101925083870160005b82811015612f0857603f19888603018452612ef6858351612e73565b94509285019290850190600101612eda565b5092979650505050505050565b85151581526000602060018060a01b03871681840152604060a081850152612f4060a0850188612c2d565b8481036060860152612f52818861232b565b905084810360808601528086518083528483019150848160051b84010185890160005b83811015612fbe57858303601f19018552815180516001600160e01b0319168452880151888401889052612fab8885018261232b565b9589019593505090870190600101612f75565b50909d9c50505050505050505050505050565b6001600160a01b038616815260a060208201819052600090612ff590830187612c2d565b8281036040840152612cbe818761232b565b60006020828403121561301957600080fd5b815161207681612941565b805160208201516001600160e01b031980821692919060048310156130535780818460040360031b1b83161693505b505050919050565b600080600080600060a0868803121561307357600080fd5b855161307e8161280c565b60208701519095506001600160401b038082111561309b57600080fd5b6130a789838a01612d3b565b955060408801519150808211156130bd57600080fd5b6130c989838a01612878565b9450606088015191506130db82612043565b6080880151919350808211156130f057600080fd5b506130fd88828901612878565b9150509295509295909350565b6020815260006120766020830184612e73565b601f82111561316757600081815260208120601f850160051c810160208610156131445750805b601f850160051c820191505b8181101561316357828155600101613150565b5050505b505050565b81516001600160401b03811115613185576131856120c5565b61319981613193845461283e565b8461311d565b602080601f8311600181146131ce57600084156131b65750858301515b600019600386901b1c1916600185901b178555613163565b600085815260208120601f198616915b828110156131fd578886015182559484019460019091019084016131de565b508582101561321b5787850151600019600388901b60f8161c191681555b5050505050600190811b0190555056fea2646970667358221220b2395307b295b18a362111ea6c3ca00d36d1a7d2a8b458056a1902987c74277d64736f6c63430008110033",
  "devdoc": {
    "kind": "dev",
    "methods": {
      "findResolver(bytes)": {
        "details": "Finds a resolver by recursively querying the registry, starting at the longest name and progressively      removing labels until it finds a result.",
        "params": {
          "name": "The name to resolve, in DNS-encoded and normalised form."
        },
        "returns": {
          "_0": "resolver The Resolver responsible for this name.",
          "_1": "namehash The namehash of the full name.",
          "_2": "finalOffset The offset of the first label with a resolver."
        }
      },
      "owner()": {
        "details": "Returns the address of the current owner."
      },
      "renounceOwnership()": {
        "details": "Leaves the contract without owner. It will not be possible to call `onlyOwner` functions anymore. Can only be called by the current owner. NOTE: Renouncing ownership will leave the contract without an owner, thereby removing any functionality that is only available to the owner."
      },
      "resolve(bytes,bytes)": {
        "details": "Performs ENS name resolution for the supplied name and resolution data.",
        "params": {
          "data": "The resolution data, as specified in ENSIP-10.",
          "name": "The name to resolve, in normalised and DNS-encoded form."
        },
        "returns": {
          "_0": "The result of resolving the name."
        }
      },
      "reverse(bytes,string[])": {
        "details": "Performs ENS name reverse resolution for the supplied reverse name.",
        "params": {
          "reverseName": "The reverse name to resolve, in normalised and DNS-encoded form. e.g. b6E040C9ECAaE172a89bD561c5F73e1C48d28cd9.addr.reverse"
        },
        "returns": {
          "_0": "The resolved name, the resolved address, the reverse resolver address, and the resolver address."
        }
      },
      "supportsInterface(bytes4)": {
        "details": "See {IERC165-supportsInterface}."
      },
      "transferOwnership(address)": {
        "details": "Transfers ownership of the contract to a new account (`newOwner`). Can only be called by the current owner."
      }
    },
    "version": 1
  },
  "userdoc": {
    "kind": "user",
    "methods": {},
    "notice": "The Universal Resolver is a contract that handles the work of resolving a name entirely onchain, making it possible to make a single smart contract call to resolve an ENS name.",
    "version": 1
  },
  "storageLayout": {
    "storage": [
      {
        "astId": 444,
        "contract": "contracts/utils/UniversalResolver.sol:UniversalResolver",
        "label": "_owner",
        "offset": 0,
        "slot": "0",
        "type": "t_address"
      },
      {
        "astId": 18316,
        "contract": "contracts/utils/UniversalResolver.sol:UniversalResolver",
        "label": "batchGatewayURLs",
        "offset": 0,
        "slot": "1",
        "type": "t_array(t_string_storage)dyn_storage"
      }
    ],
    "types": {
      "t_address": {
        "encoding": "inplace",
        "label": "address",
        "numberOfBytes": "20"
      },
      "t_array(t_string_storage)dyn_storage": {
        "base": "t_string_storage",
        "encoding": "dynamic_array",
        "label": "string[]",
        "numberOfBytes": "32"
      },
      "t_string_storage": {
        "encoding": "bytes",
        "label": "string",
        "numberOfBytes": "32"
      }
    }
  }
}